:020000040000FA
:100000000C9462000C948A000C948A000C948A0070
:100010000C948A000C948A000C948A000C948A0038
:100020000C948A000C948A000C948A000C948A0028
:100030000C948A000C948A000C948A000C948A0018
:100040000C94010D0C948A000C94710D0C944B0DC2
:100050000C948A000C948A000C948A000C948A00F8
:100060000C948A000C948A000000000024002700F1
:100070002A000000000023002600290000000000E4
:10008000250028002B0004040404040404040202D4
:100090000202020203030303030301020408102007
:1000A0004080010204081020010204081020000012
:1000B0000008000201000003040700000000000027
:1000C0000000FA1411241FBECFEFD8E0DEBFCDBF71
:1000D00013E0A0E0B1E0E6E2FDE202C005900D927F
:1000E000AC3FB107D9F726E0ACEFB3E001C01D92F9
:1000F000A339B207E1F710E0C2E6D0E004C02197CF
:10010000FE010E945D15C136D107C9F70E94A30DFB
:100110000C9491160C940000833081F028F4813007
:1001200099F08230A9F008958730A9F08830C9F09D
:100130008430B1F4809180008F7D03C08091800075
:100140008F7780938000089584B58F7784BD08955C
:1001500084B58F7DFBCF8091B0008F778093B00006
:1001600008958091B0008F7DF9CF1F93CF93DF93D7
:10017000282F30E0F901E255FF4F8491F901E6564E
:10018000FF4FD491F901EA57FF4FC491CC23A9F056
:10019000162F81110E948C00EC2FF0E0EE0FFF1F54
:1001A000E458FF4FA591B4918FB7F894EC911111D9
:1001B00008C0D095DE23DC938FBFDF91CF911F91D4
:1001C0000895DE2BF8CF8230910538F0880F991F03
:1001D000880F991F05970197F1F708953FB7F89495
:1001E00080918B0690918C06A0918D06B0918E0621
:1001F00026B5A89B05C02F3F19F00196A11DB11D82
:100200003FBFBA2FA92F982F8827BC01CD01620FBD
:10021000711D811D911D42E0660F771F881F991F78
:100220004A95D1F70895AF92BF92CF92DF92EF92A5
:10023000FF920F931F93CF93DF936C017B018B0190
:10024000040F151FEB015E01AE18BF08C017D107E0
:1002500059F06991D601ED91FC910190F081E02D6A
:10026000C6010995892B79F7C501DF91CF911F91BF
:100270000F91FF90EF90DF90CF90BF90AF900895D7
:10028000FC01538D448D252F30E0842F90E0821B9C
:10029000930B541710F0CF96089501970895FC0121
:1002A000918D828D981761F0A28DAE0FBF2FB11D79
:1002B0005D968C91928D9F5F9F73928F90E00895D1
:1002C0008FEF9FEF0895FC01918D828D981731F08B
:1002D000828DE80FF11D858D90E008958FEF9FEFDF
:1002E0000895FC01918D228D892F90E0805C9F4FB5
:1002F000821B91098F73992708958DEE94E00E94D7
:10030000710121E0892B09F420E0822F089580E01B
:1003100090E0892B29F00E947D0181110C9400004E
:100320000895FC01A48DA80FB92FB11DA35ABF4F8A
:100330002C91848D90E001968F739927848FA689E4
:10034000B7892C93A089B1898C91837080648C9338
:10035000938D848D981306C00288F389E02D8081E7
:100360008F7D80830895EF92FF920F931F93CF9319
:10037000DF93EC0181E0888F9B8D8C8D98131AC0E0
:10038000E889F989808185FF15C09FB7F894EE89C7
:10039000FF896083E889F989808183708064808324
:1003A0009FBF81E090E0DF91CF911F910F91FF906F
:1003B000EF900895F62E0B8D10E00F5F1F4F0F7317
:1003C0001127E02E8C8D8E110CC00FB607FCFACFD2
:1003D000E889F989808185FFF5CFCE010E949101DE
:1003E000F1CFEB8DEC0FFD2FF11DE35AFF4FF082A3
:1003F0009FB7F8940B8FEA89FB8980818062CFCF09
:10040000CF93DF93EC01888D8823B9F0AA89BB894B
:10041000E889F9898C9185FD03C0808186FD0DC036
:100420000FB607FCF7CF8C9185FFF2CF808185FF57
:10043000EDCFCE010E949101E9CFDF91CF910895D8
:10044000880F991F880F991FFC01EA5FFC4F82817A
:1004500093818A309105B9F040F48230910569F0BA
:10046000039771F090E080E008958332910529F0C0
:100470008733910511F00F97A9F781E090E0089577
:1004800082E090E0089588E090E00895880F991F39
:10049000880F991FFC01EA5FFC4F808191812281C6
:1004A00033812A30310591F040F422503109223055
:1004B000310560F090E080E009C02332310539F069
:1004C0002733310521F02F303105A1F70895FC01C4
:1004D000228121FF02C003960895808191810895B1
:1004E000FC0184819581A681B7814081518162811F
:1004F0007381811526E3920725E6A20724ECB20753
:100500003CF014161506160617068CF4B7FF0FC03C
:10051000415051096109710940835183628373839A
:100520009653A546B44C84839583A683B783848170
:100530009581A681B781408151816281738181302B
:100540002AEC92072AE9A2072BE3B2073CF477FFD3
:1005500014C0181619061A061B067CF44F5F5F4F6D
:100560006F4F7F4F40835183628373839A5CAA49A4
:10057000BB4384839583A683B783089520910704A2
:10058000209530E0F901EA5FFD4F908190952A5F58
:100590003E4FD9018C914091050450910604425080
:1005A0005109E7E0F4E031969F01275034402417C9
:1005B000350770F420819227292F30E0D901AA5FF6
:1005C000BD4F9C9198272A5F3E4FD9018C91EBCF6C
:1005D000089523E030E03093060420930504E7E01B
:1005E000F4E09091DA0490838058818362830895C7
:1005F0000F931F93582F577001E010E020E030E078
:1006000004C0000F111F221F331F5A95D2F723E099
:10061000969587952A95E1F79927E091E404F09162
:10062000E504662321F0E091EA04F091EB04E80F81
:10063000F91F8081442329F0082B00831F910F911B
:10064000089500950823F9CFCF92DF92EF92FF92A1
:100650000F931F93CF93DF93CDB7DEB78889998926
:10066000AA89BB894C895D896E897F89088D198D1E
:100670002A8D3B8DCC8CDD8CEE8CFF8C8017910706
:10068000A207B30759F44C195D096E097F091416C6
:100690001506160617065CF081E00AC0801B910B58
:1006A000A20BB30B181619061A061B06ACF780E04E
:1006B000DF91CF911F910F91FF90EF90DF90CF903E
:1006C00008952F923F924F925F926F927F928F92F6
:1006D0009F92AF92BF92CF92DF92EF92FF920F93D1
:1006E0001F93CF93DF93CDB7DEB7EB970FB6F89498
:1006F000DEBF0FBECDBF10E000E0F801EE0FFF1F20
:10070000EF5CF94F0190F081E02D309749F041E026
:100710008081811101C040E060E0C8010E94F802C0
:100720000F5F1F4F0032110541F70AE914E01DABBE
:100730000CABE091DB04F091DC049F01205C3F4FA7
:10074000A801DA018D919D91AD01009729F0DC019E
:100750008D919C91918380833296E217F30789F7FC
:10076000EAE8EE2EE5E0FE2E10E000E0D701ED9184
:10077000FD917D01309749F041E08081811101C0F8
:1007800040E061E0C8010E94F8020F5F1F4F08308F
:10079000110561F74EE854E0E091E704F091E804B8
:1007A0009F01245F3F4FDA018D919D91AD0100972C
:1007B00029F0DC018D919C919183808332962E17D4
:1007C0003F0789F7109206041092050480918C046B
:1007D00090918D04DC01ED91FC910084F185E02D78
:1007E0000995892B09F483C080918C0490918D0424
:1007F000DC01ED91FC910084F185E02D09952091BB
:10080000050430910604A0918C04B0918D04ED9103
:10081000FC9111970084F185E02D2817390768F4C1
:10082000CD01099590930604809305048091890475
:1008300090918A040E94E300D7CFCD0109958138B9
:1008400091050CF054C080918C0490918D04DC01D2
:10085000ED91FC910084F185E02D099506970CF44B
:1008600046C077E0A72E74E0B72E7501009105040D
:1008700010910604C701875094408017910778F4BF
:1008800080918C0490918D04DC01ED91FC910284A7
:10089000F385E02D0995F70181937F01E7CFF09073
:1008A00008048FEB8F0D853080F00E94BE02980106
:1008B000295F3B4FF9013297408121503109D9011D
:1008C0002C91342F2817390791F4909107048091C7
:1008D000DA04981709F464C080918C0490918D0417
:1008E000DC01ED91FC910680F781E02D09954091A6
:1008F000E4045091E50430E020E0F901EE0FFF1F21
:10090000EF5CF94FA081B181109799F0F90183E074
:10091000F695E7958A95E1F7E40FF51F808190E061
:10092000622F677002C0959587956A95E2F781708E
:100930008C932F5F3F4F20323105F9F6E091DB04B5
:10094000F091DC04CF01805C9F4FACA9BDA94D9113
:100950005D91BDABACAB4115510529F020813181D2
:10096000DA012D933C9332968E179F0771F7EB9621
:100970000FB6F894DEBF0FBECDBFDF91CF911F91B0
:100980000F91FF90EF90DF90CF90BF90AF909F902E
:100990008F907F906F905F904F903F902F90089531
:1009A00002501109109306040093050420910904D4
:1009B00030910A04322E232E00910B0410910C0466
:1009C000102701271027D0900B0480910D0490E090
:1009D000BFE0FB1609F48DC5BF15E8F1E3E0FE1694
:1009E00009F491C1EF1570F0F1E0FF1609F4FAC3B4
:1009F00062E0C62EFC1409F483C461E070E08F2D20
:100A000090E026C055E0D52EFD1409F453C5FD1421
:100A100008F403C546E0E42EFE10EFCF2091DD047C
:100A20008091E00490E0880F991F30E0820F931FBF
:100A30004091E304B4E04B9FA0011124480F591FDB
:100A40002416350608F44FC062E070E086E090E0BE
:100A50000E94E90255C042E4F41609F4DAC64F15C3
:100A6000A8F060E1F61609F46CC281E4F812C5CF73
:100A700084E090E09093060480930504F0920804CB
:100A8000109209048FE280930A043AC094E4F916A4
:100A900009F439C6F91608F4D1C5A5E4FA12ADCFA8
:100AA0002D3ABEED3B0709F099C71092040485E486
:100AB000809308048EE78093090481E2EBEDF3E074
:100AC000DE01119601900D928A95E1F7FE013196B3
:100AD000AAE0B4E081919D0127503440882309F4B5
:100AE0008BC78D93F7CF22163306D8F4220C331C14
:100AF000E091DB04F091DC04E20DF31D118300832F
:100B0000809105049091060402968138910508F4BD
:100B10004EC58091080464E070E090E00E94E90214
:100B200046C52816390608F040C0A80170E060E00C
:100B3000E091DE04F091DF0420FC1CC0221A330A8D
:100B4000220C331C0CEF202203E03022E20DF31DB7
:100B500080819181A281B381AA27BB27BA01552741
:100B60004427842B952BA62BB72B80839183A283BC
:100B7000B383C6CF20953095220E331E220C331C32
:100B80001CEF212213E03122E20DF31D00811181BF
:100B90002281338100271127042B152B262B372B7D
:100BA0000083118322833383ABCF910123703327DA
:100BB0004801B12CA12CC12CD12C7601E091E1048B
:100BC000F091E2042115310549F5281A390A220C61
:100BD000331C28EF222227E03222E20DF31D508041
:100BE000618072801381B481A581940140E050E05E
:100BF00060E070E080E090E000E30E942715522A58
:100C00005082632A6182742A7282152B1383B62B59
:100C1000B483A72BA5838683978372CF21303105B8
:100C200041F53FEF231A330A281A390A220C331CE4
:100C300048EF242247E03422E20DF31D508061800A
:100C400072801381B681A7819401A501B601C70105
:100C500000E20E942715522A5082632A6182742A78
:100C60007282152B1383648375838B2B86839A2B57
:100C7000D3CF2230310529F562E0260E311C281A27
:100C8000390A220C331C88EF282287E03822E20D33
:100C9000F31D5080618074801581B681A781940115
:100CA000A501B601C70100E10E942715522A508212
:100CB000632A618242835383762A7482172B1583B9
:100CC000D4CFA3E02A0E311C281A390A220C331C77
:100CD000B8EF2B22B7E03B22E20DF31D5281438196
:100CE0003481258196818781808291825A2952831D
:100CF0004B2943833C2934832D2925839E299683C0
:100D00008F298783FDCEC801019763E070E08D379E
:100D1000910548F54101800E911EE090DD04E091BF
:100D2000E004F0E0EE0FFF1FF12CEE0DFF1D8091AF
:100D3000E30424E0829FC00111248E0F9F1F62E014
:100D400070E08816990678F4000F111F0D5F1F4F91
:100D50001093060400930504A7E0B4E001381105E0
:100D600028F064E070E083E090E072CE1196CD014F
:100D7000875094408017910710F41C92F7CF83E0BE
:100D800080930804035000930904C090E104D090BC
:100D9000E2046090DE047090DF04A091DB04B09167
:100DA000DC04C101880F991F8D01080F191F1BABAF
:100DB0000AAB83E090E02C014E1A5F0AD701A095A0
:100DC000B095BAA7A9A78214930409F499CEAAA949
:100DD000BBA92E143F04A0F12E163F06A8F520FC57
:100DE00024C0C1018E199F09880F991F8C7F9370B1
:100DF000860D971DDC014D915D916D917C91AB014C
:100E0000662777279A01D50113963C93139714967A
:100E10002C93B2E0AB0EB11CAAA9BBA91296BBAB36
:100E2000AAABBFEF2B1A3B0ACECF89A59AA5820D9C
:100E3000931D880F991F8C7F9370860D971DDC0181
:100E40002C9111963C91DFCF810103701127011580
:100E5000110519F581010E1B1F0B000F111F087FD3
:100E600017700C0D1D1DD8012C9111963C911197F6
:100E700012964C91129713965C91139714966C915D
:100E8000149715967C91159716968C911697179630
:100E90009C9100E30E944215B6CF0130110511F577
:100EA0000E1B1F0B020D131D000F111F087F177063
:100EB0000C0D1D1DD8012C9111963C911197129685
:100EC0004C91129713965C91139714966C9114970A
:100ED00015967C91159716968C91169717969C915E
:100EE00000E2D8CF0230110511F50E1B1F0B020DC9
:100EF000131D000F111F087F17700C0D1D1DD80149
:100F00002C9111963C91119712964C911297139631
:100F10005C91139714966C91149715967C91159784
:100F200016968C91169717969C9100E1B3CFC2014B
:100F3000820D931D880F991F887F97708C0D9D1DC2
:100F40007ECF9801215031092B37310530F49801BB
:100F5000220F331F8217930729F063E070E080E1CE
:100F600090E076CDF101E00FF11FFBABEAAB6090B2
:100F7000DD04A091E004B0E0AA0FBB1F712CA60D08
:100F8000B71D8091E304F4E08F9FC00111248A0F04
:100F90009B1FCAA8DBA8C816D90618F062E070E04B
:100FA000DECF86E090E09093060480930504F092F3
:100FB00008043092090420920A0410920B04009352
:100FC0000C048090E1049090E2044090DE04509084
:100FD000DF04E090DB04F090DC04FFAAEEAA83E0DB
:100FE00090E0FC01EA1BFB0BF9AFE8AF6301C09492
:100FF000D094DBAECAAEEAA8FBA82E143F0409F4D5
:10100000D6C2F50147818085542F482F2614370416
:1010100080F4F101EE0FFF1FCEA8DFA8EC0DFD1D3F
:10102000518340833FEF231A330A42E0A40EB11CE0
:10103000E2CF2A163B0680F570E060E020FC1BC082
:10104000F101E619F709EE0FFF1FEC7FF370E40DD5
:10105000F51D008111812281338122273327BA01B6
:1010600055274427402B512B622B732B40835183F0
:1010700062837383D7CFEAADFBADE20DF31DEE0FB4
:10108000FF1FEC7FF370E40DF51D008111812281BB
:10109000338100271127E6CFF101E370FF276A01B2
:1010A000F12CE12C00E010E09801C9A6DAA6EBA62D
:1010B000FCA60DA71EA72FA738AB309759F5F10155
:1010C000EA1BFB0BEE0FFF1FE87FF770E80DF91D21
:1010D000D080D9AAC180D280E380F480158129A56F
:1010E0003AA540E050E060E070E080E090E000E38E
:1010F0000E94271509A9202B20833C2931834D29E3
:1011000042835E295383F62AF482172B1583868344
:10111000978388CFE130F10559F5EA1BFB0BE20D0F
:10112000F31DEE0FFF1FE87FF770E80DF91D10812A
:1011300019ABC180D280E380F680178129A53AA53A
:1011400040E050E060E070E080E090E000E20E946B
:10115000271509A9202B20833C2931834D2942835F
:10116000E52AE382648375838F298683912BD0CF10
:10117000E230F10541F5EA1BFB0BE20DF31DEE0F2A
:10118000FF1FE87FF770E80DF91D108119ABC180D2
:10119000D480E580F680178129A53AA540E050E08B
:1011A00060E070E080E090E000E10E94271509A96E
:1011B000202B20833C29318342835383D62AD48237
:1011C000E72AE582D1CFE8ADF9ADE20DF31DEE0FD0
:1011D000FF1FE87FF770E80DF91D19A510832AA5F8
:1011E000218320CFC8010197803D974028F063E01C
:1011F00070E081E090E02CCC2091E604C101800FEA
:10120000911F62E070E02817190698F3C80123E0E7
:10121000969587952A95E1F79C012D5F3F4F309376
:10122000060420930504980127703327232B29F007
:101230000496909306048093050480910504909190
:101240000604E7E0F4E08138910518F064E070E00E
:10125000D0CF31969F01275034402817390710F41A
:101260001082F7CF91E09093080483508093090493
:10127000A090E404B090E50470E060E020E0C12CB0
:10128000D12C7601C39426013701022E04C0440CF0
:10129000551C661C771C0A94D2F7FB0143E0F695B7
:1012A000E7954A95E1F7E65FFB4F3081A101A3E0A6
:1012B00056954795AA95E1F74F7155274A0D5B1D45
:1012C000DA014C9150E0B22DB77002C055954795A8
:1012D000BA95E2F7842D40FF0FC0832B80832F5FE8
:1012E000283009F420E0EFEF2E1A3E0A6F5F7F4F9F
:1012F0000617170741F604CC809538233083EFCFCB
:10130000C801019763E070E0803D974060F520914F
:10131000EC04C101800F911F62E070E028171906EC
:1013200010F1C80133E0969587953A95E1F79C0155
:101330002D5F3F4F309306042093050498012770DA
:101340003327232B29F004969093060480930504F9
:101350008091050490910604E7E0F4E0813891055E
:1013600028F064E070E082E090E072CB31969F015B
:10137000275034402817390710F41082F7CF92E035
:10138000909308048350809309046091EA0470915B
:10139000EB0450E040E0B12CC12CD12C7601C39479
:1013A000260137010B2C04C0440C551C661C771C0D
:1013B0000A94D2F7FA0183E0F695E7958A95E1F76A
:1013C000E65FFB4FA080910193E0369527959A95B3
:1013D000E1F7260F372F311DD9012C9130E0B22DC6
:1013E000B77002C035952795BA95E2F7842D20FF96
:1013F00010C08A298083B394E8E0BE1201C0B12CEA
:10140000FFEF2F1A3F0A4F5F5F4F0417150741F692
:1014100077CB8095A822A082EECFC801019763E028
:1014200070E08D379105C8F42091E904C101800F67
:10143000911F62E070E02817190678F0C801880F44
:10144000991F03969093060480930504E7E0F4E067
:101450008138910528F064E070E084E090E0F8CAFB
:1014600031969F01275034402817390710F4108215
:10147000F7CF94E090930804835080930904220CE2
:10148000331CE091E704F091E804E20DF31D0150F4
:10149000110922E0A20EB11C0F3F100709F430CB56
:1014A000808191813296D50111969C931197129665
:1014B0008C93EDCF0115BFEF1B0729F063E070E0BF
:1014C0000115110549F48091E6048150990B8215AC
:1014D000930528F462E070E085E090E0B9CA41E04D
:1014E00001151F4F09F040E060E0C1010E94F802C1
:1014F00007CBA801F3E056954795FA95E1F7242F1D
:10150000B80167707727672B11F021E0240FA8013D
:1015100041505109403B574018F42817190629F04B
:1015200063E070E08FE090E093CA2091E604C1018F
:10153000800F911F2817190618F462E070E0F2CFAF
:1015400086E090E090930604809305048FE08093FA
:1015500008043092090420920A0410930B040093AB
:101560000C04F12CE12CD12CF70173E0F695E795F2
:101570007A95E1F7E95FFB4F478150E00D2C02C0FF
:10158000559547950A94E2F7417060E0C1018E0DD0
:101590009F1D0E94F802D394E8E0CE2EDC1001C01B
:1015A000D12C2FEFE21AF20A0E151F05E9F6009171
:1015B0000504109106047801F2E0EF0EF11CF092A0
:1015C0000604E09205040E94BE02F801E95FFB4FA9
:1015D0009083818380918B0487FD09C061E00E9424
:1015E000B50080918704909188040E94E300809167
:1015F0008C0490918D04DC01ED91FC910280F381CB
:10160000E02DA70167E074E0099580918C0490912A
:101610008D04DC01ED91FC910680F781E02D0995A8
:1016200080918704909188040E94E30080918B044C
:1016300087FD5DC960E00E94B50059C93FE22316ED
:10164000310408F055C00F32110508F051C00215E1
:10165000130508F44DC0610162E1A62E64E0B62EC8
:10166000712C612CC6010E9420024C017301E80E0E
:10167000F91EC7010B9681389105C0F5C6010E947D
:101680004602A401BC01C5010E948816A80CB91C21
:10169000C6010196370116010817190728F5C70179
:1016A0000796909306048093050483E480930804CE
:1016B0008EE78093090410920A0420920B04809113
:1016C000790690917A0620917B0630917C063093C2
:1016D0000C0420930D0490930E0480930F04F09259
:1016E0001004E09211040CCA6C01BCCF7301D7CF77
:1016F00083E090E0909306048093050483E4809354
:10170000080481E828C045E124163104D8F4CE014C
:1017100001962C01FC01D12CC12C92E0A90EB11C28
:101720002C143D04D9F0D50112968C911297139682
:101730009C9189279827892781939193BFEFCB1A92
:10174000DB0AEBCF83E090E09093060480930504DE
:10175000F092080482E880930904D2C9B12CA12C2C
:1017600019A6712C612C0BE010E0CA14DB0469F19E
:10177000F201E190F1902F01FFE2EF16F10440F049
:1017800083E090E0909306048093050484E4B7CF4F
:10179000C7010E9420024C011801280E391E21E8C1
:1017A0002216310490F4C7010E944602A401BC0134
:1017B000C801895F9B4F0E948816680C791C3FEF17
:1017C000A31AB30AE9A68101D0CF109306040093AF
:1017D000050484E4809308048EE780930904109242
:1017E0000A04C9A4C0920B048091790690917A06EC
:1017F00020917B0630917C0630930C0420930D04DD
:1018000090930E0480930F04709210046092110460
:1018100077C90FE22016310450F480910C049091A6
:101820000D049827892798278A37910540F083E08F
:1018300090E0909306048093050482E460CF8101D8
:10184000000F111F000F111FF801EA5FFC4FE2802B
:10185000F380809104048130D9F0F801EA5FFC4FF5
:1018600000811181D11034C0FAE0EF16F10409F4BF
:10187000ADC008F094C032E0E316F10409F49EC054
:1018800043E0E416F104B1F5F80182818D7F74C064
:1018900020E1E216F10409F3C1010E9420029C013B
:1018A00036952795FC01E95FFB4FA7E0B4E031973F
:1018B000CD01875094408217930778F617968C9144
:1018C0001797978117969C93179787831196EFCF59
:1018D000C1010E9420026C013AE0E316F10409F410
:1018E00053C098F462E0E616F104D9F083E0E816FC
:1018F000F10411F183E090E09093060480930504D5
:1019000082E4809308048EE726CF93E2E916F1047F
:10191000A9F1A7E3EA16F104E9F0BFE0EB16F10440
:1019200049F7A6016EE074E0C8010E948816F8012C
:10193000818182608183DECFA6016EE074E0C80100
:101940000E948816D80112968C9112978260129686
:101950008C93D0CFA6016EE074E0D8018D919C915C
:101960000E948816A6016EE074E0C80103960E94EA
:101970008816F801828182608283BCCFA6016EE066
:1019800074E0C8010396DCCFAC016EE074E0C801DE
:101990000E948816F801808582608087ABCF63E261
:1019A000E616F10409F470CF87E3E816F10409F4B0
:1019B0006BCF9FE0E916F10409F09CCFD801119696
:1019C0008C9111978D7F11968C9394CFD801189696
:1019D0008C9118978D7F18968C938CCF2E3D3D4A15
:1019E00021F481E08093040462C883E090E0909346
:1019F0000604809305045BC8309306042093050415
:101A00007FC81F920F920FB60F9211242F933F930E
:101A10008F939F93AF93BF93809187069091880691
:101A2000A0918906B0918A063091860623E0230FA3
:101A30002D3758F50196A11DB11D20938606809380
:101A4000870690938806A0938906B0938A068091B2
:101A50008B0690918C06A0918D06B0918E06019612
:101A6000A11DB11D80938B0690938C06A0938D06CB
:101A7000B0938E06BF91AF919F918F913F912F911F
:101A80000F900FBE0F901F90189526E8230F029617
:101A9000A11DB11DD2CF1F920F920FB60F9211242C
:101AA0002F933F934F935F936F937F938F939F9366
:101AB000AF93BF93EF93FF938DEE94E00E9491015B
:101AC000FF91EF91BF91AF919F918F917F916F9116
:101AD0005F914F913F912F910F900FBE0F901F90EC
:101AE00018951F920F920FB60F9211242F938F9378
:101AF0009F93EF93FF93E091FD04F091FE048081AA
:101B0000E0910305F091040582FD1BC09081809156
:101B100006058F5F8F7320910705821741F0E091D2
:101B20000605F0E0E351FB4F958F80930605FF918A
:101B3000EF919F918F912F910F900FBE0F901F905B
:101B400018958081F4CFCF93DF93CDB7DEB7A997F7
:101B50000FB6F894DEBF0FBECDBF789484B5826017
:101B600084BD84B5816084BD85B5826085BD85B541
:101B7000816085BD80916E00816080936E001092BF
:101B8000810080918100826080938100809181003A
:101B900081608093810080918000816080938000CB
:101BA0008091B10084608093B1008091B000816029
:101BB0008093B00080917A00846080937A00809155
:101BC0007A00826080937A0080917A0081608093AD
:101BD0007A0080917A00806880937A001092C10028
:101BE00010929B0510929A0581E080939D05809349
:101BF0009F051092A2051092A1051092A4051092C3
:101C0000A6051092A8051092AA051092AC05109294
:101C1000AE051092B00529E030E03093B305209373
:101C2000B2052AE030E03093B6052093B505109256
:101C3000B8058093BA058093BC051092BE0510923A
:101C4000C0051092C3051092C2051092C5051092EE
:101C5000C8051092C7058093CA058093CC051092E1
:101C6000CE051092D0051092D2059091D3059460C4
:101C70009093D3058093D4058093D6051092D80510
:101C80001092DA051092DB051092DC051092DD054A
:101C90001092DE051092DF051092E0051092E1052A
:101CA0001092E3051092E5051092E6051092E70503
:101CB0001092E8051092E9051092EA051092EB05E2
:101CC0001092EC051092EE051092F0051092F205BC
:101CD0001092F3051092F4051092F5051092F60596
:101CE0001092F7051092F8051092F9051092FB0575
:101CF0001092FC051092FD051092FE051092FF0552
:101D0000109200061092010610920206109204062C
:101D100010920506109206061092070680E893ECD2
:101D2000A9ECB1E08093080690930906A0930A06F7
:101D3000B0930B0610920D0610920F06B3E0EB2E37
:101D4000B4E0FB2EF0921206E0921106109203040A
:101D500002E014E010931606009315061092020498
:101D6000A1E0B4E0B0931A06A09319061092010402
:101D7000E0E0F4E0F0931E06E0931D0610920004EC
:101D80006FEF73E070932206609321061092FF03B9
:101D90004EEF53E050932606409325061092FE0323
:101DA0002DEF33E030932A06209329061092FD038D
:101DB0008CEF93E090932E0680932D061092FC03F7
:101DC000F0923206E0923106109334060093330607
:101DD000B0933606A0933506F0933806E0933706A5
:101DE00070933A066093390650933C0640933B0645
:101DF00030933E0620933D0690938B0580938A0591
:101E000014EA612E10E0712EF3012491E0E9F0E074
:101E100084918823C9F090E0880F991FFC01E8594C
:101E2000FF4FA591B491FC01E458FF4F45915491A7
:101E30003FB7F8949C91822F809598239C93DA0168
:101E40009C9189238C933FBF2BED33E0A4EDB3E04D
:101E50008D9190E0FC01E656FF4F44918A579F4FC9
:101E6000FC0184918823A1F090E0880F991FFC0168
:101E7000E859FF4F65917491FC01E458FF4F85913B
:101E800094918FB7F894FB019081492B40838FBFC9
:101E90002A173B07E9F6E091FD04F091FE0482E089
:101EA0008083E091F904F091FA041082E091FB0440
:101EB000F091FC0480E1808310920505E09101051A
:101EC000F091020596E09083E091FF04F091000507
:101ED000808180618083E091FF04F0910005808122
:101EE00088608083E091FF04F09100058081806824
:101EF0008083E091FF04F091000580818F7D8083D5
:101F00002DEE34E030938D0420938C048FEF80937A
:101F10008B042EEE32E030938A042093890421E46E
:101F20003AE0309388042093870481E08093DA04B8
:101F300080E28093DD041092E0041092E304809329
:101F4000E6049093E90488E08093EC0484E090E058
:101F50000E9463159093E5048093E404009779F15F
:101F600024E0DC011D922A95E9F780E490E00E94CC
:101F700063159093DC048093DB04009701F120E467
:101F8000FC0111922A95E9F781E090E00E94631527
:101F90009093EB048093EA04009789F0DC011C9293
:101FA0008CE090E00E9463159093E8048093E7042E
:101FB000009729F02CE0FC0111922A95E9F710E036
:101FC00000E0C801880F991F9C012F5C394F7901EF
:101FD000D9018D919C91892B49F481E090E00E9478
:101FE0006315F70191838083DC011C920F5F1F4F03
:101FF0000032110531F72091DB043091DC04EAE96D
:10200000F4E090E080E041915191452B39F4DF01FB
:102010001297A901480F591F4D935C930296803483
:10202000910589F70AE815E07AE9E72E75E0F72EC1
:10203000F801819191918F01892B51F481E090E019
:102040000E946315F801329791838083DC011C9212
:10205000E016F10669F74091E7045091E804EEE8D4
:10206000F4E090E080E021913191232B49F4DF01ED
:1020700012979C01220F331F240F351F2D933C9381
:1020800001968630910579F780E29EE4A0E0B0E009
:1020900080937E0690937F06A0938006B09381067E
:1020A0000E94EE00609382067093830680938406FC
:1020B000909385064FE3842E46E0942E58EB252E10
:1020C00050E0352E5524539422E0422E30E0A32ECA
:1020D00030E0B32E0E94EE0000918206109183063C
:1020E0002091840630918506601B710B820B930B47
:1020F00000917E0610917F06209180063091810626
:10210000601771078207930708F4A2C180918A05BE
:1021100090918B05892BF1F0F1018491F3011491D9
:10212000E0E9F0E00491002379F081110E948C0035
:10213000E02FF0E0EE0FFF1FEE58FF4FA591B49196
:102140008C91182381E009F480E0E0918A05F091F8
:102150008B0580838091790690917A06A0917B0609
:10216000B0917C060196A11DB11D809379069093D4
:102170007A06A0937B06B0937C068091100681FDC1
:1021800008C080912F0681FF84C180913006809322
:102190000F068091D90581FD0CC080910D0681113B
:1021A00005C081E090910F06911101C080E08093FD
:1021B000D8058091E20581FD09C088E0E4E0F6E001
:1021C000AAEDB5E001900D928A95E1F78091D705CF
:1021D00082709091D405911162C1811102C0109258
:1021E000D6058091BF0581FD04C08091E3058093F1
:1021F000BE058091C10581FD04C08091B805809322
:10220000C0058091C40581FD08C08091B5059091FD
:10221000B6059093C3058093C2058091BD05827079
:102220009091BA0591116EC2811102C01092BC0545
:1022300080910E0681FD04C08091E30580930D0618
:102240008091B90581FD04C08091C5058093B805D2
:1022500080919C0581FD08C08091C7059091C805BB
:1022600090939B0580939A0580919E0581FF5092E3
:102270009D058091A30581FD08C080919A059091EC
:102280009B059093A2058093A1058091A005827083
:1022900090919D059111A3C2811102C010929F05DA
:1022A00080919F05882359F08091130681FD07C016
:1022B000E0911106F09112068091A405808380912F
:1022C0009F05882359F08091170681FD07C0E09192
:1022D0001506F09116068091A605808380919F05D2
:1022E000882359F080911B0681FD07C0E0911906F3
:1022F000F0911A068091A805808380919F0588231C
:1023000059F080911F0681FD07C0E0911D06F091F4
:102310001E068091AA05808380919F05882359F02D
:102320008091230681FD07C0E0912106F0912206ED
:102330008091AC05808380919F05882359F080911E
:10234000270681FD07C0E0912506F09126068091C1
:10235000AE05808380919F05882359F080912B06DC
:1023600081FD07C0E0912906F0912A068091B00511
:10237000808301E316E084EDE82E83E0F82ED80197
:10238000ED91FD918D01309729F06081F7018081F9
:102390000E94B500FFEFEF1AFF0A8016910679F749
:1023A0008091750690917606A0917706B091780697
:1023B000AC01BD01535D6E4C7E4F41152AEC5207B6
:1023C0002AE962072BE3720708F0F1C24093750611
:1023D0005093760660937706709378060E946103A7
:1023E00080917D06811118C050927D060E94EE00FA
:1023F00000917E0610917F06209180063091810623
:10240000601B710B820B930B6093820670938306A3
:10241000809384069093850680918206909183062E
:10242000A0918406B091850640917E0650917F066A
:102430006091800670918106840F951FA61FB71FBB
:102440008093820690938306A0938406B0938506BA
:102450000E94EE000091820610918306209184066E
:1024600030918506601B710B820B930B60317742B4
:102470008105910510F00E946103A114B10409F4D3
:1024800029CE0E947D01882309F41CCE0E94000001
:1024900019CEE0912D06F0912E06808178CE811123
:1024A00002C05092D6058091FA0581FD09C088E0EE
:1024B000E1E7F6E0A2EFB5E001900D928A95E1F731
:1024C000F091EE05F9A78091D805F1111EC0909109
:1024D000F00591118CC28823D1F08091EF0581FF26
:1024E0005092EE058091E40581FF1092E305809102
:1024F000030681FD2AC088E0E2EFF5E0ABEFB5E02E
:1025000001900D928A95E1F720C0811127C080913A
:10251000ED0581FD10C01092E5051092E6051092C0
:10252000E7051092E8051092E9051092EA0510926D
:10253000EB051092EC058091E40581FF1092E30514
:102540008091EF0581FF1092EE058091F10581FDEC
:1025500048CE8091D8058093F00543CE29A521303F
:10256000A1F7C090FF05D0900006E0900106F09022
:1025700002068091DE059091DF05A091E005B09103
:10258000E1054091DA055091DB056091DC05709121
:10259000DD050091FB051091FC052091FD053091B2
:1025A000FE05400F511F621F731F498B5A8B6B8BA7
:1025B0007C8B8C0D9D1DAE1DBF1D8D8B9E8BAF8B9F
:1025C000B88FCE0141960E94700288E0FE0171969C
:1025D000DE01599601900D928A95E1F788E0FE019F
:1025E0007996DE01919601900D928A95E1F700D0DF
:1025F00000D000D000D0ADB7BEB7119688E0E2EFB2
:10260000F5E001900D928A95E1F700D000D000D05E
:1026100000D0ADB7BEB7119688E0FE01B19601902B
:102620000D928A95E1F71F924F921F921F9239A542
:102630003F930E9424030FB6F894DEBF0FBECDBFB8
:102640009091ED05882391F08091EF0581FF4092F4
:10265000EE058091E40581FF5092E30588E0EAED04
:10266000F5E091FD72CFA5EEB5E04ACF91FD6DCFBB
:102670008091F6059091F705A091F805B091F905C4
:102680000091FF051091000620910106309102068D
:102690004091F2055091F3056091F4057091F505B4
:1026A000C090FB05D090FC05E090FD05F090FE0584
:1026B0004C195D096E097F09498B5A8B6B8B7C8B9A
:1026C000801B910BA20BB30B8D8B9E8BAF8BB88FA6
:1026D000CE0141960E94700288E0FE017196DE01F3
:1026E000119601900D928A95E1F788E0FE013196EE
:1026F000DE01199601900D928A95E1F788E0FE01BE
:102700003996B1CF811102C05092BC058091CF059E
:1027100081FD04C08091BE058093CE058091CD05DA
:1027200082709091CA05911124C0811102C010924B
:10273000CC058091C0058823C1F18091C90581FD38
:1027400004C01092C8051092C7058091C60581FD8E
:102750006FCD81E04091C7055091C8052091C20519
:102760003091C305421753070CF480E08093C505F0
:102770005FCD811102C05092CC058091D10581FDC1
:102780000BC08091CE05882321F081E09091D20585
:10279000911180E08093D0058091D30581FDC9CF50
:1027A0008091CE058093D205C4CF8091D005882337
:1027B00061F28091C7059091C8052091C2053091C2
:1027C000C305821793070CF0C0CF2091C90521FDE6
:1027D000BCCF01969093C8058093C705B6CF8111F1
:1027E00002C050929F054091A1055091A205809191
:1027F000A5058270E091A7057091A9056091AB05D0
:102800003091AD052091AF059091B105411551056D
:1028100019F04A305105C1F4811102C05092A4054B
:10282000E1FF5092A60571FF5092A80561FF5092FA
:10283000AA0531FF5092AC0521FF5092AE0591FDE3
:102840002FCD1092B0052CCD41305105A9F4811146
:1028500002C01092A405E1FF5092A60571FF5092AC
:10286000A80561FF1092AA0531FF1092AC0521FD69
:10287000E6CF1092AE05E3CF42305105C1F481118D
:1028800002C05092A405E1FF5092A60571FF10927C
:10289000A80561FF5092AA0531FF5092AC0521FFB7
:1028A0001092AE0591FDFCCC5092B005F9CC4330AE
:1028B000510591F4811102C05092A405E1FF50929C
:1028C000A60571FF5092A80561FF5092AA0531FD3F
:1028D000E6CF1092AC05E3CF4430510591F481115D
:1028E00002C01092A405E1FF5092A60571FF50921C
:1028F000A80561FF1092AA0531FD28C01092AC0511
:1029000025C04530510579F4811102C05092A405CB
:10291000E1FF1092A60571FF5092A80561FDECCF72
:102920005092AA05E9CF46305105A9F4811102C0A1
:102930005092A405E1FF1092A60571FF5092A805E0
:1029400061FF5092AA0531FF5092AC0521FDAACF3C
:102950005092AE05A7CF4730510529F481117BCFA6
:102960005092A40578CF4830510549F4811102C036
:102970005092A405E1FDE1CF5092A605DECF49308B
:10298000510549F4811102C05092A405E1FDC3CF65
:102990005092A605C0CF811102C01092A405E1FF9C
:1029A0001092A60571FD5DCF1092A8055ACF4091F7
:1029B00071065091720660917306709174069D596C
:1029C000A946BA438093750690937606A09377063E
:1029D000B09378064F5F5F4F6F4F7F4F4093710604
:1029E000509372066093730670937406F7CC81114E
:1029F000ACCD8DCDEDEEF4E01382128288EE93E043
:102A0000A0E0B0E084839583A683B78386EC93E04F
:102A10009183808385EC90E09587848784EC90E0B7
:102A20009787868780EC90E0918B808B81EC90E09B
:102A3000938B828B82EC90E0958B848B86EC90E07C
:102A4000978B868B118E128E138E148E0895002E06
:102A5000083090F0982F872F762F652F542F432F13
:102A6000322F22270850F4CF220F331F441F551F47
:102A7000661F771F881F991F0A95B2F7002D0895CA
:102A800097FD1094002E083098F00850232F342F13
:102A9000452F562F672F782F892F912DF4CF15941E
:102AA0009795879577956795579547953795279586
:102AB0000A95AAF71124002D0895EE0FFF1F059027
:102AC000F491E02D09940F931F93CF93DF938230FD
:102AD000910510F482E090E0E0919106F091920669
:102AE00030E020E0B0E0A0E0309799F42115310506
:102AF00009F44AC0281B390B24303105D8F58A81E6
:102B00009B816115710589F1FB0193838283FE012D
:102B100011C0408151810281138148175907E0F0AB
:102B20004817590799F4109761F012960C93129771
:102B300013961C933296CF01DF91CF911F910F9185
:102B400008950093910610939206F4CF2115310554
:102B500051F04217530738F0A901DB019A01BD017A
:102B6000DF01F801C1CFEF01F9CF90939206809376
:102B70009106CDCFFE01E20FF31F81939193225076
:102B8000310939832883D7CF20918F063091900661
:102B9000232B41F4209102013091030130939006E0
:102BA00020938F06209100013091010121153105FC
:102BB00041F42DB73EB74091040150910501241B0B
:102BC000350BE0918F06F0919006E217F307A0F421
:102BD0002E1B3F0B2817390778F0AC014E5F5F4F73
:102BE0002417350748F04E0F5F1F5093900640930F
:102BF0008F06819391939FCFF0E0E0E09CCFCF933D
:102C0000DF930097E9F0FC01329713821282A091C2
:102C10009106B0919206ED0130E020E01097A1F40A
:102C200020813181820F931F20918F063091900671
:102C30002817390709F061C0F0939006E0938F06DA
:102C4000DF91CF910895EA01CE17DF07E8F54A81B9
:102C50005B819E0141155105B1F7E901FB83EA83D0
:102C600049915991C40FD51FEC17FD0761F480817C
:102C700091810296840F951FE9019983888382814F
:102C800093819B838A83F0E0E0E012968D919C9182
:102C900013970097B9F52D913C911197CD010296AC
:102CA000820F931F20918F063091900628173907C5
:102CB00039F6309751F51092920610929106B09322
:102CC0009006A0938F06BCCFD383C28340815181ED
:102CD000840F951FC817D90761F44E5F5F4F888135
:102CE0009981480F591F518340838A819B81938327
:102CF00082832115310509F0B0CFF0939206E0935D
:102D000091069ECFFD01DC01C0CF13821282D7CF86
:102D1000FB01DC0102C001900D9241505040D8F7F8
:102D20000895F894FFCF00009306800000C0C10111
:102D3000C30302C2C60607C705C5C404CC0C0DCD2B
:102D40000FCFCE0E0ACACB0BC90908C8D81819D99B
:102D50001BDBDA1A1EDEDF1FDD1D1CDC14D4D515CB
:102D6000D71716D6D21213D311D1D010F03031F1BB
:102D700033F3F23236F6F737F53534F43CFCFD3DEB
:102D8000FF3F3EFEFA3A3BFB39F9F83828E8E929DB
:102D9000EB2B2AEAEE2E2FEF2DEDEC2CE42425E58B
:102DA00027E7E62622E2E323E12120E0A06061A1FB
:102DB00063A3A26266A6A767A56564A46CACAD6DAB
:102DC000AF6F6EAEAA6A6BAB69A9A86878B8B9791B
:102DD000BB7B7ABABE7E7FBF7DBDBC7CB47475B54B
:102DE00077B7B67672B2B373B17170B0509091513B
:102DF0009353529296565797559594549C5C5D9D6B
:102E00005F9F9E5E5A9A9B5B99595898884849895A
:102E10004B8B8A4A4E8E8F4F8D4D4C8C448485450A
:102E200087474686824243834181804000C181407A
:102E300001C0804101C0804100C1814001C080418A
:102E400000C1814000C1814001C0804101C080417A
:102E500000C1814000C1814001C0804100C181406A
:102E600001C0804101C0804100C1814001C080415A
:102E700000C1814000C1814001C0804100C181404A
:102E800001C0804101C0804100C1814000C181403A
:102E900001C0804101C0804100C1814001C080412A
:102EA00000C1814000C1814001C0804101C080411A
:102EB00000C1814000C1814001C0804100C181400A
:102EC00001C0804101C0804100C1814000C18140FA
:102ED00001C0804101C0804100C1814001C08041EA
:102EE00000C1814000C1814001C0804100C18140DA
:102EF00001C0804101C0804100C1814001C08041CA
:102F000000C1814000C1814001C0804101C08041B9
:102F100000C1814000C1814001C0804100C18140A9
:102F200001C0804101C0804100C181409A05030079
:102F30009D050F009F050F00A1050300A4050F00CC
:102F4000A6050F00A8050F00AA050F00AC050F008D
:102F5000AE050F00B0050F00B2050300B505030074
:102F6000B8050F00BA050F00BC050F00BE050F0025
:102F7000C0050F00C2050300C5050F00C70503000B
:102F8000CA050F00CC050F00CE050F00D0050F00BD
:102F9000D2050F00D4050F00D6050F00D8050F008D
:102FA000DA050A00E3050F00E5050A00EE05020058
:102FB000F0050F00F2050A00FB050A0004060A00EE
:102FC0000D060F000F060F0011063700150637001B
:102FD000190637001D063700210637002506370081
:102FE000290637002D06230000000000B30113015D
:102FF0004001000271014F0163010302060708044A
:10300000053334386335616565316539616634345B
:1030100035656135653936626466336466326430BD
:0230200064004A
:107E0000112484B714BE81FFF0D085E080938100F7
:107E100082E08093C00088E18093C10086E0809377
:107E2000C20080E18093C4008EE0C9D0259A86E02C
:107E300020E33CEF91E0309385002093840096BBD3
:107E4000B09BFECF1D9AA8958150A9F7CC24DD24C4
:107E500088248394B5E0AB2EA1E19A2EF3E0BF2EE7
:107E6000A2D0813461F49FD0082FAFD0023811F036
:107E7000013811F484E001C083E08DD089C08234E0
:107E800011F484E103C0853419F485E0A6D080C0E4
:107E9000853579F488D0E82EFF2485D0082F10E0AE
:107EA000102F00270E291F29000F111F8ED06801E7
:107EB0006FC0863521F484E090D080E0DECF843638
:107EC00009F040C070D06FD0082F6DD080E0C81688
:107ED00080E7D80618F4F601B7BEE895C0E0D1E017
:107EE00062D089930C17E1F7F0E0CF16F0E7DF06D8
:107EF00018F0F601B7BEE89568D007B600FCFDCFD4
:107F0000A601A0E0B1E02C9130E011968C91119780
:107F100090E0982F8827822B932B1296FA010C0160
:107F200087BEE89511244E5F5F4FF1E0A038BF0790
:107F300051F7F601A7BEE89507B600FCFDCF97BE46
:107F4000E89526C08437B1F42ED02DD0F82E2BD052
:107F50003CD0F601EF2C8F010F5F1F4F84911BD097
:107F6000EA94F801C1F70894C11CD11CFA94CF0C13
:107F7000D11C0EC0853739F428D08EE10CD085E9AC
:107F80000AD08FE07ACF813511F488E018D01DD067
:107F900080E101D065CF982F8091C00085FFFCCF94
:107FA0009093C60008958091C00087FFFCCF809118
:107FB000C00084FD01C0A8958091C6000895E0E648
:107FC000F0E098E1908380830895EDDF803219F02E
:107FD00088E0F5DFFFCF84E1DECF1F93182FE3DFCA
:107FE0001150E9F7F2DF1F91089580E0E8DFEE27F6
:047FF000FF270994CA
:027FFE00040479
:00000001FF
