:020000040000FA
:100000000C9462000C948A000C948A000C948A0070
:100010000C948A000C948A000C948A000C948A0038
:100020000C948A000C948A000C948A000C948A0028
:100030000C948A000C948A000C948A000C948A0018
:100040000C94F00B0C948A000C94600C0C943A0CF9
:100050000C948A000C948A000C948A000C948A00F8
:100060000C948A000C948A000000000024002700F1
:100070002A000000000023002600290000000000E4
:10008000250028002B0004040404040404040202D4
:100090000202020203030303030301020408102007
:1000A0004080010204081020010204081020000012
:1000B0000008000201000003040700000000000027
:1000C00000001E0F11241FBECFEFD8E0DEBFCDBF52
:1000D00013E0A0E0B1E0EEE6F1E202C005900D927F
:1000E000A234B107D9F725E0A2E4B3E001C01D9224
:1000F000A134B207E1F710E0C2E6D0E004C02197D6
:10010000FE010E94810FC136D107C9F70E94920CEF
:100110000C94B5100C940000833081F028F48130E9
:1001200099F08230A9F008958730A9F08830C9F09D
:100130008430B1F4809180008F7D03C08091800075
:100140008F7780938000089584B58F7784BD08955C
:1001500084B58F7DFBCF8091B0008F778093B00006
:1001600008958091B0008F7DF9CF1F93CF93DF93D7
:10017000282F30E0F901E255FF4F8491F901E6564E
:10018000FF4FD491F901EA57FF4FC491CC23A9F056
:10019000162F81110E948C00EC2FF0E0EE0FFF1F54
:1001A000E458FF4FA591B4918FB7F894EC911111D9
:1001B00008C0D095DE23DC938FBFDF91CF911F91D4
:1001C0000895DE2BF8CF8230910538F0880F991F03
:1001D000880F991F05970197F1F708953FB7F89495
:1001E0008091390590913A05A0913B05B0913C056D
:1001F00026B5A89B05C02F3F19F00196A11DB11D82
:100200003FBFBA2FA92F982F8827BC01CD01620FBD
:10021000711D811D911D42E0660F771F881F991F78
:100220004A95D1F70895AF92BF92CF92DF92EF92A5
:10023000FF920F931F93CF93DF936C017B018B0190
:10024000040F151FEB015E01AE18BF08C017D107E0
:1002500059F06991D601ED91FC910190F081E02D6A
:10026000C6010995892B79F7C501DF91CF911F91BF
:100270000F91FF90EF90DF90CF90BF90AF900895D7
:10028000FC01538D448D252F30E0842F90E0821B9C
:10029000930B541710F0CF96089501970895FC0121
:1002A000918D828D981761F0A28DAE0FBF2FB11D79
:1002B0005D968C91928D9F5F9F73928F90E00895D1
:1002C0008FEF9FEF0895FC01918D828D981731F08B
:1002D000828DE80FF11D858D90E008958FEF9FEFDF
:1002E0000895FC01918D228D892F90E0805C9F4FB5
:1002F000821B91098F73992708958CE694E00E94E0
:10030000710121E0892B09F420E0822F089580E01B
:1003100090E0892B29F00E947D0181110C9400004E
:100320000895FC01A48DA80FB92FB11DA35ABF4F8A
:100330002C91848D90E001968F739927848FA689E4
:10034000B7892C93A089B1898C91837080648C9338
:10035000938D848D981306C00288F389E02D8081E7
:100360008F7D80830895EF92FF920F931F93CF9319
:10037000DF93EC0181E0888F9B8D8C8D98131AC0E0
:10038000E889F989808185FF15C09FB7F894EE89C7
:10039000FF896083E889F989808183708064808324
:1003A0009FBF81E090E0DF91CF911F910F91FF906F
:1003B000EF900895F62E0B8D10E00F5F1F4F0F7317
:1003C0001127E02E8C8D8E110CC00FB607FCFACFD2
:1003D000E889F989808185FFF5CFCE010E949101DE
:1003E000F1CFEB8DEC0FFD2FF11DE35AFF4FF082A3
:1003F0009FB7F8940B8FEA89FB8980818062CFCF09
:10040000CF93DF93EC01888D8823B9F0AA89BB894B
:10041000E889F9898C9185FD03C0808186FD0DC036
:100420000FB607FCF7CF8C9185FFF2CF808185FF57
:10043000EDCFCE010E949101E9CFDF91CF910895D8
:10044000880F991F880F991FFC01EA5FFC4F80817C
:100450009181228133812F30310571F023323105B2
:1004600049F4FC01228121FF02C003960895808196
:100470009181089590E080E00895209146032095B1
:1004800030E0F901EA5FFD4F908190952A5F3E4F81
:10049000D9018C9140914403509145034250510938
:1004A000E6E4F3E031969F012654334024173507E4
:1004B00070F420819227292F30E0D901AA5FBD4F27
:1004C0009C9198272A5F3E4FD9018C91EBCF0895DC
:1004D00023E030E03093450320934403E6E4F3E067
:1004E00090915904908380588183628308950F937B
:1004F0001F93582F577001E010E020E030E004C057
:10050000000F111F221F331F5A95D2F723E0969533
:1005100087952A95E1F79927E0916304F0916404A7
:10052000662321F0E0916904F0916A04E80FF91F55
:100530008081442329F0082B00831F910F91089597
:1005400000950823F9CF2F923F924F925F926F92BE
:100550007F928F929F92AF92BF92CF92DF92EF9253
:10056000FF920F931F93CF93DF93CDB7DEB7EC9736
:100570000FB6F894DEBF0FBECDBF10E000E0F8016B
:10058000EE0FFF1FE75EFB4F0190F081E02D3097EB
:1005900049F041E08081811101C040E060E0C80184
:1005A0000E9477020F5F1F4F0032110541F709EDDE
:1005B00013E01EAB0DABE0915A04F0915B049F0178
:1005C000205C3F4FA801DA018D919D91AD0100970C
:1005D00029F0DC018D919C919183808332962E17B6
:1005E0003F0789F7E9E0EE2EE5E0FE2E10E000E09F
:1005F000D701ED91FD917D01309749F041E0808177
:10060000811101C040E061E0C8010E9477020F5FE4
:100610001F4F0830110561F74DEC53E0E09166047F
:10062000F09167049F01245F3F4FDA018D919D9106
:10063000AD01009729F0DC018D919C91918380831D
:1006400032962E173F0789F7109245031092440304
:100650008091CB039091CC03DC01ED91FC9100845F
:10066000F185E02D0995892B09F483C08091CB0396
:100670009091CC03DC01ED91FC910084F185E02D9B
:1006800009952091440330914503A091CB03B0918B
:10069000CC03ED91FC9111970084F185E02D281792
:1006A000390768F4CD01099590934503809344037D
:1006B0008091C8039091C9030E94E300D7CFCD0178
:1006C0000995813891050CF054C08091CB0390912D
:1006D000CC03DC01ED91FC910084F185E02D0995BE
:1006E00006970CF446C076E4472E73E0572E72014D
:1006F0000091440310914503C7018654934080172D
:10070000910778F48091CB039091CC03DC01ED91BB
:10071000FC910284F385E02D0995F70181937F0117
:10072000E7CFF09047038FEB8F0D853080F00E946C
:100730003D0298012A5B3C4FF901329740812150DC
:100740003109D9012C91342F2817390791F4909150
:10075000460380915904981709F464C08091CB0333
:100760009091CC03DC01ED91FC910680F781E02DA6
:100770000995409163045091640430E020E0F90150
:10078000EE0FFF1FE75EFB4FA081B181109799F03C
:10079000F90183E0F695E7958A95E1F7E40FF51FF7
:1007A000808190E0622F677002C0959587956A9569
:1007B000E2F781708C932F5F3F4F20323105F9F6BD
:1007C000E0915A04F0915B04CF01805C9F4FADA98A
:1007D000BEA94D915D91BEABADAB4115510529F060
:1007E00020813181DA012D933C9332968E179F0739
:1007F00071F7EC960FB6F894DEBF0FBECDBFDF9158
:10080000CF911F910F91FF90EF90DF90CF90BF900D
:10081000AF909F908F907F906F905F904F903F90A0
:100820002F9008950250110910934503009344033B
:100830002091480330914903322E232E00914A0320
:1008400010914B0310270127102740914A038091F4
:100850004C0390E0BFE0FB1609F48CC5BF15E8F12E
:10086000E3E0FE1609F491C1EF1570F0F1E0FF1618
:1008700009F4FAC362E0C62EFC1409F482C461E0F4
:1008800070E08F2D90E026C055E0D52EFD1409F4C0
:1008900052C5FD1408F402C546E0E42EFE10EFCF69
:1008A00020915C0480915F0490E0880F991F30E0F4
:1008B000820F931F40916204B4E04B9FA00111246A
:1008C000480F591F2416350608F44FC062E070E047
:1008D00086E090E00E94680255C052E4F51609F4E3
:1008E00008C75F15A8F060E1F61609F46CC281E450
:1008F000F812C5CF84E090E09093450380934403C1
:10090000F09247031092480382E0809349033AC073
:1009100094E4F91609F453C6F91608F4D0C5A5E411
:10092000FA12ADCF2D3AFEED3F0709F046C71092FF
:10093000430385E4809347038EE78093480381E275
:10094000E0E2F3E0DE01119601900D928A95E1F765
:10095000FE013196A9E4B3E081919D012654334014
:10096000882309F438C78D93F7CF22163306D8F4BD
:10097000220C331CE0915A04F0915B04E20DF31D4C
:10098000118300838091440390914503029681383E
:10099000910508F44DC58091470364E070E090E054
:1009A0000E94680245C52816390608F040C0A80113
:1009B00070E060E0E0915D04F0915E0420FC1CC0FA
:1009C000221A330A220C331C0CEF202203E03022BF
:1009D000E20DF31D80819181A281B381AA27BB27FB
:1009E000BA0155274427842B952BA62BB72B808340
:1009F0009183A283B383C6CF20953095220E331EF8
:100A0000220C331C1CEF212213E03122E20DF31DD6
:100A1000008111812281338100271127042B152B9E
:100A2000262B372B0083118322833383ABCF910195
:100A3000237033274801B12CA12CC12CD12C760175
:100A4000E0916004F09161042115310549F5281AFF
:100A5000390A220C331C28EF222227E03222E20D31
:100A6000F31D5080618072801381B481A58194014F
:100A700040E050E060E070E080E090E000E30E9441
:100A80004B0F522A5082632A6182742A7282152B7C
:100A90001383B62BB483A72BA5838683978372CF4A
:100AA0002130310541F53FEF231A330A281A390A5C
:100AB000220C331C48EF242247E03422E20DF31DC0
:100AC0005080618072801381B681A7819401A50155
:100AD000B601C70100E20E944B0F522A5082632ADE
:100AE0006182742A7282152B1383648375838B2B26
:100AF00086839A2BD3CF2230310529F552E0250E7B
:100B0000311C281A390A220C331C68EF262267E0B0
:100B10003622E20DF31D5080618074801581B6810C
:100B2000A7819401A501B601C70100E10E944B0F06
:100B3000522A5082632A618242835383762A7482C6
:100B4000172B1583D4CFA3E02A0E311C281A390A9B
:100B5000220C331CB8EF2B22B7E03B22E20DF31D31
:100B6000528143813481258196818781808291825F
:100B70005A2952834B2943833C2934832D292583C9
:100B80009E2996838F298783FDCEC801019763E054
:100B900070E08D37910548F54101800E911EE0907F
:100BA0005C04E0915F04F0E0EE0FFF1FF12CEE0D0E
:100BB000FF1D8091620424E0829FC00111248E0FEA
:100BC0009F1F62E070E08816990678F4000F111FED
:100BD0000D5F1F4F1093450300934403A6E4B3E059
:100BE0000138110528F064E070E083E090E072CEF7
:100BF0001196CD01865493408017910710F41C92F2
:100C0000F7CF83E080934703035000934803C090DD
:100C10006004D0906104A0905D04B0905E04A09147
:100C20005A04B0915B04C101880F991FAD01480FB0
:100C3000591F5AAB49AB83E090E0DC01AE1BBF0B00
:100C4000BAA7A9A73701609470948214930409F499
:100C500099CEA9A9BAA92E143F0498F12E163F06E1
:100C6000A0F520FC24C0C1018E199F09880F991F8F
:100C70008C7F93708A0D9B1DDC014D915D916D9170
:100C80007C91AB01662777279A01D20113963C939A
:100C9000139714962C93B2E04B0E511CA9A9BAA934
:100CA0001296BAABA9ABBFEF2B1A3B0ACECFC3014A
:100CB000820D931D880F991F8C7F93708A0D9B1D49
:100CC000DC012C9111963C91E0CF8101037011273A
:100CD0000115110519F581010E1B1F0B000F111FC6
:100CE000087F17700C0D1D1DD8012C9111963C9199
:100CF000119712964C91129713965C911397149634
:100D00006C91149715967C91159716968C91169761
:100D100017969C9100E30E94660FB7CF0130110532
:100D200011F50E1B1F0B020D131D000F111F087F65
:100D300017700C0D1D1DD8012C9111963C91119727
:100D400012964C91129713965C91139714966C918E
:100D5000149715967C91159716968C911697179661
:100D60009C9100E2D8CF0230110511F50E1B1F0B2C
:100D7000020D131D000F111F087F17700C0D1D1D94
:100D8000D8012C9111963C91119712964C91129783
:100D900013965C91139714966C91149715967C9109
:100DA000159716968C91169717969C9100E1B3CFE4
:100DB00089A59AA5820D931D880F991F887F97702A
:100DC0008C0D9D1D7DCF9801215031092B373105A8
:100DD00030F49801220F331F8217930729F063E044
:100DE00070E080E190E076CDF101E00FF11FFAAB09
:100DF000E9AB60905C04A0915F04B0E0AA0FBB1F58
:100E0000712CA60DB71D80916204F4E08F9FC00184
:100E100011248A0F9B1FC9A8DAA8C816D90618F092
:100E200062E070E0DECF86E090E09093450380932F
:100E30004403F092470330924803209249031092F2
:100E40004A0300934B038090600490906104E0900B
:100E50005D04F0905E04FCAAEBAAE0915A04F091C4
:100E60005B04F8AFEFAB83E090E06C01CA1ADB0AD9
:100E7000DAAEC9AE7301E094F094FCAEEBAEE9A932
:100E8000FAA92E163F0609F4D3C2F20147818085E4
:100E9000542F482F2614370480F4F101EE0FFF1F62
:100EA000CFA8D8ACEC0DFD1D518340830FEF201A65
:100EB000300A12E0410E511CE2CF2A163B06A0F583
:100EC00070E060E020FC1DC0F101E619F709EE0FAB
:100ED000FF1FEC7FF370EBA8FCA8EE0DFF1D008157
:100EE00011812281338122273327BA0155274427D4
:100EF000402B512B622B732B40835183628373836E
:100F0000D5CFEBADFCADE20DF31DEE0FFF1FEC7F77
:100F1000F370CBA8DCA8EC0DFD1D008111812281AE
:100F2000338100271127E4CFF101E370FF276A0125
:100F3000F12CE12C00E010E09801C9A6DAA6EBA69E
:100F4000FCA60DA71EA72FA738AB309749F5F101D6
:100F5000EA1BFB0BEE0FFF1FE87FF770E80DF91D92
:100F6000B080C180D280E380F480158129A53AA5A4
:100F700040E050E060E070E080E090E000E30E943C
:100F80004B0F2B2920833C2931834D2942835E2935
:100F90005383F62AF482172B15838683978386CF93
:100FA000E130F10549F5EA1BFB0BE20DF31DEE0FF5
:100FB000FF1FE87FF770E80DF91DB080C180D28077
:100FC000E380F680178129A53AA540E050E060E073
:100FD00070E080E090E000E20E944B0F2B2920831C
:100FE0003C2931834D294283E52AE382648375835A
:100FF0008F298683912BD2CFE230F10531F5EA1BA0
:10100000FB0BE20DF31DEE0FFF1FE87FF770E80DFD
:10101000F91DB080C180D480E580F680178129A5B4
:101020003AA540E050E060E070E080E090E000E150
:101030000E944B0F2B2920833C2931834283538309
:10104000D62AD482E72AE582D3CFE9ADFAADE20D04
:10105000F31DEE0FFF1FE87FF770E80DF91DD9A40F
:10106000D082EAA4E18222CFC801019763E070E058
:10107000803D974060F520916504C101800F911F6C
:1010800062E070E02817190610F1C80123E0969578
:1010900087952A95E1F79C012D5F3F4F30934503DB
:1010A00020934403980127703327232B29F00496BB
:1010B00090934503809344038091440390914503AA
:1010C000E6E4F3E08138910528F064E070E081E027
:1010D00090E000CC31969F01265433402817390701
:1010E00010F41082F7CF91E09093470383508093E0
:1010F0004803A0906304B090640470E060E020E0D6
:10110000C12CD12C7601C39426013701022E04C0D4
:10111000440C551C661C771C0A94D2F7FB0133E083
:10112000F695E7953A95E1F7E75BFC4F3081A10131
:10113000A3E056954795AA95E1F74F7155274A0DBB
:101140005B1DDA014C9150E0B22DB77002C055958D
:101150004795BA95E2F7842D40FF0FC0832B80831B
:101160002F5F283009F420E0EFEF2E1A3E0A6F5F60
:101170007F4F0617170741F605CC8095382330833B
:10118000EFCFC801019763E070E0803D974060F5C4
:1011900020916B04C101800F911F62E070E028175D
:1011A000190610F1C80123E0969587952A95E1F775
:1011B0009C012D5F3F4F30934503209344039801DA
:1011C00027703327232B29F00496909345038093AF
:1011D00044038091440390914503E6E4F3E08138B1
:1011E000910528F064E070E082E090E073CB3196E6
:1011F0009F01265433402817390710F41082F7CF87
:1012000092E0909347038350809348036091690470
:1012100070916A0450E040E0B12CC12CD12C7601D1
:10122000C394260137010B2C04C0440C551C661CCA
:10123000771C0A94D2F7FA01A3E0F695E795AA95F0
:10124000E1F7E75BFC4FA0809101B3E0369527956D
:10125000BA95E1F7260F372F311DD9012C9130E0D7
:10126000B22DB77002C035952795BA95E2F7842D57
:1012700020FF10C08A298083B394E8E0BE1201C029
:10128000B12CFFEF2F1A3F0A4F5F5F4F041715076E
:1012900041F678CB8095A822A082EECFC8010197B5
:1012A00063E070E08D379105C8F420916804C101B6
:1012B000800F911F62E070E02817190678F0C801CE
:1012C000880F991F03969093450380934403E6E4A7
:1012D000F3E08138910528F064E070E084E090E06C
:1012E000F9CA31969F01265433402817390710F464
:1012F0001082F7CF94E09093470383508093480384
:10130000220C331CE0916604F0916704E20DF31D9A
:101310000150110922E0420E511C0F3F100709F441
:1013200031CB808191813296D20111969C93119795
:1013300012968C93EDCF0115BFEF1B0729F063E0E8
:1013400070E00115110549F4809165048150990BF5
:101350008215930528F462E070E085E090E0BACA57
:1013600041E001151F4F09F040E060E0C1010E941B
:10137000770208CBA80123E0569547952A95E1F717
:10138000242FB80167707727672B11F021E0240F15
:10139000A80141505109403B574018F4281719063D
:1013A00029F063E070E08FE090E094CA209165043A
:1013B000C101800F911F2817190618F462E070E030
:1013C000F2CF86E090E090934503809344038FE052
:1013D00080934703309248032092490310934A03B5
:1013E00000934B03F12CE12CD12CF701A3E0F695EF
:1013F000E795AA95E1F7EA5BFC4F478150E00D2C99
:1014000002C0559547950A94E2F7417060E0C1012A
:101410008E0D9F1D0E947702D394B8E0CB2EDC1076
:1014200001C0D12C2FEFE21AF20A0E151F05E9F6C2
:101430000091440310914503780122E0E20EF11C73
:10144000F0924503E09244030E943D02F801EA5BFA
:10145000FC4F908381838091CA0387FD09C061E0BE
:101460000E94B5008091C6039091C7030E94E300DB
:101470008091CB039091CC03DC01ED91FC91028033
:10148000F381E02DA70166E473E009958091CB0319
:101490009091CC03DC01ED91FC910680F781E02D69
:1014A00009958091C6039091C7030E94E300809143
:1014B000CA0387FD5EC960E00E94B5005AC932E0E8
:1014C0002316310408F070C00230110508F06CC01A
:1014D0000215130508F468C0C101880F991F880F11
:1014E000991FAC014A5F5C4F3A015101E1E58E2E34
:1014F000E3E09E2E90E080E0D30112962D913C9186
:101500002F30310529F0D12CC12C2332310519F4AB
:10151000CC24C394D12C7601E80EF91E9701255FE7
:101520003F4F21383105F0F5C5010E942002A60188
:10153000BC01C4010E94AC108C0C9D1CB4E06B0E6D
:10154000711CC701150195012F5F3F4F021713074B
:1015500028F5C7010796909345038093440383E4DD
:10156000809347038EE780934803109249032092AB
:101570004A038091270590912805209129053091F3
:101580002A0530934B0320934C0390934D03809393
:101590004E03F0924F03E0925003F4C9AA24A3949F
:1015A000B12CAACF7C01D5CF83E090E09093450386
:1015B0008093440383E48093470381E82AC0E5E1F4
:1015C0002E163104E8F48E010F5F1F4F1AA709A7EA
:1015D000F801B12CA12C12E0410E511C2A143B043D
:1015E000D9F0D20112968C91129713969C9189276B
:1015F0009827892781939193BFEFAB1ABB0AEBCF52
:1016000083E090E09093450380934403F092470376
:1016100082E880934803B6C9912C812C80E0712C1C
:10162000612C0BE010E0A814B90409F43FC0E9A54F
:10163000FAA5E190F190FAA7E9A7F2E0EF16F1041C
:1016400040F083E090E0909345038093440384E46A
:10165000B2CFF701EE0FFF1FEE0FFF1FEA5FFC4F47
:10166000228133812F30310529F0D12CC12C233236
:10167000310519F4CC24C394D12C18012C0C3D1C39
:1016800021E82216310490F4C7010E942002A6012D
:10169000BC01C8018A5B9C4F0E94AC106C0C7D1C85
:1016A0003FEF831A930A8E2D8101BDCF109345031E
:1016B0000093440394E4909347039EE79093480378
:1016C0001092490380934A03809127059091280541
:1016D0002091290530912A0530934B0320934C0328
:1016E00090934D0380934E0370924F03609250038A
:1016F00049C952E02516310450F480914B03909172
:101700004C039827892798278A37910540F083E072
:1017100090E0909345038093440382E44CCFF10121
:10172000EE0FFF1FEE0FFF1FEA5FFC4F00811181DC
:1017300082819381442391F18F30910529F050E00B
:1017400040E08332910511F441E050E08F30910583
:1017500069F08397C1F083E090E090934503809314
:10176000440382E4809347038EE753CF6DE473E034
:10177000C8010E94AC10D80111968C91119782601B
:1017800011968C93E8CF6DE473E0C80103960E9434
:10179000AC10F801828182608283DDCF8F309105A9
:1017A00031F08397C1F6F80182818D7FF5CFD801A2
:1017B00011968C9111978D7FE3CF2E3D3D4A21F4F8
:1017C00081E080934303B5C883E090E090934503A4
:1017D00080934403AEC83093450320934403D2C89A
:1017E0001F920F920FB60F9211242F933F938F9356
:1017F0009F93AF93BF938091350590913605A0914B
:101800003705B09138053091340523E0230F2D378B
:1018100058F50196A11DB11D20933405809335051F
:1018200090933605A0933705B0933805809139051C
:1018300090913A05A0913B05B0913C050196A11D00
:10184000B11D8093390590933A05A0933B05B09361
:101850003C05BF91AF919F918F913F912F910F9038
:101860000FBE0F901F90189526E8230F0296A11D1A
:10187000B11DD2CF1F920F920FB60F9211242F934A
:101880003F934F935F936F937F938F939F93AF9308
:10189000BF93EF93FF938CE694E00E949101FF9138
:1018A000EF91BF91AF919F918F917F916F915F91D8
:1018B0004F913F912F910F900FBE0F901F90189551
:1018C0001F920F920FB60F9211242F938F939F9315
:1018D000EF93FF93E0917C04F0917D048081E0918F
:1018E0008204F091830482FD1BC090818091850465
:1018F0008F5F8F7320918604821741F0E0918504F9
:10190000F0E0E459FB4F958F80938504FF91EF91B0
:101910009F918F912F910F900FBE0F901F90189550
:101920008081F4CF789484B5826084BD84B5816071
:1019300084BD85B5826085BD85B5816085BD80919A
:101940006E00816080936E00109281008091810012
:10195000826080938100809181008160809381000A
:10196000809180008160809380008091B1008460CC
:101970008093B1008091B00081608093B00080912D
:101980007A00846080937A0080917A0082608093EC
:101990007A0080917A00816080937A0080917A0049
:1019A000806880937A001092C1001092190582E439
:1019B00093E090931C0580931B0510924203909333
:1019C0000A0580930905CFE9D0E0FE0124910BE8D8
:1019D00010E0F80184918823C9F090E0880F991FE6
:1019E000FC01E859FF4FA591B491FC01E458FF4F69
:1019F000459154913FB7F8949C91822F80959823FC
:101A00009C93FA019081892380833FBFE0917C04FD
:101A1000F0917D0482E08083E0917804F091790474
:101A20001082E0917A04F0917B0480E1808310922F
:101A30008404E0918004F091810496E09083E09129
:101A40007E04F0917F04808180618083E0917E0438
:101A5000F0917F04808188608083E0917E04F09122
:101A60007F04808180688083E0917E04F0917F0410
:101A700080818F7D80832CE634E03093CC032093EB
:101A8000CB038FEF8093CA032EEE32E03093C9036D
:101A90002093C80321E43AE03093C7032093C603A0
:101AA00081E08093590480E280935C0410925F048B
:101AB00010926204809365049093680488E0809398
:101AC0006B0484E090E00E94870F909364048093FD
:101AD0006304009779F124E0FC0111922A95E9F75B
:101AE00080E490E00E94870F90935B0480935A04F7
:101AF000009701F120E4FC0111922A95E9F781E0B9
:101B000090E00E94870F90936A0480936904009785
:101B100089F0FC0110828CE090E00E94870F909386
:101B2000670480936604009729F02CE0FC01119271
:101B30002A95E9F7F12CE12CC701880F991F9C0128
:101B4000275E3B4F6901F90180819181892B49F41E
:101B500081E090E00E94870FF60191838083FC0171
:101B60001082FFEFEF1AFF0A20E2E216F10421F7DC
:101B700020915A0430915B04E9EDF3E090E080E0BD
:101B800041915191452B39F4DF011297A901480F7A
:101B9000591F4D935C9302968034910589F779E043
:101BA000E72E75E0F72EF701819191917F01892B46
:101BB00051F481E090E00E94870FF7013297918302
:101BC0008083FC011082F9E1EF16F5E0FF0659F77A
:101BD0004091660450916704EDECF3E090E080E002
:101BE00021913191232B49F4DF0112979C01220F9F
:101BF000331F240F351F2D933C930196863091059A
:101C000079F780E29EE4A0E0B0E080932C05909309
:101C10002D05A0932E05B0932F050E94EE00609332
:101C2000300570933105809332059093330593EB23
:101C3000C92E90E0D92E20E0E22E20E0F22EAA2438
:101C4000A3940E94EE0040903005509031056090C2
:101C5000320570903305641975098609970940901B
:101C60002C0550902D0560902E0570902F05641561
:101C700075058605970508F49AC08091090590912D
:101C80000A05892BE9F0F6018491FE01B490F80170
:101C90009490992079F081110E948C00E92DF0E058
:101CA000EE0FFF1FEE58FF4FA591B4918C91B82213
:101CB00081E009F480E0E0910905F0910A05808354
:101CC0008091270590912805A0912905B0912A05BA
:101CD0000196A11DB11D8093270590932805A0931F
:101CE0002905B0932A0580911A0581FD08C08091CD
:101CF0001D0581FF7DC080911E058093190580918F
:101D0000230590912405A0912505B0912605AC01ED
:101D1000BD01535D6E4C7E4F4115FAEC5F07FAE949
:101D20006F07FBE37F0708F069C0409323055093DA
:101D3000240560932505709326050E94A3028091D7
:101D40002B05811118C0A0922B050E94EE00409037
:101D50002C0550902D0560902E0570902F0564196C
:101D60007509860997096093300570933105809352
:101D70003205909333058091300590913105A09103
:101D80003205B091330540912C0550912D0560919D
:101D90002E0570912F05840F951FA61FB71F8093E6
:101DA000300590933105A0933205B09333050E941E
:101DB000EE004090300550903105609032057090F3
:101DC00033056419750986099709603177428105E1
:101DD000910510F00E94A302E114F10409F431CF3F
:101DE0000E947D01882309F42CCF0E94000029CF96
:101DF000E0911B05F0911C0580817FCF40911F056C
:101E00005091200560912105709122059D59A946A8
:101E1000BA438093230590932405A0932505B0939E
:101E200026054F5F5F4F6F4F7F4F40931F055093C5
:101E3000200560932105709322057FCFECE6F4E046
:101E40001382128288EE93E0A0E0B0E08483958351
:101E5000A683B78382E193E09183808385EC90E051
:101E60009587848784EC90E09787868780EC90E064
:101E7000918B808B81EC90E0938B828B82EC90E055
:101E8000958B848B86EC90E0978B868B118E128ECF
:101E9000138E148E0895002E083090F0982F872FFF
:101EA000762F652F542F432F322F22270850F4CF3F
:101EB000220F331F441F551F661F771F881F991F4E
:101EC0000A95B2F7002D089597FD1094002E083062
:101ED00098F00850232F342F452F562F672F782F37
:101EE000892F912DF4CF15949795879577956795C0
:101EF00057954795379527950A95AAF71124002DF0
:101F00000895EE0FFF1F0590F491E02D09940F93B3
:101F10001F93CF93DF938230910510F482E090E01D
:101F2000E0913F05F091400530E020E0B0E0A0E016
:101F3000309799F42115310509F44AC0281B390B53
:101F400024303105D8F58A819B816115710589F1AD
:101F5000FB0193838283FE0111C040815181028184
:101F6000138148175907E0F04817590799F410975B
:101F700061F012960C93129713961C933296CF0130
:101F8000DF91CF911F910F91089500933F0510931A
:101F90004005F4CF2115310551F04217530738F0B1
:101FA000A901DB019A01BD01DF01F801C1CFEF01F9
:101FB000F9CF9093400580933F05CDCFFE01E20F0E
:101FC000F31F819391932250310939832883D7CF0E
:101FD00020913D0530913E05232B41F420910201D3
:101FE0003091030130933E0520933D05209100017F
:101FF000309101012115310541F42DB73EB74091D3
:10200000040150910501241B350BE0913D05F09131
:102010003E05E217F307A0F42E1B3F0B28173907E4
:1020200078F0AC014E5F5F4F2417350748F04E0F34
:102030005F1F50933E0540933D05819391939FCF41
:10204000F0E0E0E09CCFCF93DF930097E9F0FC0154
:10205000329713821282A0913F05B0914005ED01A5
:1020600030E020E01097A1F420813181820F931F8E
:1020700020913D0530913E052817390709F061C0D0
:10208000F0933E05E0933D05DF91CF910895EA017D
:10209000CE17DF07E8F54A815B819E0141155105A6
:1020A000B1F7E901FB83EA8349915991C40FD51F28
:1020B000EC17FD0761F4808191810296840F951FD2
:1020C000E90199838883828193819B838A83F0E0ED
:1020D000E0E012968D919C9113970097B9F52D91A0
:1020E0003C911197CD010296820F931F20913D05DF
:1020F00030913E052817390739F6309751F510927F
:10210000400510923F05B0933E05A0933D05BCCF1E
:10211000D383C28340815181840F951FC817D9078B
:1021200061F44E5F5F4F88819981480F591F518339
:1021300040838A819B81938382832115310509F035
:10214000B0CFF0934005E0933F059ECFFD01DC0149
:10215000C0CF13821282D7CFFB01DC0102C00190F5
:102160000D9241505040D8F70895F894FFCF0000E9
:102170004105800000C0C101C30302C2C60607C7F3
:1021800005C5C404CC0C0DCD0FCFCE0E0ACACB0BA7
:10219000C90908C8D81819D91BDBDA1A1EDEDF1FD7
:1021A000DD1D1CDC14D4D515D71716D6D21213D3C7
:1021B00011D1D010F03031F133F3F23236F6F73777
:1021C000F53534F43CFCFD3DFF3F3EFEFA3A3BFB67
:1021D00039F9F83828E8E929EB2B2AEAEE2E2FEF17
:1021E0002DEDEC2CE42425E527E7E62622E2E32387
:1021F000E12120E0A06061A163A3A26266A6A767B7
:10220000A56564A46CACAD6DAF6F6EAEAA6A6BAB26
:1022100069A9A86878B8B979BB7B7ABABE7E7FBF56
:102220007DBDBC7CB47475B577B7B67672B2B37346
:10223000B17170B0509091519353529296565797F6
:10224000559594549C5C5D9D5F9F9E5E5A9A9B5BE6
:1022500099595898884849894B8B8A4A4E8E8F4F96
:102260008D4D4C8C44848545874746868242438306
:102270004181804000C1814001C0804101C0804156
:1022800000C1814001C0804100C1814000C1814046
:1022900001C0804101C0804100C1814000C1814036
:1022A00001C0804100C1814001C0804101C0804126
:1022B00000C1814001C0804100C1814000C1814016
:1022C00001C0804100C1814001C0804101C0804106
:1022D00000C1814000C1814001C0804101C08041F6
:1022E00000C1814001C0804100C1814000C18140E6
:1022F00001C0804101C0804100C1814000C18140D6
:1023000001C0804100C1814001C0804101C08041C5
:1023100000C1814000C1814001C0804101C08041B5
:1023200000C1814001C0804100C1814000C18140A5
:1023300001C0804100C1814001C0804101C0804195
:1023400000C1814001C0804100C1814000C1814085
:1023500001C0804101C0804100C1814000C1814075
:1023600001C0804100C1814001C0804101C0804165
:1023700000C1814019050F001B052300000000006B
:10238000B30113014001000271014F0163013037B5
:1023900032663165623435663463396330343237DE
:1023A0006465613739633830383137336639000056
:107E0000112484B714BE81FFF0D085E080938100F7
:107E100082E08093C00088E18093C10086E0809377
:107E2000C20080E18093C4008EE0C9D0259A86E02C
:107E300020E33CEF91E0309385002093840096BBD3
:107E4000B09BFECF1D9AA8958150A9F7CC24DD24C4
:107E500088248394B5E0AB2EA1E19A2EF3E0BF2EE7
:107E6000A2D0813461F49FD0082FAFD0023811F036
:107E7000013811F484E001C083E08DD089C08234E0
:107E800011F484E103C0853419F485E0A6D080C0E4
:107E9000853579F488D0E82EFF2485D0082F10E0AE
:107EA000102F00270E291F29000F111F8ED06801E7
:107EB0006FC0863521F484E090D080E0DECF843638
:107EC00009F040C070D06FD0082F6DD080E0C81688
:107ED00080E7D80618F4F601B7BEE895C0E0D1E017
:107EE00062D089930C17E1F7F0E0CF16F0E7DF06D8
:107EF00018F0F601B7BEE89568D007B600FCFDCFD4
:107F0000A601A0E0B1E02C9130E011968C91119780
:107F100090E0982F8827822B932B1296FA010C0160
:107F200087BEE89511244E5F5F4FF1E0A038BF0790
:107F300051F7F601A7BEE89507B600FCFDCF97BE46
:107F4000E89526C08437B1F42ED02DD0F82E2BD052
:107F50003CD0F601EF2C8F010F5F1F4F84911BD097
:107F6000EA94F801C1F70894C11CD11CFA94CF0C13
:107F7000D11C0EC0853739F428D08EE10CD085E9AC
:107F80000AD08FE07ACF813511F488E018D01DD067
:107F900080E101D065CF982F8091C00085FFFCCF94
:107FA0009093C60008958091C00087FFFCCF809118
:107FB000C00084FD01C0A8958091C6000895E0E648
:107FC000F0E098E1908380830895EDDF803219F02E
:107FD00088E0F5DFFFCF84E1DECF1F93182FE3DFCA
:107FE0001150E9F7F2DF1F91089580E0E8DFEE27F6
:047FF000FF270994CA
:027FFE00040479
:00000001FF
