:020000040000FA
:100000000C9462000C948A000C948A000C948A0070
:100010000C948A000C948A000C948A000C948A0038
:100020000C948A000C948A000C948A000C948A0028
:100030000C948A000C948A000C948A000C948A0018
:100040000C943D0D0C948A000C94AD0D0C94870D0E
:100050000C948A000C948A000C948A000C948A00F8
:100060000C948A000C948A000000000024002700F1
:100070002A000000000023002600290000000000E4
:10008000250028002B0004040404040404040202D4
:100090000202020203030303030301020408102007
:1000A0004080010204081020010204081020000012
:1000B0000008000201000003040700000000000027
:1000C00000006A1611241FBECFEFD8E0DEBFCDBFFF
:1000D00014E0A0E0B1E0E6E0F0E302C005900D928C
:1000E000A434B107D9F727E0A4E4B4E001C01D921D
:1000F000A032B207E1F710E0C2E6D0E004C02197D9
:10010000FE010E94CD16C136D107C9F70E94DF0D4E
:100110000C9401180C940000FC0181E08083828320
:100120001482168217821086118612861386148610
:1001300015861786118A128A138A148A158A168AD6
:10014000178A108E128E148E168E178E10A211A280
:1001500012A213A214A215A217A210A611A612A6EB
:1001600013A614A615A616A60895833081F028F4C8
:10017000813099F08230A9F008958730A9F0883055
:10018000C9F08430B1F4809180008F7D03C08091EC
:1001900080008F7780938000089584B58F7784BD29
:1001A000089584B58F7DFBCF8091B0008F778093C9
:1001B000B00008958091B0008F7DF9CF1F93CF9349
:1001C000DF93282F30E0F901E255FF4F8491F901C8
:1001D000E656FF4FD491F901EA57FF4FC491CC2363
:1001E000A9F0162F81110E94B500EC2FF0E0EE0F60
:1001F000FF1FE458FF4FA591B4918FB7F894EC918D
:10020000111108C0D095DE23DC938FBFDF91CF9111
:100210001F910895DE2BF8CF8230910538F0880FBA
:10022000991F880F991F05970197F1F708953FB718
:10023000F8948091180790911907A0911A07B0912E
:100240001B0726B5A89B05C02F3F19F00196A11DDD
:10025000B11D3FBFBA2FA92F982F8827BC01CD0110
:10026000620F711D811D911D42E0660F771F881F6F
:10027000991F4A95D1F70895AF92BF92CF92DF921E
:10028000EF92FF920F931F93CF93DF936C017B014B
:100290008B01040F151FEB015E01AE18BF08C017DC
:1002A000D10759F06991D601ED91FC910190F0814F
:1002B000E02DC6010995892B79F7C501DF91CF9112
:1002C0001F910F91FF90EF90DF90CF90BF90AF9074
:1002D0000895FC01538D448D252F30E0842F90E04C
:1002E000821B930B541710F0CF9608950197089531
:1002F000FC01918D828D981761F0A28DAE0FBF2FFA
:10030000B11D5D968C91928D9F5F9F73928F90E04F
:1003100008958FEF9FEF0895FC01918D828D9817BE
:1003200031F0828DE80FF11D858D90E008958FEFFB
:100330009FEF0895FC01918D228D892F90E0805CC4
:100340009F4F821B91098F739927089581E395E050
:100350000E949A0121E0892B09F420E0822F089560
:1003600080E090E0892B29F00E94A60181110C9475
:1003700000000895FC01A48DA80FB92FB11DA35A48
:10038000BF4F2C91848D90E001968F739927848FB5
:10039000A689B7892C93A089B1898C9183708064D8
:1003A0008C93938D848D981306C00288F389E02D79
:1003B00080818F7D80830895EF92FF920F931F932A
:1003C000CF93DF93EC0181E0888F9B8D8C8D981308
:1003D0001AC0E889F989808185FF15C09FB7F89414
:1003E000EE89FF896083E889F98980818370806460
:1003F00080839FBF81E090E0DF91CF911F910F91AB
:10040000FF90EF900895F62E0B8D10E00F5F1F4FB9
:100410000F731127E02E8C8D8E110CC00FB607FCC8
:10042000FACFE889F989808185FFF5CFCE010E9456
:10043000BA01F1CFEB8DEC0FFD2FF11DE35AFF4F09
:10044000F0829FB7F8940B8FEA89FB8980818062E4
:10045000CFCFCF93DF93EC01888D8823B9F0AA89A1
:10046000BB89E889F9898C9185FD03C0808186FD6F
:100470000DC00FB607FCF7CF8C9185FFF2CF8081BE
:1004800085FFEDCFCE010E94BA01E9CFDF91CF9178
:100490000895880F991F880F991FFC01EA5FFC4F90
:1004A000828193818A309105B9F040F482309105C0
:1004B00069F0039771F090E080E008958332910530
:1004C00029F08733910511F00F97A9F781E090E0AB
:1004D000089582E090E0089588E090E00895880F04
:1004E000991F880F991FFC01EA5FFC4F8081918161
:1004F000228133812A30310541F040F42250310904
:100500002230310510F090E080E00895233231056B
:1005100039F02733310521F02F303105A1F7089547
:10052000FC01228121FF02C0039608958081918100
:100530000895FC0184819581A681B7814081518114
:1005400062817381811526E3920725E6A20724ECD8
:10055000B2073CF014161506160617068CF4B7FF02
:100560000FC0415051096109710940835183628371
:1005700073839653A546B44C84839583A683B7832F
:1005800084819581A681B781408151816281738187
:1005900081302AEC92072AE9A2072BE3B2073CF448
:1005A00077FF14C0181619061A061B067CF44F5F55
:1005B0005F4F6F4F7F4F40835183628373839A5C99
:1005C000AA49BB4384839583A683B783089520916A
:1005D0004B04209530E0F901EA5FFD4F9081909542
:1005E0002A5F3E4FD9018C914091490450914A04B1
:1005F00042505109EBE4F4E031969F012B54344012
:100600002417350770F420819227292F30E0D90173
:10061000AA5FBD4F9C9198272A5F3E4FD9018C91CC
:10062000EBCF089523E030E030934A04209349044F
:10063000EBE4F4E090911E059083805881836283FF
:1006400008950F931F93582F577001E010E020E09A
:1006500030E004C0000F111F221F331F5A95D2F73C
:1006600023E0969587952A95E1F79927E09128054B
:10067000F0912905662321F0E0912E05F0912F05D8
:10068000E80FF91F8081442329F0082B00831F9174
:100690000F91089500950823F9CFCF93DF93CDB73D
:1006A000DEB72C853D858A859B852817390721F083
:1006B00080E0DF91CF91089581E0FBCFCF92DF9270
:1006C000EF92FF920F931F93CF93DF93CDB7DEB7D7
:1006D00088899989AA89BB894C895D896E897F89B6
:1006E000088D198D2A8D3B8DCC8CDD8CEE8CFF8C8A
:1006F00080179107A207B30759F44C195D096E09D9
:100700007F0914161506160617065CF081E00AC06C
:10071000801B910BA20BB30B181619061A061B06A9
:10072000ACF780E0DF91CF911F910F91FF90EF9098
:10073000DF90CF9008952F923F924F925F926F92E9
:100740007F928F929F92AF92BF92CF92DF92EF9261
:10075000FF920F931F93CF93DF93CDB7DEB7EB9745
:100760000FB6F894DEBF0FBECDBF10E000E0F80179
:10077000EE0FFF1FE254F94F0190F081E02D30970A
:1007800049F041E08081811101C040E060E0C80192
:100790000E9421030F5F1F4F0032110541F70EED3C
:1007A00014E01DAB0CABE0911F05F09120059F01FB
:1007B000205C3F4FA801DA018D919D91AD0100971A
:1007C00029F0DC018D919C91918380833296E21710
:1007D000F30789F7EEECEE2EE5E0FE2E10E000E0E8
:1007E000D701ED91FD917D01309749F041E0808185
:1007F000811101C040E061E0C8010E9421030F5F48
:100800001F4F0830110561F742ED54E0E0912B05D0
:10081000F0912C059F01245F3F4FDA018D919D914E
:10082000AD01009729F0DC018D919C91918380832B
:1008300032962E173F0789F710924A041092490406
:100840008091D0049091D104DC01ED91FC91008461
:10085000F185E02D0995892B09F483C08091D0049E
:100860009091D104DC01ED91FC910084F185E02DA3
:1008700009952091490430914A04A091D004B09187
:10088000D104ED91FC9111970084F185E02D28179A
:10089000390768F4CD01099590934A04809349047F
:1008A0008091CD049091CE040E940C01D7CFCD0150
:1008B0000995813891050CF054C08091D004909135
:1008C000D104DC01ED91FC910084F185E02D0995C6
:1008D00006970CF446C07BE4A72E74E0B72E750192
:1008E0000091490410914A04C7018B549440801729
:1008F000910778F48091D0049091D104DC01ED91BE
:10090000FC910284F385E02D0995F70181937F0125
:10091000E7CFF0904C048FEB8F0D853080F00E9474
:10092000E7029801255B3B4FF90132974081215046
:100930003109D9012C91342F2817390791F490915E
:100940004B0480911E05981709F464C08091D0046F
:100950009091D104DC01ED91FC910680F781E02DAE
:100960000995409128055091290530E020E0F901D2
:10097000EE0FFF1FE254F94FA081B181109799F05B
:10098000F90183E0F695E7958A95E1F7E40FF51F05
:10099000808190E0622F677002C0959587956A9577
:1009A000E2F781708C932F5F3F4F20323105F9F6CB
:1009B000E0911F05F0912005CF01805C9F4FACA90D
:1009C000BDA94D915D91BDABACAB4115510529F071
:1009D00020813181DA012D933C9332968E179F0747
:1009E00071F7EB960FB6F894DEBF0FBECDBFDF9167
:1009F000CF911F910F91FF90EF90DF90CF90BF901C
:100A0000AF909F908F907F906F905F904F903F90AE
:100A10002F9008950250110910934A04009349043D
:100A200020914D0430914E04322E232E00914F041C
:100A300010915004102701271027D0904F04809167
:100A4000510490E0BFE0FB1609F48DC5BF15E8F135
:100A5000E3E0FE1609F491C1EF1570F0F1E0FF1626
:100A600009F4FAC362E0C62EFC1409F483C461E001
:100A700070E08F2D90E026C055E0D52EFD1409F4CE
:100A800053C5FD1408F403C546E0E42EFE10EFCF75
:100A9000209121058091240590E0880F991F30E076
:100AA000820F931F40912705B4E04B9FA0011124B2
:100AB000480F591F2416350608F44FC062E070E055
:100AC00086E090E00E94120355C042E4F41609F457
:100AD000DAC64F15A8F060E1F61609F46CC281E49D
:100AE000F812C5CF84E090E090934A0480934904C3
:100AF000F0924C0410924D0482E480934E043AC06C
:100B000094E4F91609F439C6F91608F4D1C5A5E438
:100B1000FA12ADCF2D3ABEED3B0709F09BC71092FC
:100B2000480485E480934C048EE780934D0481E271
:100B3000E3E2F4E0DE01119601900D928A95E1F76F
:100B4000FE013196AEE4B4E081919D012B54344016
:100B5000882309F48DC78D93F7CF22163306D8F476
:100B6000220C331CE0911F05F0912005E20DF31DCE
:100B7000118300838091490490914A040296813840
:100B8000910508F44EC580914C0464E070E090E05B
:100B90000E94120346C52816390608F040C0A80175
:100BA00070E060E0E0912205F091230520FC1CC07C
:100BB000221A330A220C331C0CEF202203E03022CD
:100BC000E20DF31D80819181A281B381AA27BB2709
:100BD000BA0155274427842B952BA62BB72B80834E
:100BE0009183A283B383C6CF20953095220E331E06
:100BF000220C331C1CEF212213E03122E20DF31DE5
:100C0000008111812281338100271127042B152BAC
:100C1000262B372B0083118322833383ABCF9101A3
:100C2000237033274801B12CA12CC12CD12C760183
:100C3000E0912505F09126052115310549F5281A81
:100C4000390A220C331C28EF222227E03222E20D3F
:100C5000F31D5080618072801381B481A58194015D
:100C600040E050E060E070E080E090E000E30E944F
:100C70009716522A5082632A6182742A7282152B37
:100C80001383B62BB483A72BA5838683978372CF58
:100C90002130310541F53FEF231A330A281A390A6A
:100CA000220C331C48EF242247E03422E20DF31DCE
:100CB0005080618072801381B681A7819401A50163
:100CC000B601C70100E20E949716522A5082632A99
:100CD0006182742A7282152B1383648375838B2B34
:100CE00086839A2BD3CF2230310529F562E0260E78
:100CF000311C281A390A220C331C88EF282287E07D
:100D00003822E20DF31D5080618074801581B68118
:100D1000A7819401A501B601C70100E10E949716C1
:100D2000522A5082632A618242835383762A7482D4
:100D3000172B1583D4CFA3E02A0E311C281A390AA9
:100D4000220C331CB8EF2B22B7E03B22E20DF31D3F
:100D5000528143813481258196818781808291826D
:100D60005A2952834B2943833C2934832D292583D7
:100D70009E2996838F298783FDCEC801019763E062
:100D800070E08D37910548F54101800E911EE0908D
:100D90002105E0912405F0E0EE0FFF1FF12CEE0D90
:100DA000FF1D8091270524E0829FC00111248E0F32
:100DB0009F1F62E070E08816990678F4000F111FFB
:100DC0000D5F1F4F10934A0400934904ABE4B4E055
:100DD0000138110528F064E070E083E090E072CE05
:100DE0001196CD018B5494408017910710F41C92FA
:100DF000F7CF83E080934C04035000934D04C090E0
:100E00002505D09026056090220570902305A091BD
:100E10001F05B0912005C101880F991F8D01080F92
:100E2000191F1BAB0AAB83E090E02C014E1A5F0A3E
:100E3000D701A095B095BAA7A9A78214930409F485
:100E400099CEAAA9BBA92E143F04A0F12E163F06E5
:100E5000A8F520FC24C0C1018E199F09880F991F95
:100E60008C7F9370860D971DDC014D915D916D9186
:100E70007C91AB01662777279A01D50113963C93A5
:100E8000139714962C93B2E0AB0EB11CAAA9BBA980
:100E90001296BBABAAABBFEF2B1A3B0ACECF89A5EC
:100EA0009AA5820D931D880F991F8C7F9370860DD4
:100EB000971DDC012C9111963C91DFCF81010370CD
:100EC00011270115110519F581010E1B1F0B000FCC
:100ED000111F087F17700C0D1D1DD8012C91119644
:100EE0003C91119712964C91129713965C9113971F
:100EF00014966C91149715967C91159716968C9173
:100F0000169717969C9100E30E94B216B6CF013057
:100F1000110511F50E1B1F0B020D131D000F111FE4
:100F2000087F17700C0D1D1DD8012C9111963C9156
:100F3000119712964C91129713965C9113971496F1
:100F40006C91149715967C91159716968C9116971F
:100F500017969C9100E2D8CF0230110511F50E1BB7
:100F60001F0B020D131D000F111F087F17700C0DB2
:100F70001D1DD8012C9111963C91119712964C9100
:100F8000129713965C91139714966C91149715967B
:100F90007C91159716968C91169717969C9100E167
:100FA000B3CFC201820D931D880F991F887F977060
:100FB0008C0D9D1D7ECF9801215031092B373105B5
:100FC00030F49801220F331F8217930729F063E052
:100FD00070E080E190E076CDF101E00FF11FFBAB16
:100FE000EAAB60902105A0912405B0E0AA0FBB1FD9
:100FF000712CA60DB71D80912705F4E08F9FC001CD
:1010000011248A0F9B1FCAA8DBA8C816D90618F09E
:1010100062E070E0DECF86E090E090934A04809337
:101020004904F0924C0430924D0420924E041092E8
:101030004F04009350048090250590902605409021
:10104000220550902305E0901F05F0902005FFAA8F
:10105000EEAA83E090E0FC01EA1BFB0BF9AFE8AFDE
:101060006301C094D094DBAECAAEEAA8FBA82E14EC
:101070003F0409F4D6C2F50147818085542F482FDB
:101080002614370480F4F101EE0FFF1FCEA8DFA86D
:10109000EC0DFD1D518340833FEF231A330A42E0DC
:1010A000A40EB11CE2CF2A163B0680F570E060E08A
:1010B00020FC1BC0F101E619F709EE0FFF1FEC7FC2
:1010C000F370E40DF51D0081118122813381222707
:1010D0003327BA0155274427402B512B622B732B02
:1010E0004083518362837383D7CFEAADFBADE20DBA
:1010F000F31DEE0FFF1FEC7FF370E40DF51D008173
:1011000011812281338100271127E6CFF101E3709D
:10111000FF276A01F12CE12C00E010E09801C9A63C
:10112000DAA6EBA6FCA60DA71EA72FA738AB309713
:1011300059F5F101EA1BFB0BEE0FFF1FE87FF7707B
:10114000E80DF91DD080D9AAC180D280E380F48057
:10115000158129A53AA540E050E060E070E080E00C
:1011600090E000E30E94971609A9202B20833C29D8
:1011700031834D2942835E295383F62AF482172B4B
:1011800015838683978388CFE130F10559F5EA1BF3
:10119000FB0BE20DF31DEE0FFF1FE87FF770E80D6C
:1011A000F91D108119ABC180D280E380F6801781D0
:1011B00029A53AA540E050E060E070E080E090E0D2
:1011C00000E20E94971609A9202B20833C29318335
:1011D0004D294283E52AE382648375838F298683C0
:1011E000912BD0CFE230F10541F5EA1BFB0BE20D6C
:1011F000F31DEE0FFF1FE87FF770E80DF91D10815A
:1012000019ABC180D480E580F680178129A53AA565
:1012100040E050E060E070E080E090E000E10E949B
:10122000971609A9202B20833C29318342835383BD
:10123000D62AD482E72AE582D1CFE8ADF9ADE20D16
:10124000F31DEE0FFF1FE87FF770E80DF91D19A5DC
:1012500010832AA5218320CFC8010197803D9740A4
:1012600028F063E070E081E090E02CCC20912A052A
:10127000C101800F911F62E070E02817190698F3F2
:10128000C80123E0969587952A95E1F79C012D5F8B
:101290003F4F30934A042093490498012770332725
:1012A000232B29F0049690934A048093490480915B
:1012B000490490914A04EBE4F4E08138910518F078
:1012C00064E070E0D0CF31969F012B543440281752
:1012D000390710F41082F7CF91E090934C048350BB
:1012E00080934D04A0902805B090290570E060E03F
:1012F00020E0C12CD12C7601C39426013701022EA7
:1013000004C0440C551C661C771C0A94D2F7FB01E0
:1013100043E0F695E7954A95E1F7E25BFB4F3081B4
:10132000A101A3E056954795AA95E1F74F7155277E
:101330004A0D5B1DDA014C9150E0B22DB77002C02E
:1013400055954795BA95E2F7842D40FF0FC0832B42
:1013500080832F5F283009F420E0EFEF2E1A3E0A39
:101360006F5F7F4F0617170741F604CC809538232F
:101370003083EFCFC801019763E070E0803D974074
:1013800060F520913005C101800F911F62E070E08F
:101390002817190610F1C80133E0969587953A95FC
:1013A000E1F79C012D5F3F4F30934A04209349049D
:1013B000980127703327232B29F0049690934A0431
:1013C000809349048091490490914A04EBE4F4E04D
:1013D0008138910528F064E070E082E090E072CB03
:1013E00031969F012B5434402817390710F410828E
:1013F000F7CF92E090934C04835080934D0460911A
:101400002E0570912F0550E040E0B12CC12CD12C5D
:101410007601C394260137010B2C04C0440C551CE3
:10142000661C771C0A94D2F7FA0183E0F695E795DB
:101430008A95E1F7E25BFB4FA080910193E036953E
:1014400027959A95E1F7260F372F311DD9012C9159
:1014500030E0B22DB77002C035952795BA95E2F706
:10146000842D20FF10C08A298083B394E8E0BE1247
:1014700001C0B12CFFEF2F1A3F0A4F5F5F4F0417D7
:10148000150741F677CB8095A822A082EECFC80140
:10149000019763E070E08D379105C8F420912D0528
:1014A000C101800F911F62E070E02817190678F0E3
:1014B000C801880F991F039690934A0480934904AA
:1014C000EBE4F4E08138910528F064E070E084E01A
:1014D00090E0F8CA31969F012B5434402817390701
:1014E00010F41082F7CF94E090934C0483508093D3
:1014F0004D04220C331CE0912B05F0912C05E20DDC
:10150000F31D0150110922E0A20EB11C0F3F10077C
:1015100009F430CB808191813296D50111969C934C
:10152000119712968C93EDCF0115BFEF1B0729F091
:1015300063E070E00115110549F480912A0581509E
:10154000990B8215930528F462E070E085E090E045
:10155000B9CA41E001151F4F09F040E060E0C10148
:101560000E94210307CBA801F3E056954795FA9511
:10157000E1F7242FB80167707727672B11F021E07E
:10158000240FA80141505109403B574018F4281737
:10159000190629F063E070E08FE090E093CA209193
:1015A0002A05C101800F911F2817190618F462E05F
:1015B00070E0F2CF86E090E090934A048093490473
:1015C0008FE080934C0430924D0420924E0410938F
:1015D0004F0400935004F12CE12CD12CF70173E05F
:1015E000F695E7957A95E1F7E55BFB4F478150E08B
:1015F0000D2C02C0559547950A94E2F7417060E0C2
:10160000C1018E0D9F1D0E942103D394E8E0CE2ED0
:10161000DC1001C0D12C2FEFE21AF20A0E151F05C3
:10162000E9F60091490410914A047801F2E0EF0EC6
:10163000F11CF0924A04E09249040E94E702F8018A
:10164000E55BFB4F908381838091CF0487FD09C0C8
:1016500061E00E94DE008091CB049091CC040E9456
:101660000C018091D0049091D104DC01ED91FC91AA
:101670000280F381E02DA7016BE474E0099580916D
:10168000D0049091D104DC01ED91FC910680F781AA
:10169000E02D09958091CB049091CC040E940C011F
:1016A0008091CF0487FD5DC960E00E94DE0059C9CA
:1016B00032E42316310408F055C00234110508F055
:1016C00051C00215130508F44DC0610166E5A62E50
:1016D00064E0B62E712C612CC6010E9449024C01B7
:1016E0007301E80EF91EC7010B9681389105C0F50C
:1016F000C6010E946F02A401BC01C5010E94F81737
:10170000A80CB91CC6010196370116010817190764
:1017100028F5C701079690934A048093490483E40F
:1017200080934C048EE780934D0410924E042092D7
:101730004F04809106079091070720910807309188
:1017400009073093500420935104909352048093DE
:101750005304F0925404E09255040CCA6C01BCCFBF
:101760007301D7CF83E090E090934A0480934904BB
:1017700083E480934C0481E828C045E124163104B9
:10178000D8F4CE0101962C01FC01D12CC12C92E0A1
:10179000A90EB11C2C143D04D9F0D50112968C91E0
:1017A000129713969C918927982789278193919363
:1017B000BFEFCB1ADB0AEBCF83E090E090934A04B3
:1017C00080934904F0924C0482E880934D04D2C97E
:1017D000B12CA12C19A6712C612C0BE010E0CA14BD
:1017E000DB0469F1F201E190F1902F01F2E4EF16D0
:1017F000F10440F083E090E090934A048093490420
:1018000084E4B7CFC7010E9449024C011801280E99
:10181000391E21E82216310490F4C7010E946F029C
:10182000A401BC01C801855B9B4F0E94F817680C9E
:10183000791C3FEFA31AB30AE9A68101D0CF109318
:101840004A040093490484E480934C048EE7809317
:101850004D0410924E04C9A4C0924F048091060713
:1018600090910707209108073091090730935004A1
:101870002093510490935204809353047092540423
:101880006092550477C902E42016310450F4809127
:101890005004909151049827892798278A379105F9
:1018A00040F083E090E090934A048093490482E4FE
:1018B00060CF8101000F111F000F111FF801EA5FB7
:1018C000FC4FE280F380809148048130E9F0F80118
:1018D000EA5FFC4F00811181D11036C0FAE0EF16AB
:1018E000F10409F4AFC008F099C032E0E316F10446
:1018F00009F4A3C043E0E416F104B9F5D801129647
:101900008C9112978D7F81C020E1E216F104F9F2EB
:10191000C1010E9449029C0136952795FC01E55BB7
:10192000FB4FABE4B4E03197CD018B549440821768
:10193000930768F617968C911797978117969C9343
:10194000179787831196EFCFC1010E9449026C015E
:101950003AE0E316F10479F198F462E0E616F10456
:10196000E1F083E0E816F10489F183E090E09093E0
:101970004A048093490482E480934C048EE725CF87
:1019800093E2E916F10409F443C0A7E3EA16F1046F
:1019900041F1BFE0EB16F10441F7A60162E574E006
:1019A000C8010E94F817D80111968C911197826096
:1019B00011968C93DACFAC0162E574E0C8010E9405
:1019C000F817F801808582608087CFCFA60162E595
:1019D00074E0C8010E94F817F80182818260828356
:1019E000C4CFA60162E574E0F801808191810E9474
:1019F000F817A60162E574E0C80103960E94F81783
:101A0000D80112968C911297826012968C93ADCF6A
:101A1000A60162E574E0C8010396DCCF63E2E61636
:101A2000F10409F46BCF87E3E816F10409F466CFFB
:101A30009FE0E916F10409F098CFF80181818D7FCC
:101A4000818393CFD80118968C9118978D7F189623
:101A50008C938BCF2E3D3D4A21F481E08093480446
:101A600060C883E090E090934A048093490459C889
:101A700030934A04209349047DC81F920F920FB6F9
:101A80000F9211242F933F938F939F93AF93BF9304
:101A90008091140790911507A0911607B091170730
:101AA0003091130723E0230F2D3758F50196A11D20
:101AB000B11D209313078093140790931507A093EB
:101AC0001607B09317078091180790911907A091F6
:101AD0001A07B0911B070196A11DB11D809318072D
:101AE00090931907A0931A07B0931B07BF91AF916A
:101AF0009F918F913F912F910F900FBE0F901F904C
:101B0000189526E8230F0296A11DB11DD2CF1F9272
:101B10000F920FB60F9211242F933F934F935F9321
:101B20006F937F938F939F93AF93BF93EF93FF93A5
:101B300081E395E00E94BA01FF91EF91BF91AF91CF
:101B40009F918F917F916F915F914F913F912F91D5
:101B50000F900FBE0F901F9018951F920F920FB607
:101B60000F9211242F938F939F93EF93FF93E09104
:101B70004105F09142058081E0914705F0914805CB
:101B800082FD1BC0908180914A058F5F8F732091E9
:101B90004B05821741F0E0914A05F0E0EF5CFA4F07
:101BA000958F80934A05FF91EF919F918F912F918F
:101BB0000F900FBE0F901F9018958081F4CFCF9398
:101BC000DF93CDB7DEB7C854D1090FB6F894DEBFA6
:101BD0000FBECDBF789484B5826084BD84B581602A
:101BE00084BD85B5826085BD85B5816085BD8091E8
:101BF0006E00816080936E00109281008091810060
:101C00008260809381008091810081608093810057
:101C1000809180008160809380008091B100846019
:101C20008093B1008091B00081608093B00080917A
:101C30007A00846080937A0080917A008260809339
:101C40007A0080917A00816080937A0080917A0096
:101C5000806880937A001092C10011E01093DE0535
:101C60001093E0051092E2051092E4051092E5054C
:101C70001092E6051092E7051092E8051092E9052A
:101C80001092EA051092EB051092EE051092ED0508
:101C90001092F0051092F2051092F40586EF95E08F
:101CA0000E948C0086E296E00E948C0010925606FC
:101CB0001092580610925A0610925D0610925C0619
:101CC00010925F06109262061092610610936406ED
:101CD00010936606109269061092680610926B06C1
:101CE00010926D0610926F06109371061093730692
:101CF00010927606109275061092780610927A0667
:101D000010927D0610927C0610927F06109281063A
:101D10001092830610938506109387061092890609
:101D200010928B0610928D0680918E0684608093AF
:101D30008E0610938F0610939106109293061092C0
:101D40009506109397061093990610939B06109290
:101D50009E0610929D061092A0061092A206109266
:101D6000A40667E474E07093A7066093A606109239
:101D7000470446E454E05093AB064093AA06109201
:101D8000460425E434E03093AF062093AE0610926B
:101D9000450484E494E09093B3068093B2061092D5
:101DA00044041092B7061092B6061092B90610922B
:101DB000BC061092BB067093C1066093C006509398
:101DC000BF064093BE063093C3062093C20690938D
:101DD000CF058093CE05ECE9F0E02491B8E82B2EF6
:101DE000B0E03B2EF10184918823C9F090E0880F88
:101DF000991FFC01E859FF4FA591B491FC01E458EB
:101E0000FF4F459154913FB7F8949C91822F809554
:101E100098239C93DA019C9189238C933FBF23E202
:101E200034E0A0E2B4E08D9190E0FC01E656FF4F73
:101E300044918A579F4FFC0184918823A1F090E040
:101E4000880F991FFC01E859FF4F65917491FC01BF
:101E5000E458FF4F859194918FB7F894FB019081DE
:101E6000492B40838FBF2A173B07E9F6E0914105D4
:101E7000F091420582E08083E0913D05F0913E05BE
:101E80001082E0913F05F091400580E1808310923F
:101E90004905E0914505F091460596E09083E09173
:101EA0004305F0914405808180618083E091430582
:101EB000F0914405808188608083E0914305F09132
:101EC0004405808180688083E0914305F09144055A
:101ED00080818F7D808321E335E03093D10420938E
:101EE000D0048FEF8093CF042EEE32E03093CE04F7
:101EF0002093CD0421E43AE03093CC042093CB042A
:101F000081E080931E0580E28093210510922405D4
:101F10001092270580932A0590932D0588E08093E1
:101F2000300584E090E00E94D316909329058093B9
:101F30002805009779F124E0DC011D922A95E9F744
:101F400080E490E00E94D3169093200580931F05B3
:101F5000009701F120E4FC0111922A95E9F781E054
:101F600090E00E94D31690932F0580932E05009742
:101F700089F0DC011C928CE090E00E94D3169093D3
:101F80002C0580932B05009729F02CE0FC01119281
:101F90002A95E9F710E000E0C801880F991F9C011D
:101FA0002254394F7901D9018D919C91892B49F4A3
:101FB00081E090E00E94D316F70191838083DC01D9
:101FC0001C920F5F1F4F0032110531F720911F0542
:101FD00030912005EEEDF4E090E080E041915191E8
:101FE000452B39F4DF011297A901480F591F4D9372
:101FF0005C9302968034910589F70EEC15E07EED36
:10200000E72E75E0F72EF801819191918F01892BD0
:1020100051F481E090E00E94D316F8013297918349
:102020008083DC011C92E016F10669F740912B05D4
:1020300050912C05E2EDF4E090E080E021913191A7
:10204000232B49F4DF0112979C01220F331F240F29
:10205000351F2D933C9301968630910579F780E2E8
:102060009EE4A0E0B0E080930B0790930C07A09350
:102070000D07B0930E070E94170160930F0770932E
:102080001007809311079093120755E0452E512CAD
:10209000612C712C11E00E941701C0900F07D090A5
:1020A0001007E0901107F09012076C197D098E0956
:1020B0009F09C0900B07D0900C07E0900D07F0909F
:1020C0000E076C157D058E059F0508F4A6C180914D
:1020D000CE059091CF05892BF9F0E0EBF0E08491EB
:1020E000ECE9F0E0F490F1010491002379F0811122
:1020F0000E94B500E02FF0E0EE0FFF1FEE58FF4FFB
:10210000A591B4918C91F82281E009F480E0E091EE
:10211000CE05F091CF058083809106079091070747
:10212000A0910807B09109070196A11DB11D8093E8
:10213000060790930707A0930807B09309078091BB
:10214000E30581FD04C080917F068093E2058091C4
:10215000EC0581FD10C04092E4055092E5056092C7
:10216000E6057092E7051092E8051092E9051092D5
:10217000EA051092EB058091EF0581FD08C0809182
:102180007C0690917D069093EE058093ED058091FD
:10219000E10582709091DE05911161C1811102C04B
:1021A0001092E00580917E0681FD08C08091ED05CA
:1021B0009091EE0590937D0680937C068091B80601
:1021C00081FD14C08091ED059091EE05009709F412
:1021D0008EC48130910509F48DC4029709F08DC435
:1021E00082E090E09093B7068093B60680919F06B8
:1021F00081FD08C08091B6069091B70690939E0627
:1022000080939D0680919C06827090919906911111
:1022100077C4811102C010929B068091A80681FDAF
:1022200007C0E091A606F091A7068091A0068083E2
:102230008091AC0681FD07C0E091AA06F091AB0643
:102240008091A20680838091B00681FD07C0E09155
:10225000AE06F091AF068091A40680838091770648
:1022600081FD08C08091ED059091EE059093760672
:10227000809375068091790681FD04C08091810666
:102280008093780680917406827090917106911106
:10229000AEC4811102C0109273068091840681FD44
:1022A00004C080917A068093830680918A0681FD1E
:1022B00008C08091B40681FFC1C48091B5068093A7
:1022C0008906809188068270909185069111BCC420
:1022D000811102C0109287068091BD06282F2270BE
:1022E00081FD18C080917C0690917D0630918B060F
:1022F000332309F4C5C421E0029708F0C1C482E089
:1023000090E03091BA0631FF2093B9069093BC0655
:102310008093BB068091B906882361F080917E0688
:1023200081FD08C08091BB069091BC0690937D060C
:1023300080937C068EEBE82E86E0F82E90E2C92E84
:1023400094E0D92ED701ED91FD917D01309729F0D0
:102350006081F60180810E94DE00FFEFCF1ADF0A64
:1023600024EC36E02E153F0569F780910207909125
:102370000307A0910407B0910507AC01BD01535DAF
:102380006E4C7E4F41153AEC53073AE963073BE345
:10239000730708F078C440930207509303076093D3
:1023A0000407709305070E949B0380910A0781111F
:1023B00018C010930A070E941701C0900B07D09015
:1023C0000C07E0900D07F0900E076C197D098E093F
:1023D0009F0960930F0770931007809311079093E4
:1023E000120780910F0790911007A0911107B091EB
:1023F000120740910B0750910C0760910D077091E7
:102400000E07840F951FA61FB71F80930F07909389
:102410001007A0931107B09312070E941701C090F4
:102420000F07D0901007E0901107F09012076C1979
:102430007D098E099F09603177428105910510F071
:102440000E949B03E0E0F0E0EF2B09F424CE0E9411
:10245000A601882309F41ECE0E9400001BCE811124
:1024600002C01093E0058091590681FD10C081E003
:102470002091ED053091EE052230310509F080E024
:102480009091570691FF10935606809358068091BD
:102490005606882341F08091F10581FD04C08091AA
:1024A00058068093F0058091F50581FD0FC080915D
:1024B000F205811108C08091E205882321F081E0B6
:1024C0009091F005911180E08093F4058091FB05D7
:1024D00081FD04C08091F4058093FA058091040683
:1024E00081FD09C088E0E4EEF5E0ACEFB5E00190D5
:1024F0000D928A95E1F78091F90582709091F60529
:10250000911187C0811102C01092F80580912B06AD
:1025100081FD04C08091050680932A0680913406CF
:1025200081FD09C088E0E4EEF5E0ACE2B6E00190A0
:102530000D928A95E1F78091290682709091260686
:1025400091119BC1811102C0109228068091F30560
:1025500081FD04C0809135068093F20580915E066E
:1025600081FD19C08091F0058111BDC281E090917B
:10257000F405911101C080E022E030E0811102C039
:1025800030E020E090915B0691FF80935A063093F3
:102590005D0620935C0680915A06882361F0809145
:1025A000EF0581FD08C080915C0690915D069093D7
:1025B000EE058093ED058091630681FD18C0809142
:1025C000F005811192C281E09091F405911180E0B3
:1025D00022E030E0811102C030E020E090916006FE
:1025E00091FF80935F06309362062093610680918D
:1025F0005F06882309F4D6CD8091EF0581FDD2CD09
:1026000080916106909162069093EE058093ED05AE
:10261000C9CD811102C01093F80580911C0681FD7F
:1026200009C088E0EEEFF6E0A4E1B6E001900D927B
:102630008A95E1F7009110068091FA0501111EC0FC
:102640009091120691113FC38823D1F08091110619
:1026500081FF109310068091060681FF10920506F7
:102660008091250681FD2AC088E0E4E1F6E0ADE135
:10267000B6E001900D928A95E1F720C0811127C044
:1026800080910F0681FD10C0109207061092080677
:102690001092090610920A0610920B0610920C0670
:1026A00010920D0610920E068091060681FF109280
:1026B00005068091110681FF109210068091130685
:1026C00081FD24CF8091FA05809312061FCF01303F
:1026D000A9F78091210690912206A0912306B0913E
:1026E0002406C0900006D0900106E0900206F0900B
:1026F00003064091FC055091FD056091FE05709127
:10270000FF0580901D0690901E06A0901F06B090B9
:102710002006480D591D6A1D7B1D498B5A8B6B8BFA
:102720007C8B8C0D9D1DAE1DBF1D8D8B9E8BAF8B2D
:10273000B88FCE0141960E94990288E0FE01719601
:10274000DE01D99601900D928A95E1F788E0FE01AD
:10275000F996DE01AF5BBF4F01900D928A95E1F7CC
:1027600000D000D000D000D0ADB7BEB7119688E041
:10277000E4E1F6E001900D928A95E1F700D000D0F7
:1027800000D000D0ADB7BEB7119688E0FE01EF5B78
:10279000FF4F01900D928A95E1F71F9232E0F32EE0
:1027A000FF921F921F920F930E945E030FB6F89440
:1027B000DEBF0FBECDBF90910F06882391F08091B0
:1027C000110681FFF09210068091060681FF10939A
:1027D000050688E0ECEFF5E091FD70CFA7E0B6E0EC
:1027E00048CF91FD6BCF8091180690911906A0916A
:1027F0001A06B0911B06C0902106D0902206E090E8
:102800002306F0902406409114065091150660911D
:1028100016067091170680901D0690901E06A090D7
:102820001F06B0902006481959096A097B09498B8F
:102830005A8B6B8B7C8B8C199D09AE09BF098D8BD4
:102840009E8BAF8BB88FCE0141960E94990288E093
:10285000FE017196DE01999601900D928A95E1F73D
:1028600088E0FE01B996DE01D19601900D928A951D
:10287000E1F788E0FE01F196B1CF811102C010931B
:10288000280680914C0681FD09C088E0EEEFF6E055
:10289000A4E4B6E001900D928A95E1F7009140061C
:1028A00080912A0601111AC090914206992309F4D9
:1028B0000DC2811115C08091410681FF1093400621
:1028C0008091550681FD25C088E0E4E4F6E0ADE4A2
:1028D000B6E001900D928A95E1F71BC0882391F133
:1028E00080913F0681FD10C0109237061092380685
:1028F0001092390610923A0610923B0610923C064E
:1029000010923D0610923E068091410681FF109282
:1029100040068091360681FD0CC080912A06811107
:10292000E0C081E090914006913009F080E0809312
:1029300035068091430681FD09CE80912A06809359
:10294000420604CE013029F7C0905106D0905206BD
:10295000E0905306F0905406809130069091310635
:10296000A0913206B091330640912C0650912D066D
:1029700060912E0670912F0680904D0690904E0625
:10298000A0904F06B0905006480D591D6A1D7B1D42
:10299000498B5A8B6B8B7C8B8C0D9D1DAE1DBF1D87
:1029A0008D8B9E8BAF8BB88FCE0141960E94990282
:1029B00088E0FE017196DE01599601900D928A958C
:1029C000E1F788E0FE017996DE01919601900D9283
:1029D0008A95E1F700D000D000D000D0ADB7BEB7E7
:1029E000119688E0E4E4F6E001900D928A95E1F713
:1029F00000D000D000D000D0ADB7BEB7119688E0AF
:102A0000FE01B19601900D928A95E1F71F9222E0A6
:102A1000F22EFF921F921F920F930E945E030FB639
:102A2000F894DEBF0FBECDBF90913F06882369F0BA
:102A30008091410681FFF092400688E0ECE2F6E0EA
:102A400091FD67CFA7E3B6E044CF91FD62CF8091BF
:102A5000480690914906A0914A06B0914B06C09055
:102A60005106D0905206E0905306F09054064091E3
:102A70004406509145066091460670914706809045
:102A80004D0690904E06A0904F06B0905006481903
:102A900059096A097B09498B5A8B6B8B7C8B8C1982
:102AA0009D09AE09BF098D8B9E8BAF8BB88FCE0170
:102AB00041960E94990288E0FE017196DE0111960E
:102AC00001900D928A95E1F788E0FE013196DE01D2
:102AD000199601900D928A95E1F788E0FE013996EA
:102AE000B1CF81E024CF80E04BCD80E075CD90E088
:102AF00080E078CB81E090E075CB83E090E072CB12
:102B0000811102C010939B061F921F9280919E0616
:102B10008F9380919D068F931F9202E00F931F92D7
:102B20001F921F930E944D030FB6F894DEBF0FBE95
:102B3000CDBF882381F08091A10681FF44C08091A0
:102B4000A50681FF1092A4068091A30681FD65CBA6
:102B50001092A20662CB1F921F9380919E068F93C4
:102B600080919D068F931F920F931F921F921F9328
:102B70000E944D030FB6F894DEBF0FBECDBF81118A
:102B800025C01F920F9380919E068F9380919D0682
:102B90008F931F920F931F921F921F930E944D03BA
:102BA0000FB6F894DEBF0FBECDBF882321F280910F
:102BB000A50681FF1093A4068091A30681FD10C095
:102BC0001092A2060DC01093A006B9CF8091A30663
:102BD00081FF1093A2068091A50681FF1092A406A2
:102BE0008091A10681FD19CB1092A00616CB811110
:102BF00002C010937306809175069091760682301C
:102C0000910549F480917B0681FD47CB8091780640
:102C100080937A0642CB009739F480917B0681FD40
:102C20003CCB10927A0639CB019709F036CB8091D4
:102C30007B0681FD32CB10937A062FCBE091B20652
:102C4000F091B30680813BCB811102C010938706BF
:102C500080918C0681FD0BC080918906882321F02C
:102C600081E090918D06911180E080938B06809198
:102C70008E0681FD31CB8091890680938D062CCB09
:102C800090E080E03ECB4091FE065091FF066091BF
:102C90000007709101079D59A946BA438093020726
:102CA00090930307A0930407B09305074F5F5F4F0E
:102CB0006F4F7F4F4093FE065093FF0660930007CF
:102CC0007093010770CB8111F9CCDACC882309F419
:102CD00020CE06CEE1E3F5E01382128288EE93E087
:102CE000A0E0B0E084839583A683B78382E194E07B
:102CF0009183808385EC90E09587848784EC90E0D5
:102D00009787868780EC90E0918B808B81EC90E0B8
:102D1000938B828B82EC90E0958B848B86EC90E099
:102D2000978B868B118E128E138E148E0895002E23
:102D3000083090F0982F872F762F652F542F432F30
:102D4000322F22270850F4CF220F331F441F551F64
:102D5000661F771F881F991F0A95B2F7002D0895E7
:102D600097FD1094002E083098F00850232F342F30
:102D7000452F562F672F782F892F912DF4CF15943B
:102D800097958795779567955795479537952795A3
:102D90000A95AAF71124002D0895EE0FFF1F059044
:102DA000F491E02D09940F931F93CF93DF9382301A
:102DB000910510F482E090E0E0911E07F0911F076A
:102DC00030E020E0B0E0A0E0309799F42115310523
:102DD00009F44AC0281B390B24303105D8F58A8103
:102DE0009B816115710589F1FB0193838283FE014B
:102DF00011C0408151810281138148175907E0F0C9
:102E00004817590799F4109761F012960C9312978E
:102E100013961C933296CF01DF91CF911F910F91A2
:102E2000089500931E0710931F07F4CF2115310555
:102E300051F04217530738F0A901DB019A01BD0197
:102E4000DF01F801C1CFEF01F9CF90931F07809305
:102E50001E07CDCFFE01E20FF31F81939193225005
:102E6000310939832883D7CF20911C0730911D0762
:102E7000232B41F4209102013091030130931D076F
:102E800020931C072091000130910101211531058B
:102E900041F42DB73EB74091040150910501241B28
:102EA000350BE0911C07F0911D07E217F307A0F422
:102EB0002E1B3F0B2817390778F0AC014E5F5F4F90
:102EC0002417350748F04E0F5F1F50931D0740939E
:102ED0001C07819391939FCFF0E0E0E09CCFCF93CC
:102EE000DF930097E9F0FC01329713821282A091E0
:102EF0001E07B0911F07ED0130E020E01097A1F40C
:102F000020813181820F931F20911C0730911D0772
:102F10002817390709F061C0F0931D07E0931C07DB
:102F2000DF91CF910895EA01CE17DF07E8F54A81D6
:102F30005B819E0141155105B1F7E901FB83EA83ED
:102F400049915991C40FD51FEC17FD0761F4808199
:102F500091810296840F951FE9019983888382816C
:102F600093819B838A83F0E0E0E012968D919C919F
:102F700013970097B9F52D913C911197CD010296C9
:102F8000820F931F20911C0730911D0728173907C6
:102F900039F6309751F510921F0710921E07B09323
:102FA0001D07A0931C07BCCFD383C28340815181EE
:102FB000840F951FC817D90761F44E5F5F4F888152
:102FC0009981480F591F518340838A819B81938344
:102FD00082832115310509F0B0CFF0931F07E093EC
:102FE0001E079ECFFD01DC01C0CF13821282D7CF16
:102FF000FB01DC0102C001900D9241505040D8F716
:103000000895F894FFCF00002007800000C0C101A0
:10301000C30302C2C60607C705C5C404CC0C0DCD48
:103020000FCFCE0E0ACACB0BC90908C8D81819D9B8
:103030001BDBDA1A1EDEDF1FDD1D1CDC14D4D515E8
:10304000D71716D6D21213D311D1D010F03031F1D8
:1030500033F3F23236F6F737F53534F43CFCFD3D08
:10306000FF3F3EFEFA3A3BFB39F9F83828E8E929F8
:10307000EB2B2AEAEE2E2FEF2DEDEC2CE42425E5A8
:1030800027E7E62622E2E323E12120E0A06061A118
:1030900063A3A26266A6A767A56564A46CACAD6DC8
:1030A000AF6F6EAEAA6A6BAB69A9A86878B8B97938
:1030B000BB7B7ABABE7E7FBF7DBDBC7CB47475B568
:1030C00077B7B67672B2B373B17170B05090915158
:1030D0009353529296565797559594549C5C5D9D88
:1030E0005F9F9E5E5A9A9B5B995958988848498978
:1030F0004B8B8A4A4E8E8F4F8D4D4C8C4484854528
:1031000087474686824243834181804000C1814097
:1031100001C0804101C0804100C1814001C08041A7
:1031200000C1814000C1814001C0804101C0804197
:1031300000C1814000C1814001C0804100C1814087
:1031400001C0804101C0804100C1814001C0804177
:1031500000C1814000C1814001C0804100C1814067
:1031600001C0804101C0804100C1814000C1814057
:1031700001C0804101C0804100C1814001C0804147
:1031800000C1814000C1814001C0804101C0804137
:1031900000C1814000C1814001C0804100C1814027
:1031A00001C0804101C0804100C1814000C1814017
:1031B00001C0804101C0804100C1814001C0804107
:1031C00000C1814000C1814001C0804100C18140F7
:1031D00001C0804101C0804100C1814001C08041E7
:1031E00000C1814000C1814001C0804101C08041D7
:1031F00000C1814000C1814001C0804100C18140C7
:1032000001C0804101C0804100C18140DE050F0046
:10321000E0050F00E2050F00E4050A00F0050F00CD
:10322000F2050F00F4050F00F6050F00F8050F007A
:10323000FA050F00FC050A0005060F0007060A0044
:103240001006020012060F0014060A001D060A00EE
:1032500026060F0028060F002A060F002C060A007B
:1032600035060F0037060A004006020042060F002E
:1032700044060A004D060A0056060F0058060F00C5
:103280005A060F005F060F0064060F0066060F0067
:10329000680603006B060F006D060F006F060F0037
:1032A00071060F0073060F0078060F007A060F00F4
:1032B0007F060F0081060F0083060F0085060F00B2
:1032C00087060F0089060F008B060F008D060F0082
:1032D0008F060F0091060F0093060F0095060F0052
:1032E00097060F0099060F009B060F009D0603002E
:1032F000A0060F00A2060F00A4060F00A6063700C6
:10330000AA063700AE063700B2062300B606030051
:10331000B9060F0000000000DC013C016901290230
:103320009A0178018C010B0C0D3963613637303608
:10333000396364663564303436643932313762302B
:0A3340003235316631643038650023
:107E0000112484B714BE81FFF0D085E080938100F7
:107E100082E08093C00088E18093C10086E0809377
:107E2000C20080E18093C4008EE0C9D0259A86E02C
:107E300020E33CEF91E0309385002093840096BBD3
:107E4000B09BFECF1D9AA8958150A9F7CC24DD24C4
:107E500088248394B5E0AB2EA1E19A2EF3E0BF2EE7
:107E6000A2D0813461F49FD0082FAFD0023811F036
:107E7000013811F484E001C083E08DD089C08234E0
:107E800011F484E103C0853419F485E0A6D080C0E4
:107E9000853579F488D0E82EFF2485D0082F10E0AE
:107EA000102F00270E291F29000F111F8ED06801E7
:107EB0006FC0863521F484E090D080E0DECF843638
:107EC00009F040C070D06FD0082F6DD080E0C81688
:107ED00080E7D80618F4F601B7BEE895C0E0D1E017
:107EE00062D089930C17E1F7F0E0CF16F0E7DF06D8
:107EF00018F0F601B7BEE89568D007B600FCFDCFD4
:107F0000A601A0E0B1E02C9130E011968C91119780
:107F100090E0982F8827822B932B1296FA010C0160
:107F200087BEE89511244E5F5F4FF1E0A038BF0790
:107F300051F7F601A7BEE89507B600FCFDCF97BE46
:107F4000E89526C08437B1F42ED02DD0F82E2BD052
:107F50003CD0F601EF2C8F010F5F1F4F84911BD097
:107F6000EA94F801C1F70894C11CD11CFA94CF0C13
:107F7000D11C0EC0853739F428D08EE10CD085E9AC
:107F80000AD08FE07ACF813511F488E018D01DD067
:107F900080E101D065CF982F8091C00085FFFCCF94
:107FA0009093C60008958091C00087FFFCCF809118
:107FB000C00084FD01C0A8958091C6000895E0E648
:107FC000F0E098E1908380830895EDDF803219F02E
:107FD00088E0F5DFFFCF84E1DECF1F93182FE3DFCA
:107FE0001150E9F7F2DF1F91089580E0E8DFEE27F6
:047FF000FF270994CA
:027FFE00040479
:00000001FF
