:020000040000FA
:100000000C9462000C948A000C948A000C948A0070
:100010000C948A000C948A000C948A000C948A0038
:100020000C948A000C948A000C948A000C948A0028
:100030000C948A000C948A000C948A000C948A0018
:100040000C94500D0C948A000C94C00D0C949A0DD5
:100050000C948A000C948A000C948A000C948A00F8
:100060000C948A000C948A000000000024002700F1
:100070002A000000000023002600290000000000E4
:10008000250028002B0004040404040404040202D4
:100090000202020203030303030301020408102007
:1000A0004080010204081020010204081020000012
:1000B0000008000201000003040700000000000027
:1000C0000000E11611241FBECFEFD8E0DEBFCDBF88
:1000D00014E0A0E0B1E0E4EFF0E302C005900D927F
:1000E000A834B107D9F727E0A8E4B4E001C01D9215
:1000F000A932B207E1F710E0C2E6D0E004C02197D0
:10010000FE010E944417C136D107C9F70E94F20DC3
:100110000C9478180C940000FC0181E080838283A9
:100120001482168217821086118612861386148610
:1001300015861786118A128A138A148A158A168AD6
:10014000178A108E128E148E168E178E10A211A280
:1001500012A213A214A215A217A210A611A612A6EB
:1001600013A614A615A616A60895833081F028F4C8
:10017000813099F08230A9F008958730A9F0883055
:10018000C9F08430B1F4809180008F7D03C08091EC
:1001900080008F7780938000089584B58F7784BD29
:1001A000089584B58F7DFBCF8091B0008F778093C9
:1001B000B00008958091B0008F7DF9CF1F93CF9349
:1001C000DF93282F30E0F901E255FF4F8491F901C8
:1001D000E656FF4FD491F901EA57FF4FC491CC2363
:1001E000A9F0162F81110E94B500EC2FF0E0EE0F60
:1001F000FF1FE458FF4FA591B4918FB7F894EC918D
:10020000111108C0D095DE23DC938FBFDF91CF9111
:100210001F910895DE2BF8CF8230910538F0880FBA
:10022000991F880F991F05970197F1F708953FB718
:10023000F8948091210790912207A0912307B09113
:10024000240726B5A89B05C02F3F19F00196A11DD4
:10025000B11D3FBFBA2FA92F982F8827BC01CD0110
:10026000620F711D811D911D42E0660F771F881F6F
:10027000991F4A95D1F70895AF92BF92CF92DF921E
:10028000EF92FF920F931F93CF93DF936C017B014B
:100290008B01040F151FEB015E01AE18BF08C017DC
:1002A000D10759F06991D601ED91FC910190F0814F
:1002B000E02DC6010995892B79F7C501DF91CF9112
:1002C0001F910F91FF90EF90DF90CF90BF90AF9074
:1002D0000895FC01538D448D252F30E0842F90E04C
:1002E000821B930B541710F0CF9608950197089531
:1002F000FC01918D828D981761F0A28DAE0FBF2FFA
:10030000B11D5D968C91928D9F5F9F73928F90E04F
:1003100008958FEF9FEF0895FC01918D828D9817BE
:1003200031F0828DE80FF11D858D90E008958FEFFB
:100330009FEF0895FC01918D228D892F90E0805CC4
:100340009F4F821B91098F739927089585E395E04C
:100350000E949A0121E0892B09F420E0822F089560
:1003600080E090E0892B29F00E94A60181110C9475
:1003700000000895FC01A48DA80FB92FB11DA35A48
:10038000BF4F2C91848D90E001968F739927848FB5
:10039000A689B7892C93A089B1898C9183708064D8
:1003A0008C93938D848D981306C00288F389E02D79
:1003B00080818F7D80830895EF92FF920F931F932A
:1003C000CF93DF93EC0181E0888F9B8D8C8D981308
:1003D0001AC0E889F989808185FF15C09FB7F89414
:1003E000EE89FF896083E889F98980818370806460
:1003F00080839FBF81E090E0DF91CF911F910F91AB
:10040000FF90EF900895F62E0B8D10E00F5F1F4FB9
:100410000F731127E02E8C8D8E110CC00FB607FCC8
:10042000FACFE889F989808185FFF5CFCE010E9456
:10043000BA01F1CFEB8DEC0FFD2FF11DE35AFF4F09
:10044000F0829FB7F8940B8FEA89FB8980818062E4
:10045000CFCFCF93DF93EC01888D8823B9F0AA89A1
:10046000BB89E889F9898C9185FD03C0808186FD6F
:100470000DC00FB607FCF7CF8C9185FFF2CF8081BE
:1004800085FFEDCFCE010E94BA01E9CFDF91CF9178
:100490000895880F991F880F991FFC01EA5FFC4F90
:1004A000828193818A309105B9F040F482309105C0
:1004B00069F0039771F090E080E008958332910530
:1004C00029F08733910511F00F97A9F781E090E0AB
:1004D000089582E090E0089588E090E00895880F04
:1004E000991F880F991FFC01EA5FFC4F8081918161
:1004F000228133812A30310591F040F422503109B4
:100500002230310560F090E080E009C023323105EF
:1005100039F02733310521F02F303105A1F7089547
:10052000FC01228121FF02C0039608958081918100
:100530000895FC0184819581A681B7814081518114
:1005400062817381811526E3920725E6A20724ECD8
:10055000B2073CF014161506160617068CF4B7FF02
:100560000FC0415051096109710940835183628371
:1005700073839653A546B44C84839583A683B7832F
:1005800084819581A681B781408151816281738187
:1005900081302AEC92072AE9A2072BE3B2073CF448
:1005A00077FF14C0181619061A061B067CF44F5F55
:1005B0005F4F6F4F7F4F40835183628373839A5C99
:1005C000AA49BB4384839583A683B783089520916A
:1005D0004F04209530E0F901EA5FFD4F908190953E
:1005E0002A5F3E4FD9018C9140914D0450914E04A9
:1005F00042505109EFE4F4E031969F012F5434400A
:100600002417350770F420819227292F30E0D90173
:10061000AA5FBD4F9C9198272A5F3E4FD9018C91CC
:10062000EBCF089523E030E030934E0420934D0447
:10063000EFE4F4E0909122059083805881836283F7
:1006400008950F931F93582F577001E010E020E09A
:1006500030E004C0000F111F221F331F5A95D2F73C
:1006600023E0969587952A95E1F79927E0912C0547
:10067000F0912D05662321F0E0913205F0913305CC
:10068000E80FF91F8081442329F0082B00831F9174
:100690000F91089500950823F9CFCF93DF93CDB73D
:1006A000DEB72C853D858A859B852817390721F083
:1006B00080E0DF91CF91089581E0FBCFCF92DF9270
:1006C000EF92FF920F931F93CF93DF93CDB7DEB7D7
:1006D00088899989AA89BB894C895D896E897F89B6
:1006E000088D198D2A8D3B8DCC8CDD8CEE8CFF8C8A
:1006F00080179107A207B30759F44C195D096E09D9
:100700007F0914161506160617065CF081E00AC06C
:10071000801B910BA20BB30B181619061A061B06A9
:10072000ACF780E0DF91CF911F910F91FF90EF9098
:10073000DF90CF9008952F923F924F925F926F92E9
:100740007F928F929F92AF92BF92CF92DF92EF9261
:10075000FF920F931F93CF93DF93CDB7DEB7EB9745
:100760000FB6F894DEBF0FBECDBF10E000E0F80179
:10077000EE0FFF1FE953F94F0190F081E02D309704
:1007800049F041E08081811101C040E060E0C80192
:100790000E9421030F5F1F4F0032110541F702EE47
:1007A00014E01DAB0CABE0912305F09124059F01F3
:1007B000205C3F4FA801DA018D919D91AD0100971A
:1007C00029F0DC018D919C91918380833296E21710
:1007D000F30789F7E2EDEE2EE5E0FE2E10E000E0F3
:1007E000D701ED91FD917D01309749F041E0808185
:1007F000811101C040E061E0C8010E9421030F5F48
:100800001F4F0830110561F746ED54E0E0912F05C8
:10081000F09130059F01245F3F4FDA018D919D914A
:10082000AD01009729F0DC018D919C91918380832B
:1008300032962E173F0789F710924E0410924D04FE
:100840008091D4049091D504DC01ED91FC91008459
:10085000F185E02D0995892B09F483C08091D4049A
:100860009091D504DC01ED91FC910084F185E02D9F
:10087000099520914D0430914E04A091D404B0917B
:10088000D504ED91FC9111970084F185E02D281796
:10089000390768F4CD01099590934E0480934D0477
:1008A0008091D1049091D2040E940C01D7CFCD0148
:1008B0000995813891050CF054C08091D404909131
:1008C000D504DC01ED91FC910084F185E02D0995C2
:1008D00006970CF446C07FE4A72E74E0B72E75018E
:1008E00000914D0410914E04C7018F54944080171D
:1008F000910778F48091D4049091D504DC01ED91B6
:10090000FC910284F385E02D0995F70181937F0125
:10091000E7CFF09050048FEB8F0D853080F00E9470
:10092000E7029801215B3B4FF9013297408121504A
:100930003109D9012C91342F2817390791F490915E
:100940004F0480912205981709F464C08091D40463
:100950009091D504DC01ED91FC910680F781E02DAA
:10096000099540912C0550912D0530E020E0F901CA
:10097000EE0FFF1FE953F94FA081B181109799F055
:10098000F90183E0F695E7958A95E1F7E40FF51F05
:10099000808190E0622F677002C0959587956A9577
:1009A000E2F781708C932F5F3F4F20323105F9F6CB
:1009B000E0912305F0912405CF01805C9F4FACA905
:1009C000BDA94D915D91BDABACAB4115510529F071
:1009D00020813181DA012D933C9332968E179F0747
:1009E00071F7EB960FB6F894DEBF0FBECDBFDF9167
:1009F000CF911F910F91FF90EF90DF90CF90BF901C
:100A0000AF909F908F907F906F905F904F903F90AE
:100A10002F9008950250110910934E0400934D0435
:100A20002091510430915204322E232E0091530410
:100A300010915404102701271027D090530480915F
:100A4000550490E0BFE0FB1609F48DC5BF15E8F131
:100A5000E3E0FE1609F491C1EF1570F0F1E0FF1626
:100A600009F4FAC362E0C62EFC1409F483C461E001
:100A700070E08F2D90E026C055E0D52EFD1409F4CE
:100A800053C5FD1408F403C546E0E42EFE10EFCF75
:100A9000209125058091280590E0880F991F30E06E
:100AA000820F931F40912B05B4E04B9FA0011124AE
:100AB000480F591F2416350608F44FC062E070E055
:100AC00086E090E00E94120355C042E4F41609F457
:100AD000DAC64F15A8F060E1F61609F46CC281E49D
:100AE000F812C5CF84E090E090934E0480934D04BB
:100AF000F09250041092510483E4809352043AC05F
:100B000094E4F91609F439C6F91608F4D1C5A5E438
:100B1000FA12ADCF2D3ABEED3B0709F0AEC71092E9
:100B20004C0485E4809350048EE78093510481E265
:100B3000E7E2F4E0DE01119601900D928A95E1F76B
:100B4000FE013196A2E5B4E081919D012F5434401D
:100B5000882309F4A0C78D93F7CF22163306D8F463
:100B6000220C331CE0912305F0912405E20DF31DC6
:100B70001183008380914D0490914E040296813838
:100B8000910508F44EC58091500464E070E090E057
:100B90000E94120346C52816390608F040C0A80175
:100BA00070E060E0E0912605F091270520FC1CC074
:100BB000221A330A220C331C0CEF202203E03022CD
:100BC000E20DF31D80819181A281B381AA27BB2709
:100BD000BA0155274427842B952BA62BB72B80834E
:100BE0009183A283B383C6CF20953095220E331E06
:100BF000220C331C1CEF212213E03122E20DF31DE5
:100C0000008111812281338100271127042B152BAC
:100C1000262B372B0083118322833383ABCF9101A3
:100C2000237033274801B12CA12CC12CD12C760183
:100C3000E0912905F0912A052115310549F5281A79
:100C4000390A220C331C28EF222227E03222E20D3F
:100C5000F31D5080618072801381B481A58194015D
:100C600040E050E060E070E080E090E000E30E944F
:100C70000E17522A5082632A6182742A7282152BBF
:100C80001383B62BB483A72BA5838683978372CF58
:100C90002130310541F53FEF231A330A281A390A6A
:100CA000220C331C48EF242247E03422E20DF31DCE
:100CB0005080618072801381B681A7819401A50163
:100CC000B601C70100E20E940E17522A5082632A21
:100CD0006182742A7282152B1383648375838B2B34
:100CE00086839A2BD3CF2230310529F562E0260E78
:100CF000311C281A390A220C331C88EF282287E07D
:100D00003822E20DF31D5080618074801581B68118
:100D1000A7819401A501B601C70100E10E940E1749
:100D2000522A5082632A618242835383762A7482D4
:100D3000172B1583D4CFA3E02A0E311C281A390AA9
:100D4000220C331CB8EF2B22B7E03B22E20DF31D3F
:100D5000528143813481258196818781808291826D
:100D60005A2952834B2943833C2934832D292583D7
:100D70009E2996838F298783FDCEC801019763E062
:100D800070E08D37910548F54101800E911EE0908D
:100D90002505E0912805F0E0EE0FFF1FF12CEE0D88
:100DA000FF1D80912B0524E0829FC00111248E0F2E
:100DB0009F1F62E070E08816990678F4000F111FFB
:100DC0000D5F1F4F10934E0400934D04AFE4B4E049
:100DD0000138110528F064E070E083E090E072CE05
:100DE0001196CD018F5494408017910710F41C92F6
:100DF000F7CF83E080935004035000935104C090D8
:100E00002905D0902A056090260570902705A091AD
:100E10002305B0912405C101880F991F8D01080F8A
:100E2000191F1BAB0AAB83E090E02C014E1A5F0A3E
:100E3000D701A095B095BAA7A9A78214930409F485
:100E400099CEAAA9BBA92E143F04A0F12E163F06E5
:100E5000A8F520FC24C0C1018E199F09880F991F95
:100E60008C7F9370860D971DDC014D915D916D9186
:100E70007C91AB01662777279A01D50113963C93A5
:100E8000139714962C93B2E0AB0EB11CAAA9BBA980
:100E90001296BBABAAABBFEF2B1A3B0ACECF89A5EC
:100EA0009AA5820D931D880F991F8C7F9370860DD4
:100EB000971DDC012C9111963C91DFCF81010370CD
:100EC00011270115110519F581010E1B1F0B000FCC
:100ED000111F087F17700C0D1D1DD8012C91119644
:100EE0003C91119712964C91129713965C9113971F
:100EF00014966C91149715967C91159716968C9173
:100F0000169717969C9100E30E942917B6CF0130DF
:100F1000110511F50E1B1F0B020D131D000F111FE4
:100F2000087F17700C0D1D1DD8012C9111963C9156
:100F3000119712964C91129713965C9113971496F1
:100F40006C91149715967C91159716968C9116971F
:100F500017969C9100E2D8CF0230110511F50E1BB7
:100F60001F0B020D131D000F111F087F17700C0DB2
:100F70001D1DD8012C9111963C91119712964C9100
:100F8000129713965C91139714966C91149715967B
:100F90007C91159716968C91169717969C9100E167
:100FA000B3CFC201820D931D880F991F887F977060
:100FB0008C0D9D1D7ECF9801215031092B373105B5
:100FC00030F49801220F331F8217930729F063E052
:100FD00070E080E190E076CDF101E00FF11FFBAB16
:100FE000EAAB60902505A0912805B0E0AA0FBB1FD1
:100FF000712CA60DB71D80912B05F4E08F9FC001C9
:1010000011248A0F9B1FCAA8DBA8C816D90618F09E
:1010100062E070E0DECF86E090E090934E04809333
:101020004D04F092500430925104209252041092D8
:101030005304009354048090290590902A05409011
:10104000260550902705E0902305F0902405FFAA7F
:10105000EEAA83E090E0FC01EA1BFB0BF9AFE8AFDE
:101060006301C094D094DBAECAAEEAA8FBA82E14EC
:101070003F0409F4D6C2F50147818085542F482FDB
:101080002614370480F4F101EE0FFF1FCEA8DFA86D
:10109000EC0DFD1D518340833FEF231A330A42E0DC
:1010A000A40EB11CE2CF2A163B0680F570E060E08A
:1010B00020FC1BC0F101E619F709EE0FFF1FEC7FC2
:1010C000F370E40DF51D0081118122813381222707
:1010D0003327BA0155274427402B512B622B732B02
:1010E0004083518362837383D7CFEAADFBADE20DBA
:1010F000F31DEE0FFF1FEC7FF370E40DF51D008173
:1011000011812281338100271127E6CFF101E3709D
:10111000FF276A01F12CE12C00E010E09801C9A63C
:10112000DAA6EBA6FCA60DA71EA72FA738AB309713
:1011300059F5F101EA1BFB0BEE0FFF1FE87FF7707B
:10114000E80DF91DD080D9AAC180D280E380F48057
:10115000158129A53AA540E050E060E070E080E00C
:1011600090E000E30E940E1709A9202B20833C2960
:1011700031834D2942835E295383F62AF482172B4B
:1011800015838683978388CFE130F10559F5EA1BF3
:10119000FB0BE20DF31DEE0FFF1FE87FF770E80D6C
:1011A000F91D108119ABC180D280E380F6801781D0
:1011B00029A53AA540E050E060E070E080E090E0D2
:1011C00000E20E940E1709A9202B20833C293183BD
:1011D0004D294283E52AE382648375838F298683C0
:1011E000912BD0CFE230F10541F5EA1BFB0BE20D6C
:1011F000F31DEE0FFF1FE87FF770E80DF91D10815A
:1012000019ABC180D480E580F680178129A53AA565
:1012100040E050E060E070E080E090E000E10E949B
:101220000E1709A9202B20833C2931834283538345
:10123000D62AD482E72AE582D1CFE8ADF9ADE20D16
:10124000F31DEE0FFF1FE87FF770E80DF91D19A5DC
:1012500010832AA5218320CFC8010197803D9740A4
:1012600028F063E070E081E090E02CCC20912E0526
:10127000C101800F911F62E070E02817190698F3F2
:10128000C80123E0969587952A95E1F79C012D5F8B
:101290003F4F30934E0420934D049801277033271D
:1012A000232B29F0049690934E0480934D04809153
:1012B0004D0490914E04EFE4F4E08138910518F06C
:1012C00064E070E0D0CF31969F012F54344028174E
:1012D000390710F41082F7CF91E0909350048350B7
:1012E00080935104A0902C05B0902D0570E060E033
:1012F00020E0C12CD12C7601C39426013701022EA7
:1013000004C0440C551C661C771C0A94D2F7FB01E0
:1013100043E0F695E7954A95E1F7EE5AFB4F3081A9
:10132000A101A3E056954795AA95E1F74F7155277E
:101330004A0D5B1DDA014C9150E0B22DB77002C02E
:1013400055954795BA95E2F7842D40FF0FC0832B42
:1013500080832F5F283009F420E0EFEF2E1A3E0A39
:101360006F5F7F4F0617170741F604CC809538232F
:101370003083EFCFC801019763E070E0803D974074
:1013800060F520913405C101800F911F62E070E08B
:101390002817190610F1C80133E0969587953A95FC
:1013A000E1F79C012D5F3F4F30934E0420934D0495
:1013B000980127703327232B29F0049690934E042D
:1013C00080934D0480914D0490914E04EFE4F4E03D
:1013D0008138910528F064E070E082E090E072CB03
:1013E00031969F012F5434402817390710F410828A
:1013F000F7CF92E090935004835080935104609112
:1014000032057091330550E040E0B12CC12CD12C55
:101410007601C394260137010B2C04C0440C551CE3
:10142000661C771C0A94D2F7FA0183E0F695E795DB
:101430008A95E1F7EE5AFB4FA080910193E0369533
:1014400027959A95E1F7260F372F311DD9012C9159
:1014500030E0B22DB77002C035952795BA95E2F706
:10146000842D20FF10C08A298083B394E8E0BE1247
:1014700001C0B12CFFEF2F1A3F0A4F5F5F4F0417D7
:10148000150741F677CB8095A822A082EECFC80140
:10149000019763E070E08D379105C8F42091310524
:1014A000C101800F911F62E070E02817190678F0E3
:1014B000C801880F991F039690934E0480934D04A2
:1014C000EFE4F4E08138910528F064E070E084E016
:1014D00090E0F8CA31969F012F54344028173907FD
:1014E00010F41082F7CF94E09093500483508093CF
:1014F0005104220C331CE0912F05F0913005E20DD0
:10150000F31D0150110922E0A20EB11C0F3F10077C
:1015100009F430CB808191813296D50111969C934C
:10152000119712968C93EDCF0115BFEF1B0729F091
:1015300063E070E00115110549F480912E0581509A
:10154000990B8215930528F462E070E085E090E045
:10155000B9CA41E001151F4F09F040E060E0C10148
:101560000E94210307CBA801F3E056954795FA9511
:10157000E1F7242FB80167707727672B11F021E07E
:10158000240FA80141505109403B574018F4281737
:10159000190629F063E070E08FE090E093CA209193
:1015A0002E05C101800F911F2817190618F462E05B
:1015B00070E0F2CF86E090E090934E0480934D046B
:1015C0008FE0809350043092510420925204109383
:1015D000530400935404F12CE12CD12CF70173E057
:1015E000F695E7957A95E1F7E15BFB4F478150E08F
:1015F0000D2C02C0559547950A94E2F7417060E0C2
:10160000C1018E0D9F1D0E942103D394E8E0CE2ED0
:10161000DC1001C0D12C2FEFE21AF20A0E151F05C3
:10162000E9F600914D0410914E047801F2E0EF0EBE
:10163000F11CF0924E04E0924D040E94E702F80182
:10164000E15BFB4F908381838091D30487FD09C0C8
:1016500061E00E94DE008091CF049091D0040E944E
:101660000C018091D4049091D504DC01ED91FC91A2
:101670000280F381E02DA7016FE474E00995809169
:10168000D4049091D504DC01ED91FC910680F781A2
:10169000E02D09958091CF049091D0040E940C0117
:1016A0008091D30487FD5DC960E00E94DE0059C9C6
:1016B00033E42316310408F055C00334110508F053
:1016C00051C00215130508F44DC061016AE5A62E4C
:1016D00064E0B62E712C612CC6010E9449024C01B7
:1016E0007301E80EF91EC7010B9681389105C0F50C
:1016F000C6010E946F02A401BC01C5010E946F18BF
:10170000A80CB91CC6010196370116010817190764
:1017100028F5C701079690934E0480934D0483E407
:10172000809350048EE780935104109252042092CB
:10173000530480910F079091100720911107309169
:1017400012073093540420935504909356048093C9
:101750005704F0925804E09259040CCA6C01BCCFB3
:101760007301D7CF83E090E090934E0480934D04B3
:1017700083E48093500481E828C045E124163104B5
:10178000D8F4CE0101962C01FC01D12CC12C92E0A1
:10179000A90EB11C2C143D04D9F0D50112968C91E0
:1017A000129713969C918927982789278193919363
:1017B000BFEFCB1ADB0AEBCF83E090E090934E04AF
:1017C00080934D04F092500482E880935104D2C972
:1017D000B12CA12C19A6712C612C0BE010E0CA14BD
:1017E000DB0469F1F201E190F1902F01F3E4EF16CF
:1017F000F10440F083E090E090934E0480934D0418
:1018000084E4B7CFC7010E9449024C011801280E99
:10181000391E21E82216310490F4C7010E946F029C
:10182000A401BC01C801815B9B4F0E946F18680C2A
:10183000791C3FEFA31AB30AE9A68101D0CF109318
:101840004E0400934D0484E4809350048EE780930B
:10185000510410925204C9A4C092530480910F07FE
:101860009091100720911107309112073093540482
:101870002093550490935604809357047092580413
:101880006092590477C903E42016310450F4809122
:101890005404909155049827892798278A379105F1
:1018A00040F083E090E090934E0480934D0482E4F6
:1018B00060CF8101000F111F000F111FF801EA5FB7
:1018C000FC4FE280F38080914C048130E9F0F80114
:1018D000EA5FFC4F00811181D11036C0FAE0EF16AB
:1018E000F10409F4BAC008F0A5C032E0E316F1042F
:1018F00009F4BBC043E0E416F104C1F5D801129627
:101900008C9112978D7F8EC020E1E216F104F9F2DE
:10191000C1010E9449029C0136952795FC01E15BBB
:10192000FB4FAFE4B4E03197CD018F549440821760
:10193000930768F617968C911797978117969C9343
:10194000179787831196EFCFC1010E9449026C015E
:101950003AE0E316F10469F1A0F462E0E616F1045E
:1019600099F183E0E816F10409F45FC083E090E0A8
:1019700090934E0480934D0482E4809350048EE74C
:1019800024CF93E2E916F10409F440C0A7E3EA1674
:10199000F10441F1BFE0EB16F10441F7A60166E561
:1019A00074E0C8010E946F18F80181818260818310
:1019B000DDCFAC0166E574E0C8010E946F18F80144
:1019C000808582608087D2CFAC0166E574E0C80173
:1019D0000E946F18D80111968C9111978260119610
:1019E0008C93C4CFA60166E574E0D8018D919C91DB
:1019F0000E946F18A60166E574E0C80103960E9474
:101A00006F18F801828182608283B0CFA60166E5FB
:101A100074E0C80103960E946F18D80112968C9149
:101A20001297826012968C93A1CFA60166E574E0AE
:101A3000C801E5CF63E2E616F104D9F087E3E816C2
:101A4000F104B9F09FE0E916F10409F08FCFD80155
:101A500011968C9111978D7FC2CFD80118968C91D9
:101A600018978D7F18968C9381CFF80181818D7F97
:101A70009ECFF80182818D7FC7CF2E3D3D4A21F454
:101A800081E080934C044DC883E090E090934E0435
:101A900080934D0446C830934E0420934D046AC889
:101AA0001F920F920FB60F9211242F933F938F9393
:101AB0009F93AF93BF9380911D0790911E07A091B4
:101AC0001F07B091200730911C0723E0230F2D370B
:101AD00058F50196A11DB11D20931C0780931D0789
:101AE00090931E07A0931F07B093200780912107B2
:101AF00090912207A0912307B09124070196A11D80
:101B0000B11D8093210790932207A0932307B093E0
:101B10002407BF91AF919F918F913F912F910F908B
:101B20000FBE0F901F90189526E8230F0296A11D57
:101B3000B11DD2CF1F920F920FB60F9211242F9387
:101B40003F934F935F936F937F938F939F93AF9345
:101B5000BF93EF93FF9385E395E00E94BA01FF9155
:101B6000EF91BF91AF919F918F917F916F915F9115
:101B70004F913F912F910F900FBE0F901F9018958E
:101B80001F920F920FB60F9211242F938F939F9352
:101B9000EF93FF93E0914505F09146058081E09138
:101BA0004B05F0914C0582FD1BC0908180914E0544
:101BB0008F5F8F7320914F05821741F0E0914E05A2
:101BC000F0E0EB5CFA4F958F80934E05FF91EF911B
:101BD0009F918F912F910F900FBE0F901F9018958E
:101BE0008081F4CFCF93DF93CDB7DEB7C954D1094D
:101BF0000FB6F894DEBF0FBECDBF789484B5826077
:101C000084BD84B5816084BD85B5826085BD85B5A0
:101C1000816085BD80916E00816080936E0010921E
:101C20008100809181008260809381008091810099
:101C3000816080938100809180008160809380002A
:101C40008091B10084608093B1008091B000816088
:101C50008093B00080917A00846080937A008091B4
:101C60007A00826080937A0080917A00816080930C
:101C70007A0080917A00806880937A001092C10087
:101C800011E01093E2051093E4051092E60510921E
:101C9000E8051092E9051092EA051092EB05109202
:101CA000EC051092ED051092EE051092EF051092E2
:101CB000F2051092F1051092F4051092F6051092BB
:101CC000F8058AEF95E00E948C008AE296E00E9477
:101CD0008C0010925A0610925C0610925E061092CA
:101CE00061061092600610926306109266061092CA
:101CF00065061093680610936A0610926D0610929E
:101D00006C0610926F061092710610927306109373
:101D100075061093770610927A0610927906109243
:101D20007C0610927E061092810610928006109218
:101D300083061092850610928706109389061093E9
:101D40008B0610928D0610928F061092910680914C
:101D500092068460809392061093930610939506E2
:101D6000109297061092990610939B0610939D0669
:101D700010939F061092A2061092A1061092A4063C
:101D80001092A6061092A8066BE474E07093AB065E
:101D90006093AA0610924B044AE454E05093AF06B5
:101DA0004093AE0610924A0429E434E03093B3061F
:101DB0002093B2061092490488E494E09093B70609
:101DC0008093B606109248041092BB061092BA0691
:101DD0001092BD061092C0061092BF061092C20665
:101DE0001092C5061092C4067093CA066093C90685
:101DF0005093C8064093C7063093CC062093CB0679
:101E00009093D3058093D205ECE9F0E02491B8E8F3
:101E10002B2EB0E03B2EF10184918823C9F090E095
:101E2000880F991FFC01E859FF4FA591B491FC015F
:101E3000E458FF4F459154913FB7F8949C91822FFD
:101E4000809598239C93DA019C9189238C933FBFC2
:101E500027E234E0A4E2B4E08D9190E0FC01E65684
:101E6000FF4F44918A579F4FFC0184918823A1F032
:101E700090E0880F991FFC01E859FF4F659174911C
:101E8000FC01E458FF4F859194918FB7F894FB01C2
:101E90009081492B40838FBF2A173B07E9F6E091D9
:101EA0004505F091460582E08083E0914105F0917F
:101EB00042051082E0914305F091440580E1808362
:101EC00010924D05E0914905F0914A0596E0908306
:101ED000E0914705F0914805808180618083E09121
:101EE0004705F0914805808188608083E09147052F
:101EF000F0914805808180688083E0914705F091EA
:101F0000480580818F7D808325E335E03093D504BB
:101F10002093D4048FEF8093D3042EEE32E03093DD
:101F2000D2042093D10421E43AE03093D0042093EA
:101F3000CF0481E08093220580E2809325051092F2
:101F4000280510922B0580932E059093310588E08B
:101F50008093340584E090E00E944A1790932D0509
:101F600080932C05009779F124E0DC011D922A95DD
:101F7000E9F780E490E00E944A179093240580934B
:101F80002305009701F120E4FC0111922A95E9F75D
:101F900081E090E00E944A179093330580933205C8
:101FA000009789F0DC011C928CE090E00E944A17B7
:101FB0009093300580932F05009729F02CE0FC01C9
:101FC00011922A95E9F710E000E0C801880F991FE7
:101FD0009C012953394F7901D9018D919C91892B0D
:101FE00049F481E090E00E944A17F70191838083D1
:101FF000DC011C920F5F1F4F0032110531F7209159
:10200000230530912405E2EEF4E090E080E0419178
:102010005191452B39F4DF011297A901480F591F3F
:102020004D935C9302968034910589F702ED15E09B
:1020300072EEE72E75E0F72EF801819191918F01F4
:10204000892B51F481E090E00E944A17F801329701
:1020500091838083DC011C92E016F10669F74091C0
:102060002F0550913005E6EDF4E090E080E02191FD
:102070003191232B49F4DF0112979C01220F331F6A
:10208000240F351F2D933C9301968630910579F7E7
:1020900080E29EE4A0E0B0E08093140790931507DF
:1020A000A0931607B09317070E94170160931807B3
:1020B0007093190780931A0790931B0735E0432EFE
:1020C000512C612C712C11E002E00E941701C0908C
:1020D0001807D0901907E0901A07F0901B076C19A9
:1020E0007D098E099F09C0901407D0901507E090D4
:1020F0001607F09017076C157D058E059F0508F4EF
:10210000D8C18091D2059091D305892BF9F0E0EBED
:10211000F0E08491ECE9F0E0E490F101F490FF202C
:1021200079F081110E94B500EF2DF0E0EE0FFF1F56
:10213000EE58FF4FA591B4918C91E82281E009F40B
:1021400080E0E091D205F091D305808380910F0764
:1021500090911007A0911107B09112070196A11D4F
:10216000B11D80930F0790931007A0931107B093B0
:1021700012078091E70581FD04C08091830680935A
:10218000E6058091F00581FD10C04092E80550926F
:10219000E9056092EA057092EB051092EC05109249
:1021A000ED051092EE051092EF058091F30581FD8B
:1021B00008C080918006909181069093F2058093EB
:1021C000F1058091E50582709091E205911193C12E
:1021D000811102C01092E4058091820681FD08C041
:1021E0008091F1059091F20590938106809380068D
:1021F0008091BC0681FD14C08091F1059091F2059B
:10220000009709F4C6C48130910509F4C5C402974A
:1022100009F0C5C482E090E09093BB068093BA06B3
:102220008091A30681FD08C08091BA069091BB06FB
:102230009093A2068093A1068091A006827090914F
:102240009D069111AFC4811102C010929F0680912A
:10225000AC0681FD07C0E091AA06F091AB06809123
:10226000A40680838091B00681FD07C0E091AE0690
:10227000F091AF068091A60680838091B40681FD1F
:1022800007C0E091B206F091B3068091A806808362
:1022900080917B0681FD08C08091F1059091F20547
:1022A00090937A068093790680917D0681FD04C023
:1022B0008091850680937C0680917806827090914B
:1022C00075069111E5C4811102C0109277068091C4
:1022D000880681FD04C080917E06809387068091E8
:1022E0008E0681FD08C08091B80681FFF8C48091F8
:1022F000B90680938D0680918C0682709091890634
:102300009111F3C4811102C010928B068091C10615
:10231000282F227081FD0FC080918F06811101C589
:1023200090E080E03091BE0631FF2093BD0690938F
:10233000C0068093BF068091980681FD08C08091F9
:10234000B80681FFF2C48091B90680939706809108
:1023500096068270909193069111EDC4811102C08E
:10236000109295068091C60681FD10C08091C3062B
:1023700081FD08C081E090919906911101C080E033
:102380008093C2061092C5061092C4068091BD06C5
:10239000882361F08091820681FD08C08091BF068C
:1023A0009091C00690938106809380068091C2062A
:1023B000882361F08091820681FD08C08091C40667
:1023C0009091C506909381068093800687ECE82E55
:1023D00086E0F82E94E2C92E94E0D92ED701ED9133
:1023E000FD917D01309729F06081F60180810E9486
:1023F000DE00FFEFCF1ADF0A2DEC36E02E153F0589
:1024000069F780910B0790910C07A0910D07B0918F
:102410000E07AC01BD01535D6E4C7E4F41153AEC89
:1024200053073AE963073BE3730708F0A3C44093FB
:102430000B0750930C0760930D0770930E070E94D3
:102440009B0380911307811118C0109313070E94FA
:102450001701C0901407D0901507E0901607F09070
:1024600017076C197D098E099F09609318077093EF
:10247000190780931A0790931B0780911807909172
:102480001907A0911A07B0911B07409114075091AA
:1024900015076091160770911707840F951FA61FE7
:1024A000B71F8093180790931907A0931A07B0934A
:1024B0001B070E941701C0901807D0901907E090E1
:1024C0001A07F0901B076C197D098E099F0960316E
:1024D00077428105910510F00E949B03E0E0F0E057
:1024E000EF2B09F4F2CD0E94A601882309F4EBCD6D
:1024F0000E940000E8CD811102C01093E405809194
:102500005D0681FD10C081E02091F1053091F2055A
:102510002230310509F080E090915B0691FF109325
:102520005A0680935C0680915A06882341F0809178
:10253000F50581FD04C080915C068093F4058091CF
:10254000F90581FD0FC08091F605811108C08091C9
:10255000E605882321F081E09091F405911180E057
:102560008093F8058091FF0581FD04C08091F805F6
:102570008093FE058091080681FD09C088E0E8EEA1
:10258000F5E0A0E0B6E001900D928A95E1F7809128
:10259000FD0582709091FA05911181C0811102C0F0
:1025A0001092FC0580912F0681FD04C080910906E0
:1025B00080932E068091380681FD09C088E0E8EE00
:1025C000F5E0A0E3B6E001900D928A95E1F78091E5
:1025D0002D06827090912A0691119CC1811102C032
:1025E00010922C068091F70581FD04C08091390678
:1025F0008093F6058091620681FD19C08091F405F3
:102600008111C5C281E09091F805911101C080E06F
:1026100021E030E0811102C030E020E090915F06BF
:1026200091FF80935E06309361062093600680914F
:102630005E06882361F08091F30581FD08C08091DA
:102640006006909161069093F2058093F105809168
:10265000670681FD12C08091F405811104C081E0FC
:102660009091F805911180E09091640691FF80931C
:1026700063061092660610926506809163068823B1
:1026800009F4AACD8091F30581FDA6CD8091650660
:10269000909166069093F2058093F1059DCD81118E
:1026A00002C01093FC058091200681FD09C088E0DE
:1026B000E7E0F7E0A8E1B6E001900D928A95E1F736
:1026C000F09114062A96FFAF2A978091FE05F1112A
:1026D0001EC09091160691116DC38823D1F0809190
:1026E000150681FF1093140680910A0681FF10924F
:1026F00009068091290681FD2AC088E0E8E1F6E01C
:10270000A1E2B6E001900D928A95E1F720C0811117
:1027100027C08091130681FD10C010920B06109205
:102720000C0610920D0610920E0610920F061092D3
:102730001006109211061092120680910A0681FF6F
:10274000109209068091150681FF1092140680915F
:10275000170681FD27CF8091FE058093160622CFB4
:102760002A962FAD2A97213091F7809125069091D6
:102770002606A0912706B091280680900406909026
:102780000506A0900606B0900706409100065091FD
:1027900001066091020670910306C0902106D09058
:1027A0002206E0902306F09024064C0D5D1D6E1D60
:1027B0007F1D498B5A8B6B8B7C8B880D991DAA1DB5
:1027C000BB1D8D8B9E8BAF8BB88FCE0141960E9427
:1027D000990288E0FE017196DE01D99601900D9272
:1027E0008A95E1F788E0FE01F996DE01AF5BBF4F05
:1027F00001900D928A95E1F700D000D000D000D072
:10280000ADB7BEB7119688E0E8E1F6E001900D9211
:102810008A95E1F700D000D000D000D0ADB7BEB7A8
:10282000119688E0FE01EF5BFF4F01900D928A95B3
:10283000E1F71F920F931F921F922A963FAD2A979E
:102840003F930E945E030FB6F894DEBF0FBECDBF6C
:1028500090911306882391F08091150681FF0093D3
:10286000140680910A0681FF1093090688E0E0E0D3
:10287000F6E091FD6CCFABE0B6E044CF91FD67CFC1
:1028800080911C0690911D06A0911E06B0911F0616
:10289000C0902506D0902606E0902706F0902806E6
:1028A000409118065091190660911A0670911B0606
:1028B0008090210690902206A0902306B0902406D6
:1028C000481959096A097B09498B5A8B6B8B7C8B98
:1028D0008C199D09AE09BF098D8B9E8BAF8BB88F6C
:1028E000CE0141960E94990288E0FE017196DE01B8
:1028F000999601900D928A95E1F788E0FE01B996CC
:10290000DE01D19601900D928A95E1F788E0FE01F3
:10291000F196B1CF811102C010932C068091500620
:1029200081FD09C088E0E7E0F7E0A8E4B6E00190A7
:102930000D928A95E1F7B09144062A96BFAF2A9787
:1029400080912E06B1111AC090914606992309F480
:1029500034C2811115C08091450681FF1093440651
:102960008091590681FD25C088E0E8E4F6E0A1E504
:10297000B6E001900D928A95E1F71BC0882391F192
:102980008091430681FD10C010923B0610923C06D8
:1029900010923D0610923E0610923F06109240069D
:1029A00010924106109242068091450681FF1092D6
:1029B000440680913A0681FD0CC080912E0681115B
:1029C000E4C081E090914406913009F080E080936A
:1029D00039068091470681FD05CE80912E068093B1
:1029E000460600CE2A96EFAD2A97E13011F7809087
:1029F000550690905606A0905706B09058068091C4
:102A0000340690913506A0913606B0913706409174
:102A10003006509131066091320670913306C090B5
:102A20005106D0905206E0905306F09054064C0D9B
:102A30005D1D6E1D7F1D498B5A8B6B8B7C8B880DAA
:102A4000991DAA1DBB1D8D8B9E8BAF8BB88FCE01A0
:102A500041960E94990288E0FE017196DE01599626
:102A600001900D928A95E1F788E0FE017996DE01EA
:102A7000919601900D928A95E1F700D000D000D098
:102A800000D0ADB7BEB7119688E0E8E4F6E001905B
:102A90000D928A95E1F700D000D000D000D0ADB7FC
:102AA000BEB7119688E0FE01B19601900D928A950D
:102AB000E1F71F920F931F921F922A96FFAD2A975C
:102AC000FF930E945E030FB6F894DEBF0FBECDBF2A
:102AD00090914306882369F08091450681FF009319
:102AE000440688E0E0E3F6E091FD63CFABE3B6E0B7
:102AF00040CF91FD5ECF80914C0690914D06A09104
:102B00004E06B0914F06C0905506D0905606E09004
:102B10005706F0905806409148065091490660913A
:102B20004A0670914B068090510690905206A090F4
:102B30005306B0905406481959096A097B09498B14
:102B40005A8B6B8B7C8B8C199D09AE09BF098D8BC1
:102B50009E8BAF8BB88FCE0141960E94990288E080
:102B6000FE017196DE01119601900D928A95E1F7B2
:102B700088E0FE013196DE01199601900D928A954A
:102B8000E1F788E0FE013996B1CF81E020CF80E007
:102B900043CD90E080E040CB81E090E03DCB83E00E
:102BA00090E03ACB811102C010939F061F921F92B2
:102BB0008091A2068F938091A1068F931F920F930D
:102BC0001F921F921F930E944D030FB6F894DEBF11
:102BD0000FBECDBF882381F08091A50681FF44C040
:102BE0008091A90681FF1092A8068091A70681FD19
:102BF0002ECB1092A6062BCB1F921F938091A2067C
:102C00008F938091A1068F931F920F931F921F9213
:102C10001F930E944D030FB6F894DEBF0FBECDBFC9
:102C2000811125C01F920F938091A2068F938091EE
:102C3000A1068F931F920F931F921F921F930E94C2
:102C40004D030FB6F894DEBF0FBECDBF882321F22F
:102C50008091A90681FF1093A8068091A70681FDA7
:102C600010C01092A6060DC01093A406B9CF809193
:102C7000A70681FF1093A6068091A90681FF1092F6
:102C8000A8068091A50681FDE2CA1092A406DFCABB
:102C9000811102C0109377068091790690917A068F
:102CA0008230910549F480917F0681FD10CB80919F
:102CB0007C0680937E060BCB009739F480917F06CB
:102CC00081FD05CB10927E0602CB019709F0FFCA69
:102CD00080917F0681FDFBCA10937E06F8CAE091C1
:102CE000B606F091B706808104CB811102C0109323
:102CF0008B068091900681FD0BC080918D06882304
:102D000021F081E090919106911180E080938F06EF
:102D10008091920681FDFACA80918D06809391067A
:102D2000F5CA21E082E090E0FDCAE091B606F0919C
:102D3000B70680810ACB811102C01093950680915D
:102D40009A0681FD0BC080919706811104C081E035
:102D500090919B06911180E08093990680919C064A
:102D600081FD00CB81E090919706911180E08093E6
:102D70009B06F8CA40910707509108076091090720
:102D800070910A079D59A946BA4380930B07909307
:102D90000C07A0930D07B0930E074F5F5F4F6F4F67
:102DA0007F4F40930707509308076093090770937C
:102DB0000A0745CB8111CBCCACCC882309F4F9CDE3
:102DC000DFCDE5E3F5E01382128288EE93E0A0E028
:102DD000B0E084839583A683B78386E194E09183F2
:102DE000808385EC90E09587848784EC90E09787DA
:102DF000868780EC90E0918B808B81EC90E0938BC8
:102E0000828B82EC90E0958B848B86EC90E0978BA4
:102E1000868B118E128E138E148E0895002E08301C
:102E200090F0982F872F762F652F542F432F322F16
:102E300022270850F4CF220F331F441F551F661F4F
:102E4000771F881F991F0A95B2F7002D089597FDE7
:102E50001094002E083098F00850232F342F452F5F
:102E6000562F672F782F892F912DF4CF1594979592
:102E700087957795679557954795379527950A953F
:102E8000AAF71124002D0895EE0FFF1F0590F4916D
:102E9000E02D09940F931F93CF93DF938230910518
:102EA00010F482E090E0E0912707F091280730E0ED
:102EB00020E0B0E0A0E0309799F42115310509F445
:102EC0004AC0281B390B24303105D8F58A819B81F3
:102ED0006115710589F1FB0193838283FE0111C0A5
:102EE000408151810281138148175907E0F048174A
:102EF000590799F4109761F012960C931297139654
:102F00001C933296CF01DF91CF911F910F910895BD
:102F10000093270710932807F4CF2115310551F0AE
:102F20004217530738F0A901DB019A01BD01DF0107
:102F3000F801C1CFEF01F9CF9093280780932707BD
:102F4000CDCFFE01E20FF31F8193919322503109FF
:102F500039832883D7CF2091250730912607232B4B
:102F600041F4209102013091030130932607209310
:102F7000250720910001309101012115310541F40F
:102F80002DB73EB74091040150910501241B350B2C
:102F9000E0912507F0912607E217F307A0F42E1B16
:102FA0003F0B2817390778F0AC014E5F5F4F2417AD
:102FB000350748F04E0F5F1F5093260740932507B3
:102FC000819391939FCFF0E0E0E09CCFCF93DF938C
:102FD0000097E9F0FC01329713821282A091270733
:102FE000B0912807ED0130E020E01097A1F4208196
:102FF0003181820F931F20912507309126072817D2
:10300000390709F061C0F0932607E0932507DF91A7
:10301000CF910895EA01CE17DF07E8F54A815B8179
:103020009E0141155105B1F7E901FB83EA834991FE
:103030005991C40FD51FEC17FD0761F48081918170
:103040000296840F951FE901998388838281938179
:103050009B838A83F0E0E0E012968D919C91139718
:103060000097B9F52D913C911197CD010296820FF1
:10307000931F20912507309126072817390739F625
:10308000309751F51092280710922707B093260722
:10309000A0932507BCCFD383C28340815181840F85
:1030A000951FC817D90761F44E5F5F4F88819981DA
:1030B000480F591F518340838A819B819383828368
:1030C0002115310509F0B0CFF0932807E0932707C9
:1030D0009ECFFD01DC01C0CF13821282D7CFFB014E
:1030E000DC0102C001900D9241505040D8F7089584
:1030F000F894FFCF00002907800000C0C101C3037E
:1031000002C2C60607C705C5C404CC0C0DCD0FCF3F
:10311000CE0E0ACACB0BC90908C8D81819D91BDBAF
:10312000DA1A1EDEDF1FDD1D1CDC14D4D515D717FF
:1031300016D6D21213D311D1D010F03031F133F3AF
:10314000F23236F6F737F53534F43CFCFD3DFF3FFF
:103150003EFEFA3A3BFB39F9F83828E8E929EB2B2F
:103160002AEAEE2E2FEF2DEDEC2CE42425E527E7BF
:10317000E62622E2E323E12120E0A06061A163A32F
:10318000A26266A6A767A56564A46CACAD6DAF6FBF
:103190006EAEAA6A6BAB69A9A86878B8B979BB7B2F
:1031A0007ABABE7E7FBF7DBDBC7CB47475B577B77F
:1031B000B67672B2B373B17170B0509091519353AF
:1031C000529296565797559594549C5C5D9D5F9F7F
:1031D0009E5E5A9A9B5B99595898884849894B8BAF
:1031E0008A4A4E8E8F4F8D4D4C8C4484854587473F
:1031F0004686824243834181804000C1814001C0B4
:10320000804101C0804100C1814001C0804100C1B6
:10321000814000C1814001C0804101C0804100C1A6
:10322000814000C1814001C0804100C1814001C096
:10323000804101C0804100C1814001C0804100C186
:10324000814000C1814001C0804100C1814001C076
:10325000804101C0804100C1814000C1814001C066
:10326000804101C0804100C1814001C0804100C156
:10327000814000C1814001C0804101C0804100C146
:10328000814000C1814001C0804100C1814001C036
:10329000804101C0804100C1814000C1814001C026
:1032A000804101C0804100C1814001C0804100C116
:1032B000814000C1814001C0804100C1814001C006
:1032C000804101C0804100C1814001C0804100C1F6
:1032D000814000C1814001C0804101C0804100C1E6
:1032E000814000C1814001C0804100C1814001C0D6
:1032F000804101C0804100C18140E2050F00E4052A
:103300000F00E6050F00E8050A00F4050F00F605BA
:103310000F00F8050F00FA050F00FC050F00FE0571
:103320000F0000060A0009060F000B060A0014062B
:10333000020016060F0018060A0021060A002A06D7
:103340000F002C060F002E060F0030060A0039066B
:103350000F003B060A004406020046060F0048061E
:103360000A0051060A005A060F005C060F005E06AE
:103370000F0063060F0068060F006A060F006C0658
:1033800003006F060F0071060F0073060F0075062D
:103390000F0077060F007C060F007E060F008306E5
:1033A0000F0085060F0087060F0089060F008B06A9
:1033B0000F008D060F008F060F0091060F00930679
:1033C0000F0095060F0097060F0099060F009B0649
:1033D0000F009D060F009F060F00A1060300A40624
:1033E0000F00A6060F00A8060F00AA063700AE06BB
:1033F0003700B2063700B6062300BA060300BD0642
:103400000F00C2060F0000000000DC013C01690152
:1034100029029A0178018C010B0C0D353839623282
:103420006136396132333230636632363735383996
:0C34300030396463356566333265350061
:107E0000112484B714BE81FFF0D085E080938100F7
:107E100082E08093C00088E18093C10086E0809377
:107E2000C20080E18093C4008EE0C9D0259A86E02C
:107E300020E33CEF91E0309385002093840096BBD3
:107E4000B09BFECF1D9AA8958150A9F7CC24DD24C4
:107E500088248394B5E0AB2EA1E19A2EF3E0BF2EE7
:107E6000A2D0813461F49FD0082FAFD0023811F036
:107E7000013811F484E001C083E08DD089C08234E0
:107E800011F484E103C0853419F485E0A6D080C0E4
:107E9000853579F488D0E82EFF2485D0082F10E0AE
:107EA000102F00270E291F29000F111F8ED06801E7
:107EB0006FC0863521F484E090D080E0DECF843638
:107EC00009F040C070D06FD0082F6DD080E0C81688
:107ED00080E7D80618F4F601B7BEE895C0E0D1E017
:107EE00062D089930C17E1F7F0E0CF16F0E7DF06D8
:107EF00018F0F601B7BEE89568D007B600FCFDCFD4
:107F0000A601A0E0B1E02C9130E011968C91119780
:107F100090E0982F8827822B932B1296FA010C0160
:107F200087BEE89511244E5F5F4FF1E0A038BF0790
:107F300051F7F601A7BEE89507B600FCFDCF97BE46
:107F4000E89526C08437B1F42ED02DD0F82E2BD052
:107F50003CD0F601EF2C8F010F5F1F4F84911BD097
:107F6000EA94F801C1F70894C11CD11CFA94CF0C13
:107F7000D11C0EC0853739F428D08EE10CD085E9AC
:107F80000AD08FE07ACF813511F488E018D01DD067
:107F900080E101D065CF982F8091C00085FFFCCF94
:107FA0009093C60008958091C00087FFFCCF809118
:107FB000C00084FD01C0A8958091C6000895E0E648
:107FC000F0E098E1908380830895EDDF803219F02E
:107FD00088E0F5DFFFCF84E1DECF1F93182FE3DFCA
:107FE0001150E9F7F2DF1F91089580E0E8DFEE27F6
:047FF000FF270994CA
:027FFE00040479
:00000001FF
