:020000040000FA
:100000000C9462000C948A000C948A000C948A0070
:100010000C948A000C948A000C948A000C948A0038
:100020000C948A000C948A000C948A000C948A0028
:100030000C948A000C948A000C948A000C948A0018
:100040000C94F40B0C948A000C94640C0C943E0CED
:100050000C948A000C948A000C948A000C948A00F8
:100060000C948A000C948A000000000024002700F1
:100070002A000000000023002600290000000000E4
:10008000250028002B0004040404040404040202D4
:100090000202020203030303030301020408102007
:1000A0004080010204081020010204081020000012
:1000B0000008000201000003040700000000000027
:1000C0000000830F11241FBECFEFD8E0DEBFCDBFED
:1000D00013E0A0E0B1E0E8E3F2E202C005900D9287
:1000E000A834B107D9F725E0A8E4B3E001C01D9218
:1000F000AF34B207E1F710E0C2E6D0E004C02197C8
:10010000FE010E94E60FC136D107C9F70E94960C86
:100110000C941A110C940000833081F028F4813083
:1001200099F08230A9F008958730A9F08830C9F09D
:100130008430B1F4809180008F7D03C08091800075
:100140008F7780938000089584B58F7784BD08955C
:1001500084B58F7DFBCF8091B0008F778093B00006
:1001600008958091B0008F7DF9CF1F93CF93DF93D7
:10017000282F30E0F901E255FF4F8491F901E6564E
:10018000FF4FD491F901EA57FF4FC491CC23A9F056
:10019000162F81110E948C00EC2FF0E0EE0FFF1F54
:1001A000E458FF4FA591B4918FB7F894EC911111D9
:1001B00008C0D095DE23DC938FBFDF91CF911F91D4
:1001C0000895DE2BF8CF8230910538F0880F991F03
:1001D000880F991F05970197F1F708953FB7F89495
:1001E0008091470590914805A0914905B0914A0535
:1001F00026B5A89B05C02F3F19F00196A11DB11D82
:100200003FBFBA2FA92F982F8827BC01CD01620FBD
:10021000711D811D911D42E0660F771F881F991F78
:100220004A95D1F70895AF92BF92CF92DF92EF92A5
:10023000FF920F931F93CF93DF936C017B018B0190
:10024000040F151FEB015E01AE18BF08C017D107E0
:1002500059F06991D601ED91FC910190F081E02D6A
:10026000C6010995892B79F7C501DF91CF911F91BF
:100270000F91FF90EF90DF90CF90BF90AF900895D7
:10028000FC01538D448D252F30E0842F90E0821B9C
:10029000930B541710F0CF96089501970895FC0121
:1002A000918D828D981761F0A28DAE0FBF2FB11D79
:1002B0005D968C91928D9F5F9F73928F90E00895D1
:1002C0008FEF9FEF0895FC01918D828D981731F08B
:1002D000828DE80FF11D858D90E008958FEF9FEFDF
:1002E0000895FC01918D228D892F90E0805C9F4FB5
:1002F000821B91098F739927089584E394E00E94EB
:10030000710121E0892B09F420E0822F089580E01B
:1003100090E0892B29F00E947D0181110C9400004E
:100320000895FC01A48DA80FB92FB11DA35ABF4F8A
:100330002C91848D90E001968F739927848FA689E4
:10034000B7892C93A089B1898C91837080648C9338
:10035000938D848D981306C00288F389E02D8081E7
:100360008F7D80830895EF92FF920F931F93CF9319
:10037000DF93EC0181E0888F9B8D8C8D98131AC0E0
:10038000E889F989808185FF15C09FB7F894EE89C7
:10039000FF896083E889F989808183708064808324
:1003A0009FBF81E090E0DF91CF911F910F91FF906F
:1003B000EF900895F62E0B8D10E00F5F1F4F0F7317
:1003C0001127E02E8C8D8E110CC00FB607FCFACFD2
:1003D000E889F989808185FFF5CFCE010E949101DE
:1003E000F1CFEB8DEC0FFD2FF11DE35AFF4FF082A3
:1003F0009FB7F8940B8FEA89FB8980818062CFCF09
:10040000CF93DF93EC01888D8823B9F0AA89BB894B
:10041000E889F9898C9185FD03C0808186FD0DC036
:100420000FB607FCF7CF8C9185FFF2CF808185FF57
:10043000EDCFCE010E949101E9CFDF91CF910895D8
:10044000880F991F880F991FDC01AA5FBC4FED919F
:10045000FC91119712968D919C918332910511F028
:10046000C79749F4828181FF03C0CF0103960895A5
:1004700080819181089590E080E0089520914E035D
:10048000209530E0F901EA5FFD4F908190952A5F59
:100490003E4FD9018C9140914C0350914D034250F5
:1004A0005109EEE4F3E031969F012E5433402417B6
:1004B000350770F420819227292F30E0D901AA5FF7
:1004C000BD4F9C9198272A5F3E4FD9018C91EBCF6D
:1004D000089523E030E030934D0320934C03EEE485
:1004E000F3E0909121049083805881836283089582
:1004F0000F931F93582F577001E010E020E030E079
:1005000004C0000F111F221F331F5A95D2F723E09A
:10051000969587952A95E1F79927E0912B04F0911C
:100520002C04662321F0E0913104F0913204E80FAD
:10053000F91F8081442329F0082B00831F910F911C
:10054000089500950823F9CF2F923F924F925F9222
:100550006F927F928F929F92AF92BF92CF92DF92D3
:10056000EF92FF920F931F93CF93DF93CDB7DEB738
:10057000EC970FB6F894DEBF0FBECDBF10E000E0E1
:10058000F801EE0FFF1FE351FB4F0190F081E02DCA
:10059000309749F041E08081811101C040E060E086
:1005A000C8010E9478020F5F1F4F0032110541F70A
:1005B00001EE13E01EAB0DABE0912204F091230499
:1005C0009F01205C3F4FA801DA018D919D91AD0103
:1005D000009729F0DC018D919C9191838083329664
:1005E0002E173F0789F7E1EDEE2EE4E0FE2E10E036
:1005F00000E0D701ED91FD917D01309749F041E098
:100600008081811101C040E061E0C8010E94780250
:100610000F5F1F4F0830110561F745ED53E0E09182
:100620002E04F0912F049F01245F3F4FDA018D913A
:100630009D91AD01009729F0DC018D919C919183F2
:10064000808332962E173F0789F710924D03109240
:100650004C038091D3039091D403DC01ED91FC9184
:100660000084F185E02D0995892B09F483C08091E0
:10067000D3039091D403DC01ED91FC910084F185CA
:10068000E02D099520914C0330914D03A091D303A7
:10069000B091D403ED91FC9111970084F185E02D88
:1006A0002817390768F4CD01099590934D0380937D
:1006B0004C038091D0039091D1030E94E300D7CFE7
:1006C000CD010995813891050CF054C08091D30378
:1006D0009091D403DC01ED91FC910084F185E02D33
:1006E000099506970CF446C07EE4472E73E0572E1A
:1006F000720100914C0310914D03C7018E54934039
:100700008017910778F48091D3039091D403DC0192
:10071000ED91FC910284F385E02D0995F701819319
:100720007F01E7CFF0904F038FEB8F0D853080F086
:100730000E943E029801225B3C4FF90132974081B2
:1007400021503109D9012C91342F2817390791F400
:1007500090914E0380912104981709F464C0809110
:10076000D3039091D403DC01ED91FC910680F781D5
:10077000E02D099540912B0450912C0430E020E0AD
:10078000F901EE0FFF1FE351FB4FA081B1811097DC
:1007900099F0F90183E0F695E7958A95E1F7E40F82
:1007A000F51F808190E0622F677002C09595879554
:1007B0006A95E2F781708C932F5F3F4F20323105AD
:1007C000F9F6E0912204F0912304CF01805C9F4F61
:1007D000ADA9BEA94D915D91BEABADAB4115510523
:1007E00029F020813181DA012D933C9332968E17C6
:1007F0009F0771F7EC960FB6F894DEBF0FBECDBF22
:10080000DF91CF911F910F91FF90EF90DF90CF90EC
:10081000BF90AF909F908F907F906F905F904F9020
:100820003F902F9008950250110910934D030093AB
:100830004C032091500330915103322E232E00910E
:1008400052031091530310270127102740915203A0
:100850008091540390E0BFE0FB1609F48CC5BF15EE
:10086000E8F1E3E0FE1609F491C1EF1570F0F1E054
:10087000FF1609F4FAC362E0C62EFC1409F482C420
:1008800061E070E08F2D90E026C055E0D52EFD147C
:1008900009F452C5FD1408F402C546E0E42EFE102A
:1008A000EFCF209124048091270490E0880F991FB6
:1008B00030E0820F931F40912A04B4E04B9FA001C7
:1008C0001124480F591F2416350608F44FC062E062
:1008D00070E086E090E00E94690255C052E4F5168F
:1008E00009F406C75F15A8F060E1F61609F46CC2BA
:1008F00081E4F812C5CF84E090E090934D0380939B
:100900004C03F0924F031092500383E08093510305
:100910003AC094E4F91609F451C6F91608F4D0C5A2
:10092000A5E4FA12ADCF2D3AFEED3F0709F049C715
:1009300010924B0385E480934F038EE7809350031E
:1009400081E2E6E2F3E0DE01119601900D928A95D4
:10095000E1F7FE013196A1E5B3E081919D012E54AE
:100960003340882309F43BC78D93F7CF2216330613
:10097000D8F4220C331CE0912204F0912304E20D00
:10098000F31D1183008380914C0390914D030296D7
:100990008138910508F44DC580914F0364E070E003
:1009A00090E00E94690245C52816390608F040C04B
:1009B000A80170E060E0E0912504F091260420FC9D
:1009C0001CC0221A330A220C331C0CEF202203E035
:1009D0003022E20DF31D80819181A281B381AA278B
:1009E000BB27BA0155274427842B952BA62BB72B61
:1009F00080839183A283B383C6CF20953095220E46
:100A0000331E220C331C1CEF212213E03122E20D95
:100A1000F31D008111812281338100271127042BCE
:100A2000152B262B372B0083118322833383ABCFE7
:100A30009101237033274801B12CA12CC12CD12C5A
:100A40007601E0912804F09129042115310549F53A
:100A5000281A390A220C331C28EF222227E03222DE
:100A6000E20DF31D5080618072801381B481A581F5
:100A7000940140E050E060E070E080E090E000E34E
:100A80000E94B00F522A5082632A6182742A7282B5
:100A9000152B1383B62BB483A72BA583868397834B
:100AA00072CF2130310541F53FEF231A330A281A5E
:100AB000390A220C331C48EF242247E03422E20D8D
:100AC000F31D5080618072801381B681A7819401EB
:100AD000A501B601C70100E20E94B00F522A508260
:100AE000632A6182742A7282152B1383648375834F
:100AF0008B2B86839A2BD3CF2230310529F552E0F8
:100B0000250E311C281A390A220C331C68EF2622C4
:100B100067E03622E20DF31D5080618074801581FC
:100B2000B681A7819401A501B601C70100E10E9429
:100B3000B00F522A5082632A618242835383762AFD
:100B40007482172B1583D4CFA3E02A0E311C281AE8
:100B5000390A220C331CB8EF2B22B7E03B22E20DFE
:100B6000F31D528143813481258196818781808262
:100B700091825A2952834B2943833C2934832D295E
:100B800025839E2996838F298783FDCEC8010197EF
:100B900063E070E08D37910548F54101800E911EAC
:100BA000E0902404E0912704F0E0EE0FFF1FF12C09
:100BB000EE0DFF1D80912A0424E0829FC0011124C4
:100BC0008E0F9F1F62E070E08816990678F4000F80
:100BD000111F0D5F1F4F10934D0300934C03AEE4A4
:100BE000B3E00138110528F064E070E083E090E0A4
:100BF00072CE1196CD018E5493408017910710F458
:100C00001C92F7CF83E080934F030350009350036F
:100C1000C0902804D0902904A0902504B090260408
:100C2000A0912204B0912304C101880F991FAD0146
:100C3000480F591F5AAB49AB83E090E0DC01AE1B73
:100C4000BF0BBAA7A9A737016094709482149304CC
:100C500009F499CEA9A9BAA92E143F0498F12E1629
:100C60003F06A0F520FC24C0C1018E199F09880F02
:100C7000991F8C7F93708A0D9B1DDC014D915D91B6
:100C80006D917C91AB01662777279A01D20113966B
:100C90003C93139714962C93B2E04B0E511CA9A9C8
:100CA000BAA91296BAABA9ABBFEF2B1A3B0ACECFAB
:100CB000C301820D931D880F991F8C7F93708A0D3D
:100CC0009B1DDC012C9111963C91E0CF81010370BA
:100CD00011270115110519F581010E1B1F0B000FBE
:100CE000111F087F17700C0D1D1DD8012C91119636
:100CF0003C91119712964C91129713965C91139711
:100D000014966C91149715967C91159716968C9164
:100D1000169717969C9100E30E94CB0FB7CF013036
:100D2000110511F50E1B1F0B020D131D000F111FD6
:100D3000087F17700C0D1D1DD8012C9111963C9148
:100D4000119712964C91129713965C9113971496E3
:100D50006C91149715967C91159716968C91169711
:100D600017969C9100E2D8CF0230110511F50E1BA9
:100D70001F0B020D131D000F111F087F17700C0DA4
:100D80001D1DD8012C9111963C91119712964C91F2
:100D9000129713965C91139714966C91149715966D
:100DA0007C91159716968C91169717969C9100E159
:100DB000B3CF89A59AA5820D931D880F991F887FAF
:100DC00097708C0D9D1D7DCF9801215031092B37D7
:100DD000310530F49801220F331F8217930729F051
:100DE00063E070E080E190E076CDF101E00FF11F6B
:100DF000FAABE9AB60902404A0912704B0E0AA0FFD
:100E0000BB1F712CA60DB71D80912A04F4E08F9FA3
:100E1000C00111248A0F9B1FC9A8DAA8C816D906D9
:100E200018F062E070E0DECF86E090E090934D0332
:100E300080934C03F0924F03309250032092510361
:100E40001092520300935303809028049090290439
:100E5000E0902504F0902604FCAAEBAAE09122047D
:100E6000F0912304F8AFEFAB83E090E06C01CA1A75
:100E7000DB0ADAAEC9AE7301E094F094FCAEEBAEDF
:100E8000E9A9FAA92E163F0609F4D3C2F201478157
:100E90008085542F482F2614370480F4F101EE0F7B
:100EA000FF1FCFA8D8ACEC0DFD1D518340830FEF81
:100EB000201A300A12E0410E511CE2CF2A163B06DE
:100EC000A0F570E060E020FC1DC0F101E619F70913
:100ED000EE0FFF1FEC7FF370EBA8FCA8EE0DFF1DDB
:100EE000008111812281338122273327BA015527BE
:100EF0004427402B512B622B732B408351836283F9
:100F00007383D5CFEBADFCADE20DF31DEE0FFF1FEC
:100F1000EC7FF370CBA8DCA8EC0DFD1D00811181E6
:100F20002281338100271127E4CFF101E370FF27ED
:100F30006A01F12CE12C00E010E09801C9A6DAA6C4
:100F4000EBA6FCA60DA71EA72FA738AB309749F537
:100F5000F101EA1BFB0BEE0FFF1FE87FF770E80DB6
:100F6000F91DB080C180D280E380F480158129A56D
:100F70003AA540E050E060E070E080E090E000E3FF
:100F80000E94B00F2B2920833C2931834D294283B5
:100F90005E295383F62AF482172B15838683978361
:100FA00086CFE130F10549F5EA1BFB0BE20DF31D9D
:100FB000EE0FFF1FE87FF770E80DF91DB080C180CC
:100FC000D280E380F680178129A53AA540E050E061
:100FD00060E070E080E090E000E20E94B00F2B291A
:100FE00020833C2931834D294283E52AE3826483AF
:100FF00075838F298683912BD2CFE230F10531F5AD
:10100000EA1BFB0BE20DF31DEE0FFF1FE87FF770ED
:10101000E80DF91DB080C180D480E580F68017818D
:1010200029A53AA540E050E060E070E080E090E063
:1010300000E10E94B00F2B2920833C293183428399
:101040005383D62AD482E72AE582D3CFE9ADFAAD1D
:10105000E20DF31DEE0FFF1FE87FF770E80DF91D9D
:10106000D9A4D082EAA4E18222CFC801019763E02B
:1010700070E0803D974060F520912D04C101800F04
:10108000911F62E070E02817190610F1C80123E0F3
:10109000969587952A95E1F79C012D5F3F4F3093F8
:1010A0004D0320934C03980127703327232B29F0FD
:1010B000049690934D0380934C0380914C03909140
:1010C0004D03EEE4F3E08138910528F064E070E030
:1010D00081E090E000CC31969F012E5433402817D8
:1010E000390710F41082F7CF91E090934F038350AB
:1010F00080935003A0902B04B0902C0470E060E02B
:1011000020E0C12CD12C7601C39426013701022E98
:1011100004C0440C551C661C771C0A94D2F7FB01D2
:1011200033E0F695E7953A95E1F7EF5AFC4F3081B9
:10113000A101A3E056954795AA95E1F74F71552770
:101140004A0D5B1DDA014C9150E0B22DB77002C020
:1011500055954795BA95E2F7842D40FF0FC0832B34
:1011600080832F5F283009F420E0EFEF2E1A3E0A2B
:101170006F5F7F4F0617170741F605CC8095382320
:101180003083EFCFC801019763E070E0803D974066
:1011900060F520913304C101800F911F62E070E07F
:1011A0002817190610F1C80123E0969587952A950E
:1011B000E1F79C012D5F3F4F30934D0320934C038B
:1011C000980127703327232B29F0049690934D0321
:1011D00080934C0380914C0390914D03EEE4F3E037
:1011E0008138910528F064E070E082E090E073CBF4
:1011F00031969F012E5433402817390710F410827E
:10120000F7CF92E090934F03835080935003609107
:1012100031047091320450E040E0B12CC12CD12C4B
:101220007601C394260137010B2C04C0440C551CD5
:10123000661C771C0A94D2F7FA01A3E0F695E795AD
:10124000AA95E1F7EF5AFC4FA0809101B3E03695E3
:101250002795BA95E1F7260F372F311DD9012C912B
:1012600030E0B22DB77002C035952795BA95E2F7F8
:10127000842D20FF10C08A298083B394E8E0BE1239
:1012800001C0B12CFFEF2F1A3F0A4F5F5F4F0417C9
:10129000150741F678CB8095A822A082EECFC80131
:1012A000019763E070E08D379105C8F42091300418
:1012B000C101800F911F62E070E02817190678F0D5
:1012C000C801880F991F039690934D0380934C0398
:1012D000EEE4F3E08138910528F064E070E084E00A
:1012E00090E0F9CA31969F012E54334028173907F0
:1012F00010F41082F7CF94E090934F0383508093C3
:101300005003220C331CE0912E04F0912F04E20DC7
:10131000F31D0150110922E0420E511C0F3F10072E
:1013200009F431CB808191813296D20111969C9340
:10133000119712968C93EDCF0115BFEF1B0729F083
:1013400063E070E00115110549F480912D0481508E
:10135000990B8215930528F462E070E085E090E037
:10136000BACA41E001151F4F09F040E060E0C10139
:101370000E94780208CBA80123E0569547952A954C
:10138000E1F7242FB80167707727672B11F021E070
:10139000240FA80141505109403B574018F4281729
:1013A000190629F063E070E08FE090E094CA209184
:1013B0002D04C101800F911F2817190618F462E04F
:1013C00070E0F2CF86E090E090934D0380934C0361
:1013D0008FE080934F03309250032092510310937B
:1013E000520300935303F12CE12CD12CF701A3E01D
:1013F000F695E795AA95E1F7E25BFC4F478150E04F
:101400000D2C02C0559547950A94E2F7417060E0B3
:10141000C1018E0D9F1D0E947802D394B8E0CB2E9F
:10142000DC1001C0D12C2FEFE21AF20A0E151F05B5
:10143000E9F600914C0310914D03780122E0E20E91
:10144000F11CF0924D03E0924C030E943E02F80121
:10145000E25BFC4F908381838091D20387FD09C0BA
:1014600061E00E94B5008091CE039091CF030E946D
:10147000E3008091D3039091D403DC01ED91FC91C2
:101480000280F381E02DA7016EE473E0099580915D
:10149000D3039091D403DC01ED91FC910680F78198
:1014A000E02D09958091CE039091CF030E94E30037
:1014B0008091D20387FD5EC960E00E94B5005AC9E1
:1014C00033E02316310408F06EC00330110508F034
:1014D0006AC00215130508F466C0C101880F991F80
:1014E000880F991FAC014A5F5C4F3A016101E9E541
:1014F0008E2EE3E09E2E90E080E0D30112962D9197
:101500003C912332310529F0B12CA12C2733310530
:1015100019F4AA24A394B12C7501E80EF91E9701C1
:10152000255F3F4F21383105E0F5C6010E942002BA
:10153000A501BC01C4010E9411118A0C9B1C9601DB
:101540002F5F3F4FB4E06B0E711CC70116010217ED
:10155000130728F5C701079690934D0380934C031A
:1015600083E480934F038EE78093500310925103DE
:1015700020925203809135059091360520913705D0
:1015800030913805309353032093540390935503BF
:1015900080935603F0925703E0925803F4C969010F
:1015A000ACCF7C01D7CF83E090E090934D03809344
:1015B0004C0383E480934F0381E82AC0E5E12E16B3
:1015C0003104E8F48E010F5F1F4F1AA709A7F80135
:1015D000B12CA12C12E0410E511C2A143B04D9F06D
:1015E000D20112968C91129713969C918927982775
:1015F000892781939193BFEFAB1ABB0AEBCF83E0AE
:1016000090E090934D0380934C03F0924F0382E857
:1016100080935003B8C9912C812C80E0712C612CEF
:101620000BE010E0A814B90409F43FC0E9A5FAA53D
:10163000E190F190FAA7E9A7F3E0EF16F10440F08A
:1016400083E090E090934D0380934C0384E4B2CF09
:10165000F701EE0FFF1FEE0FFF1FEA5FFC4F228125
:1016600033812332310529F0D12CC12C27333105A8
:1016700019F4CC24C394D12C18012C0C3D1C21E866
:101680002216310490F4C7010E942002A601BC0179
:10169000C801825B9C4F0E9411116C0C7D1C3FEFB6
:1016A000831A930A8E2D8101BDCF10934D030093B1
:1016B0004C0394E490934F039EE790935003109251
:1016C0005103809352038091350590913605209106
:1016D000370530913805309353032093540390938A
:1016E00055038093560370925703609258034BC979
:1016F00053E02516310450F4809153039091540324
:101700009827892798278A37910540F083E090E051
:1017100090934D0380934C0382E44CCFF101EE0F84
:10172000FF1FEE0FFF1FEA5FFC4F008111818281D6
:1017300093814423E9F18332910529F0F12CE12CC6
:101740008733910519F4EE24E394F12C833291054B
:10175000B1F0C79711F5A70165E573E0D8018D9148
:101760009C910E941111A70165E573E0C8010396E1
:101770000E941111F8018281826082830EC0A7014C
:1017800065E573E0C80103960E941111D801129615
:101790008C911297826012968C9383E090E09093E4
:1017A0004D0380934C0382E480934F038EE730CF48
:1017B0008332910511F0C79781F7F80182818D7FFF
:1017C000DCCF2E3D3D4A21F481E080934B03B2C82B
:1017D00083E090E090934D0380934C03ABC830932B
:1017E0004D0320934C03CFC81F920F920FB60F9258
:1017F00011242F933F938F939F93AF93BF93809127
:10180000430590914405A0914505B091460530915E
:10181000420523E0230F2D3758F50196A11DB11D78
:10182000209342058093430590934405A09345057A
:10183000B09346058091470590914805A0914905D0
:10184000B0914A050196A11DB11D80934705909363
:101850004805A0934905B0934A05BF91AF919F9168
:101860008F913F912F910F900FBE0F901F90189561
:1018700026E8230F0296A11DB11DD2CF1F920F9211
:101880000FB60F9211242F933F934F935F936F9353
:101890007F938F939F93AF93BF93EF93FF9384E3D3
:1018A00094E00E949101FF91EF91BF91AF919F91C0
:1018B0008F917F916F915F914F913F912F910F90F9
:1018C0000FBE0F901F9018951F920F920FB60F9298
:1018D00011242F938F939F93EF93FF93E0914404F0
:1018E000F09145048081E0914A04F0914B0482FD1F
:1018F0001BC0908180914D048F5F8F7320914E04A7
:10190000821741F0E0914D04F0E0EC5CFB4F958FC5
:1019100080934D04FF91EF919F918F912F910F90A4
:101920000FBE0F901F9018958081F4CF789484B5E6
:10193000826084BD84B5816084BD85B5826085BDCB
:1019400085B5816085BD80916E00816080936E0059
:10195000109281008091810082608093810080914B
:1019600081008160809381008091800081608093FC
:1019700080008091B10084608093B1008091B000BC
:1019800081608093B00080917A00846080937A00B7
:1019900080917A00826080937A0080917A008160E1
:1019A00080937A0080917A00806880937A00109208
:1019B000C1004AE453E05093E2044093E1041092E2
:1019C0004A0329E433E03093E6042093E5041092BF
:1019D000490388E493E09093EA048093E904109229
:1019E00048035093D2044093D1043093D4042093FD
:1019F000D3049093EE048093ED0426E233E0A4E256
:101A0000B3E08D9190E0FC01E656FF4F44918A5778
:101A10009F4FFC0184918823C9F090E0880F991FA3
:101A2000FC01E859FF4FC591D491FC01E458FF4FE8
:101A3000659174919FB7F8948881E42FE0958E2387
:101A40008883EB018881E823E8839FBF2A173B073F
:101A5000C1F6E7EAF0E02491E3E9F0E0849188231D
:101A600099F090E0880F991FFC01E859FF4FA5916C
:101A7000B491FC01E458FF4F859194918FB7F8948D
:101A8000EC91E22BEC938FBFE0914404F09145047C
:101A900082E08083E0914004F09141041082E09163
:101AA0004204F091430480E1808310924C04E09161
:101AB0004804F091490496E09083E0914604F09147
:101AC0004704808180618083E0914604F09147045F
:101AD000808188608083E0914604F0914704808192
:101AE00080688083E0914604F091470480818F7D77
:101AF000808324E334E03093D4032093D3038FEF27
:101B00008093D2032EEE32E03093D1032093D003A2
:101B100021E43AE03093CF032093CE0310922104C6
:101B200080E2809324041092270410922A04809368
:101B30002D049093300488E08093330484E090E097
:101B40000E94EC0F90932C0480932B04009779F162
:101B500024E0FC0111922A95E9F780E490E00E94CC
:101B6000EC0F9093230480932204009701F120E46A
:101B7000EC0119922A95E9F781E090E00E94EC0FC0
:101B80009093320480933104009789F0FC01108215
:101B90008CE090E00E94EC0F90932F0480932E0431
:101BA000009729F02CE0EC0119922A95E9F7D0E092
:101BB000C0E08E01000F111F03511B4FF8018081FF
:101BC0009181892B49F481E090E00E94EC0FF801AB
:101BD00091838083FC0110822196C032D10549F7A0
:101BE0002091220430912304E1EEF3E090E080E0C4
:101BF00041915191452B39F4DF011297A901480F0A
:101C0000591F4D935C9302968034910589F701EE3C
:101C100014E0C1EDD4E089919991892B51F481E0D0
:101C200090E00E94EC0FFE01329791838083FC01CB
:101C300010820C171D0779F740912E0450912F0444
:101C4000E5EDF3E090E080E021913191232B49F420
:101C5000DF0112979C01220F331F240F351F2D9394
:101C60003C9301968630910579F780E29EE4A0E0EE
:101C7000B0E080933A0590933B05A0933C05B09368
:101C80003D050E94EE0060933E0570933F058093F2
:101C900040059093410590E0E92E90E0F92ECC2488
:101CA000C3940E94EE0000913E0510913F052091E3
:101CB000400530914105601B710B820B930B009125
:101CC0003A0510913B0520913C0530913D05601788
:101CD00071078207930708F4BCC004E213E0C1ED6A
:101CE000D4E089919991892B39F1F801208130E074
:101CF000F901E255FF4F8491F901E656FF4FD49068
:101D0000F901EA57FF4FB490BB2079F081110E948E
:101D10008C00EB2DF0E0EE0FFF1FEE58FF4FA5916A
:101D2000B491EC91DE2281E009F480E0FE0132976B
:101D30000190F081E02D80830F5F1F4FF4E0C53DDF
:101D4000DF0709F0CECF8091350590913605A0913F
:101D50003705B09138050196A11DB11D8093350559
:101D600090933605A0933705B09338058091EB0426
:101D700081FD0DC08091E70481FF8CC08091E80453
:101D800081118FC0E091E904F091EA048083E09131
:101D9000ED04F091EE04309721F060818DE00E9417
:101DA000B5008091310590913205A0913305B09135
:101DB0003405AC01BD01535D6E4C7E4F41152AECDC
:101DC00052072AE962072BE3720708F07CC04093B0
:101DD00031055093320560933305709334050E94AA
:101DE000A40280913905811118C0C09239050E9462
:101DF000EE0000913A0510913B0520913C05309191
:101E00003D05601B710B820B930B60933E05709335
:101E10003F05809340059093410580913E05909148
:101E20003F05A0914005B091410540913A05509180
:101E30003B0560913C0570913D05840F951FA61FE1
:101E4000B71F80933E0590933F05A0934005B09344
:101E500041050E94EE0000913E0510913F05209142
:101E6000400530914105601B710B820B930B603173
:101E700077428105910510F00E94A402E114F1045B
:101E800009F40FCF0E947D01882309F40ACF0E9434
:101E9000000007CFE091E504F091E60480818823FB
:101EA00049F08091E30481FF07C081E09091E40450
:101EB000911168CF80E066CFE091E104F091E204F7
:101EC00081E09081F5CF40912D0550912E056091D4
:101ED0002F05709130059D59A946BA43809331056D
:101EE00090933205A0933305B09334054F5F5F4F55
:101EF0006F4F7F4F40932D0550932E0560932F0514
:101F0000709330056CCFE4E3F4E01382128288EE24
:101F100093E0A0E0B0E084839583A683B78386E155
:101F200093E09183808385EC90E09587848784ECAF
:101F300090E09787868780EC90E0918B808B81EC96
:101F400090E0938B828B82EC90E0958B848B86EC77
:101F500090E0978B868B118E128E138E148E0895BF
:101F6000002E083090F0982F872F762F652F542F52
:101F7000432F322F22270850F4CF220F331F441F44
:101F8000551F661F771F881F991F0A95B2F7002DEE
:101F9000089597FD1094002E083098F00850232FD4
:101FA000342F452F562F672F782F892F912DF4CF5F
:101FB0001594979587957795679557954795379594
:101FC00027950A95AAF71124002D0895EE0FFF1FFB
:101FD0000590F491E02D09940F931F93CF93DF9315
:101FE0008230910510F482E090E0E0914D05F0918F
:101FF0004E0530E020E0B0E0A0E0309799F42115E4
:10200000310509F44AC0281B390B24303105D8F5B5
:102010008A819B816115710589F1FB01938382831C
:10202000FE0111C040815181028113814817590777
:10203000E0F04817590799F4109761F012960C9345
:10204000129713961C933296CF01DF91CF911F9177
:102050000F91089500934D0510934E05F4CF21156F
:10206000310551F04217530738F0A901DB019A01FD
:10207000BD01DF01F801C1CFEF01F9CF90934E050B
:1020800080934D05CDCFFE01E20FF31F8193919315
:102090002250310939832883D7CF20914B053091C5
:1020A0004C05232B41F42091020130910301309320
:1020B0004C0520934B052091000130910101211521
:1020C000310541F42DB73EB740910401509105010F
:1020D000241B350BE0914B05F0914C05E217F307FB
:1020E000A0F42E1B3F0B2817390778F0AC014E5F88
:1020F0005F4F2417350748F04E0F5F1F50934C0574
:1021000040934B05819391939FCFF0E0E0E09CCF0B
:10211000CF93DF930097E9F0FC013297138212828C
:10212000A0914D05B0914E05ED0130E020E01097F3
:10213000A1F420813181820F931F20914B053091B2
:102140004C052817390709F061C0F0934C05E0935E
:102150004B05DF91CF910895EA01CE17DF07E8F52F
:102160004A815B819E0141155105B1F7E901FB836D
:10217000EA8349915991C40FD51FEC17FD0761F40B
:10218000808191810296840F951FE901998388834C
:10219000828193819B838A83F0E0E0E012968D91A7
:1021A0009C9113970097B9F52D913C911197CD0112
:1021B0000296820F931F20914B0530914C052817F2
:1021C000390739F6309751F510924E0510924D05AA
:1021D000B0934C05A0934B05BCCFD383C283408101
:1021E0005181840F951FC817D90761F44E5F5F4F67
:1021F00088819981480F591F518340838A819B812F
:10220000938382832115310509F0B0CFF0934E05F9
:10221000E0934D059ECFFD01DC01C0CF13821282F9
:10222000D7CFFB01DC0102C001900D92415050401C
:10223000D8F70895F894FFCF00004F05800000C044
:10224000C101C30302C2C60607C705C5C404CC0C3E
:102250000DCD0FCFCE0E0ACACB0BC90908C8D818AE
:1022600019D91BDBDA1A1EDEDF1FDD1D1CDC14D4BE
:10227000D515D71716D6D21213D311D1D010F030EE
:1022800031F133F3F23236F6F737F53534F43CFCFE
:10229000FD3DFF3F3EFEFA3A3BFB39F9F83828E8AE
:1022A000E929EB2B2AEAEE2E2FEF2DEDEC2CE4247E
:1022B00025E527E7E62622E2E323E12120E0A060EE
:1022C00061A163A3A26266A6A767A56564A46CACBE
:1022D000AD6DAF6F6EAEAA6A6BAB69A9A86878B82E
:1022E000B979BB7B7ABABE7E7FBF7DBDBC7CB4743E
:1022F00075B577B7B67672B2B373B17170B05090EE
:1023000091519353529296565797559594549C5C7D
:102310005D9D5F9F9E5E5A9A9B5B9959589888482D
:1023200049894B8B8A4A4E8E8F4F8D4D4C8C4484FD
:10233000854587474686824243834181804000C16C
:10234000814001C0804101C0804100C1814001C085
:10235000804100C1814000C1814001C0804101C075
:10236000804100C1814000C1814001C0804100C165
:10237000814001C0804101C0804100C1814001C055
:10238000804100C1814000C1814001C0804100C145
:10239000814001C0804101C0804100C1814000C135
:1023A000814001C0804101C0804100C1814001C025
:1023B000804100C1814000C1814001C0804101C015
:1023C000804100C1814000C1814001C0804100C105
:1023D000814001C0804101C0804100C1814000C1F5
:1023E000814001C0804101C0804100C1814001C0E5
:1023F000804100C1814000C1814001C0804100C1D5
:10240000814001C0804101C0804100C1814001C0C4
:10241000804100C1814000C1814001C0804101C0B4
:10242000804100C1814000C1814001C0804100C1A4
:10243000814001C0804101C0804100C18140E10470
:102440002300E5042300E904370000000000B30185
:1024500013014001000271014F016301020364395D
:102460006239306335623634343232333164656414
:102470003866623438666537353139656163000026
:107E0000112484B714BE81FFF0D085E080938100F7
:107E100082E08093C00088E18093C10086E0809377
:107E2000C20080E18093C4008EE0C9D0259A86E02C
:107E300020E33CEF91E0309385002093840096BBD3
:107E4000B09BFECF1D9AA8958150A9F7CC24DD24C4
:107E500088248394B5E0AB2EA1E19A2EF3E0BF2EE7
:107E6000A2D0813461F49FD0082FAFD0023811F036
:107E7000013811F484E001C083E08DD089C08234E0
:107E800011F484E103C0853419F485E0A6D080C0E4
:107E9000853579F488D0E82EFF2485D0082F10E0AE
:107EA000102F00270E291F29000F111F8ED06801E7
:107EB0006FC0863521F484E090D080E0DECF843638
:107EC00009F040C070D06FD0082F6DD080E0C81688
:107ED00080E7D80618F4F601B7BEE895C0E0D1E017
:107EE00062D089930C17E1F7F0E0CF16F0E7DF06D8
:107EF00018F0F601B7BEE89568D007B600FCFDCFD4
:107F0000A601A0E0B1E02C9130E011968C91119780
:107F100090E0982F8827822B932B1296FA010C0160
:107F200087BEE89511244E5F5F4FF1E0A038BF0790
:107F300051F7F601A7BEE89507B600FCFDCF97BE46
:107F4000E89526C08437B1F42ED02DD0F82E2BD052
:107F50003CD0F601EF2C8F010F5F1F4F84911BD097
:107F6000EA94F801C1F70894C11CD11CFA94CF0C13
:107F7000D11C0EC0853739F428D08EE10CD085E9AC
:107F80000AD08FE07ACF813511F488E018D01DD067
:107F900080E101D065CF982F8091C00085FFFCCF94
:107FA0009093C60008958091C00087FFFCCF809118
:107FB000C00084FD01C0A8958091C6000895E0E648
:107FC000F0E098E1908380830895EDDF803219F02E
:107FD00088E0F5DFFFCF84E1DECF1F93182FE3DFCA
:107FE0001150E9F7F2DF1F91089580E0E8DFEE27F6
:047FF000FF270994CA
:027FFE00040479
:00000001FF
