:100000000C9462000C948A000C948A000C948A0070
:100010000C948A000C948A000C948A000C948A0038
:100020000C948A000C948A000C948A000C948A0028
:100030000C948A000C948A000C948A000C948A0018
:100040000C946F0D0C948A000C94DF0D0C94B90D78
:100050000C948A000C948A000C948A000C948A00F8
:100060000C948A000C948A000000000024002700F1
:100070002A000000000023002600290000000000E4
:10008000250028002B0004040404040404040202D4
:100090000202020203030303030301020408102007
:1000A0004080010204081020010204081020000012
:1000B0000008000201000003040700000000000027
:1000C0000000D01411241FBECFEFD8E0DEBFCDBF9B
:1000D00014E0A0E0B1E0E2EDFCE202C005900D9278
:1000E000AE31B107D9F726E0AEE1B4E001C01D9210
:1000F000AB3BB207E1F710E0C2E6D0E004C02197C5
:10010000FE010E943315C136D107C9F70E94110EB6
:100110000C9467160C940000FC0181E080838283BC
:1001200014821682108681858460818708958330C9
:1001300081F028F4813099F08230A9F00895873059
:10014000A9F08830C9F08430B1F4809180008F7DAF
:1001500003C0809180008F7780938000089584B5DC
:100160008F7784BD089584B58F7DFBCF8091B000DB
:100170008F778093B00008958091B0008F7DF9CF84
:100180001F93CF93DF93282F30E0F901E255FF4F03
:100190008491F901E656FF4FD491F901EA57FF4FD8
:1001A000C491CC23A9F0162F81110E949700EC2F47
:1001B000F0E0EE0FFF1FE458FF4FA591B4918FB709
:1001C000F894EC91111108C0D095DE23DC938FBF19
:1001D000DF91CF911F910895DE2BF8CF82309105EA
:1001E00038F0880F991F880F991F05970197F1F72D
:1001F00008953FB7F8948091B3069091B406A0910A
:10020000B506B091B60626B5A89B05C02F3F19F0DC
:100210000196A11DB11D3FBFBA2FA92F982F882786
:10022000BC01CD01620F711D811D911D42E0660F61
:10023000771F881F991F4A95D1F70895AF92BF92F3
:10024000CF92DF92EF92FF920F931F93CF93DF93A2
:100250006C017B018B01040F151FEB015E01AE18D1
:10026000BF08C017D10759F06991D601ED91FC91F3
:100270000190F081E02DC6010995892B79F7C50120
:10028000DF91CF911F910F91FF90EF90DF90CF9072
:10029000BF90AF900895FC01538D448D252F30E021
:1002A000842F90E0821B930B541710F0CF96089583
:1002B00001970895FC01918D828D981761F0A28DB0
:1002C000AE0FBF2FB11D5D968C91928D9F5F9F7376
:1002D000928F90E008958FEF9FEF0895FC01918D2C
:1002E000828D981731F0828DE80FF11D858D90E099
:1002F00008958FEF9FEF0895FC01918D228D892F36
:1003000090E0805C9F4F821B91098F73992708951D
:100310008CE095E00E947C0121E0892B09F420E02B
:10032000822F089580E090E0892B29F00E948801B7
:1003300081110C9400000895FC01A48DA80FB92F21
:10034000B11DA35ABF4F2C91848D90E001968F73FD
:100350009927848FA689B7892C93A089B1898C911C
:10036000837080648C93938D848D981306C002886B
:10037000F389E02D80818F7D80830895EF92FF9235
:100380000F931F93CF93DF93EC0181E0888F9B8DB8
:100390008C8D98131AC0E889F989808185FF15C072
:1003A0009FB7F894EE89FF896083E889F989808195
:1003B0008370806480839FBF81E090E0DF91CF9164
:1003C0001F910F91FF90EF900895F62E0B8D10E086
:1003D0000F5F1F4F0F731127E02E8C8D8E110CC0F5
:1003E0000FB607FCFACFE889F989808185FFF5CF40
:1003F000CE010E949C01F1CFEB8DEC0FFD2FF11D82
:10040000E35AFF4FF0829FB7F8940B8FEA89FB897C
:1004100080818062CFCFCF93DF93EC01888D8823DA
:10042000B9F0AA89BB89E889F9898C9185FD03C057
:10043000808186FD0DC00FB607FCF7CF8C9185FF3C
:10044000F2CF808185FFEDCFCE010E949C01E9CFE4
:10045000DF91CF910895880F991F880F991FFC0194
:10046000EA5FFC4F828193818A309105B9F040F4B4
:100470008230910569F0039771F090E080E0089573
:100480008332910529F08733910511F00F97A9F771
:1004900081E090E0089582E090E0089588E090E0A7
:1004A0000895880F991F880F991FFC01EA5FFC4F80
:1004B00080819181228133812A30310591F040F48D
:1004C000225031092230310560F090E080E009C00F
:1004D0002332310539F02733310521F02F30310532
:1004E000A1F70895FC01228121FF02C0039608951F
:1004F000808191810895FC018381827090819111A6
:1005000004C0811116C012820895811102C081E0D9
:100510008283878181FD08C08481882319F081E06E
:100520009085911180E08683818581FD02C0848160
:1005300080870895FC0184819581A681B7814081DF
:10054000518162817381811526E3920725E6A20716
:1005500024ECB2073CF014161506160617068CF4A8
:10056000B7FF0FC0415051096109710940835183A0
:10057000628373839653A546B44C84839583A68384
:10058000B78384819581A681B78140815181628141
:10059000738181302AEC92072AE9A2072BE3B20784
:1005A0003CF477FF14C0181619061A061B067CF4D3
:1005B0004F5F5F4F6F4F7F4F4083518362837383E1
:1005C0009A5CAA49BB4384839583A683B783089525
:1005D00020912604209530E0F901EA5FFD4F9081DB
:1005E00090952A5F3E4FD9018C91409124045091FF
:1005F000250442505109E6E2F4E031969F0126526B
:1006000034402417350770F420819227292F30E0D9
:10061000D901AA5FBD4F9C9198272A5F3E4FD9010F
:100620008C91EBCF089523E030E0309325042093A4
:100630002404E6E2F4E09091F904908380588183E9
:10064000628308950F931F93582F577001E010E0B5
:1006500020E030E004C0000F111F221F331F5A9505
:10066000D2F723E0969587952A95E1F79927E091AF
:100670000305F0910405662321F0E0910905F0914E
:100680000A05E80FF91F8081442329F0082B008315
:100690001F910F91089500950823F9CFCF93DF9311
:1006A000CDB7DEB7EE81FF8181E080832C853D856B
:1006B0008A859B852817390721F080E0DF91CF914B
:1006C000089581E0FBCFCF93DF93CDB7DEB78D8167
:1006D000EE81FF81811104C01082DF91CF910895D6
:1006E00081E080832C853D858A859B852817390785
:1006F00014F080E0F2CF81E0F0CFCF92DF92EF9262
:10070000FF920F931F93CF93DF93CDB7DEB7888906
:100710009989AA89BB894C895D896E897F89088DF1
:10072000198D2A8D3B8DCC8CDD8CEE8CFF8C801747
:100730009107A207B30759F44C195D096E097F09A7
:1007400014161506160617065CF081E00AC0801B19
:10075000910BA20BB30B181619061A061B06ACF761
:1007600080E0DF91CF911F910F91FF90EF90DF908C
:10077000CF9008952F923F924F925F926F927F9207
:100780008F929F92AF92BF92CF92DF92EF92FF92A1
:100790000F931F93CF93DF93CDB7DEB7EB970FB6D1
:1007A000F894DEBF0FBECDBF10E000E0F801EE0F01
:1007B000FF1FE75AF94F0190F081E02D309749F083
:1007C00041E08081811101C040E060E0C8010E94E9
:1007D00022030F5F1F4F0032110541F709EB14E0B0
:1007E0001DAB0CABE091FA04F091FB049F01205C7F
:1007F0003F4FA801DA018D919D91AD01009729F03D
:10080000DC018D919C91918380833296E217F307EE
:1008100089F7E9EAEE2EE5E0FE2E10E000E0D701D0
:10082000ED91FD917D01309749F041E0808181118A
:1008300001C040E061E0C8010E9422030F5F1F4F2A
:100840000830110561F74DEA54E0E0910605F0919A
:1008500007059F01245F3F4FDA018D919D91AD0106
:10086000009729F0DC018D919C91918380833296D1
:100870002E173F0789F710922504109224048091C7
:10088000AB049091AC04DC01ED91FC910084F18506
:10089000E02D0995892B09F483C08091AB049091D8
:1008A000AC04DC01ED91FC910084F185E02D09950B
:1008B0002091240430912504A091AB04B091AC04A4
:1008C000ED91FC9111970084F185E02D28173907EF
:1008D00068F4CD01099590932504809324048091B8
:1008E000A8049091A9040E94EE00D7CFCD010995EC
:1008F000813891050CF054C08091AB049091AC0408
:10090000DC01ED91FC910084F185E02D09950697BD
:100910000CF446C076E2A72E74E0B72E7501009164
:10092000240410912504C701865294408017910732
:1009300078F48091AB049091AC04DC01ED91FC91D2
:100940000284F385E02D0995F70181937F01E7CFBC
:10095000F09027048FEB8F0D853080F00E94E80225
:1009600098012A5D3B4FF9013297408121503109AE
:10097000D9012C91342F2817390791F4909126042E
:100980008091F904981709F464C08091AB049091A8
:10099000AC04DC01ED91FC910680F781E02D099516
:1009A000409103055091040530E020E0F901EE0F7D
:1009B000FF1FE75AF94FA081B181109799F0F90113
:1009C00083E0F695E7958A95E1F7E40FF51F8081BE
:1009D00090E0622F677002C0959587956A95E2F75F
:1009E00081708C932F5F3F4F20323105F9F6E091F3
:1009F000FA04F091FB04CF01805C9F4FACA9BDA924
:100A00004D915D91BDABACAB4115510529F02081F5
:100A10003181DA012D933C9332968E179F0771F73F
:100A2000EB960FB6F894DEBF0FBECDBFDF91CF912E
:100A30001F910F91FF90EF90DF90CF90BF90AF90FC
:100A40009F908F907F906F905F904F903F902F90EE
:100A50000895025011091093250400932404209155
:100A6000280430912904322E232E00912A0410915B
:100A70002B04102701271027D0902A0480912C04E2
:100A800090E0BFE0FB1609F48DC5BF15E8F1E3E087
:100A9000FE1609F491C1EF1570F0F1E0FF1609F4AC
:100AA000FAC362E0C62EFC1409F483C461E070E06E
:100AB0008F2D90E026C055E0D52EFD1409F453C5C6
:100AC000FD1408F403C546E0E42EFE10EFCF20919C
:100AD000FC048091FF0490E0880F991F30E0820FA2
:100AE000931F40910205B4E04B9FA0011124480FD1
:100AF000591F2416350608F44FC062E070E086E006
:100B000090E00E94130355C042E4F41609F4DAC6DB
:100B10004F15A8F060E1F61609F46CC281E4F812F2
:100B2000C5CF84E090E09093250480932404F09254
:100B300027041092280488E3809329043AC094E49F
:100B4000F91609F439C6F91608F4D1C5A5E4FA1264
:100B5000ADCF2D3ABEED3B0709F0AEC7109223048E
:100B600085E4809327048EE78093280481E2ECEFEC
:100B7000F3E0DE01119601900D928A95E1F7FE01F6
:100B80003196A9E2B4E081919D0126523440882338
:100B900009F4A0C78D93F7CF22163306D8F4220CA0
:100BA000331CE091FA04F091FB04E20DF31D118374
:100BB0000083809124049091250402968138910548
:100BC00008F44EC58091270464E070E090E00E9434
:100BD000130346C52816390608F040C0A80170E086
:100BE00060E0E091FD04F091FE0420FC1CC0221A9C
:100BF000330A220C331C0CEF202203E03022E20DDA
:100C0000F31D80819181A281B381AA27BB27BA01FC
:100C100055274427842B952BA62BB72B80839183B4
:100C2000A283B383C6CF20953095220E331E220CAB
:100C3000331C1CEF212213E03122E20DF31D008151
:100C400011812281338100271127042B152B262B9C
:100C5000372B0083118322833383ABCF9101237021
:100C600033274801B12CA12CC12CD12C7601E09165
:100C70000005F09101052115310549F5281A390AB9
:100C8000220C331C28EF222227E03222E20DF31D32
:100C90005080618072801381B481A581940140E00D
:100CA00050E060E070E080E090E000E30E94FD141E
:100CB000522A5082632A6182742A7282152B13830E
:100CC000B62BB483A72BA5838683978372CF21305D
:100CD000310541F53FEF231A330A281A390A220C4D
:100CE000331C48EF242247E03422E20DF31D5080EC
:100CF000618072801381B681A7819401A501B6013C
:100D0000C70100E20E94FD14522A5082632A6182C8
:100D1000742A7282152B1383648375838B2B8683CD
:100D20009A2BD3CF2230310529F562E0260E311CF3
:100D3000281A390A220C331C88EF282287E038222F
:100D4000E20DF31D5080618074801581B681A7810A
:100D50009401A501B601C70100E10E94FD14522AC9
:100D60005082632A618242835383762A7482172BCE
:100D70001583D4CFA3E02A0E311C281A390A220C7D
:100D8000331CB8EF2B22B7E03B22E20DF31D52815A
:100D900043813481258196818781808291825A297D
:100DA00052834B2943833C2934832D2925839E2953
:100DB00096838F298783FDCEC801019763E070E099
:100DC0008D37910548F54101800E911EE090FC049D
:100DD000E091FF04F0E0EE0FFF1FF12CEE0DFF1D80
:100DE0008091020524E0829FC00111248E0F9F1F75
:100DF00062E070E08816990678F4000F111F0D5F0D
:100E00001F4F1093250400932404A6E2B4E0013898
:100E1000110528F064E070E083E090E072CE119656
:100E2000CD01865294408017910710F41C92F7CFA1
:100E300083E080932704035000932804C0900005AA
:100E4000D09001056090FD047090FE04A091FA041A
:100E5000B091FB04C101880F991F8D01080F191F64
:100E60001BAB0AAB83E090E02C014E1A5F0AD7015E
:100E7000A095B095BAA7A9A78214930409F499CEB6
:100E8000AAA9BBA92E143F04A0F12E163F06A8F56F
:100E900020FC24C0C1018E199F09880F991F8C7FE7
:100EA0009370860D971DDC014D915D916D917C9144
:100EB000AB01662777279A01D50113963C931397C8
:100EC00014962C93B2E0AB0EB11CAAA9BBA9129642
:100ED000BBABAAABBFEF2B1A3B0ACECF89A59AA515
:100EE000820D931D880F991F8C7F9370860D971D1F
:100EF000DC012C9111963C91DFCF81010370112709
:100F00000115110519F581010E1B1F0B000F111F93
:100F1000087F17700C0D1D1DD8012C9111963C9166
:100F2000119712964C91129713965C911397149601
:100F30006C91149715967C91159716968C9116972F
:100F400017969C9100E30E941815B6CF0130110549
:100F500011F50E1B1F0B020D131D000F111F087F33
:100F600017700C0D1D1DD8012C9111963C911197F5
:100F700012964C91129713965C91139714966C915C
:100F8000149715967C91159716968C91169717962F
:100F90009C9100E2D8CF0230110511F50E1B1F0BFA
:100FA000020D131D000F111F087F17700C0D1D1D62
:100FB000D8012C9111963C91119712964C91129751
:100FC00013965C91139714966C91149715967C91D7
:100FD000159716968C91169717969C9100E1B3CFB2
:100FE000C201820D931D880F991F887F97708C0D09
:100FF0009D1D7ECF9801215031092B37310530F4EA
:101000009801220F331F8217930729F063E070E0E5
:1010100080E190E076CDF101E00FF11FFBABEAAB90
:101020006090FC04A091FF04B0E0AA0FBB1F712CDC
:10103000A60DB71D80910205F4E08F9FC001112419
:101040008A0F9B1FCAA8DBA8C816D90618F062E051
:1010500070E0DECF86E090E0909325048093240436
:10106000F0922704309228042092290410922A0436
:1010700000932B0480900005909001054090FD04A2
:101080005090FE04E090FA04F090FB04FFAAEEAA50
:1010900083E090E0FC01EA1BFB0BF9AFE8AF6301D2
:1010A000C094D094DBAECAAEEAA8FBA82E143F04CD
:1010B00009F4D6C2F50147818085542F482F2614A4
:1010C000370480F4F101EE0FFF1FCEA8DFA8EC0D6E
:1010D000FD1D518340833FEF231A330A42E0A40EE3
:1010E000B11CE2CF2A163B0680F570E060E020FCE0
:1010F0001BC0F101E619F709EE0FFF1FEC7FF3703B
:10110000E40DF51D008111812281338122273327CF
:10111000BA0155274427402B512B622B732B408358
:10112000518362837383D7CFEAADFBADE20DF31D2C
:10113000EE0FFF1FEC7FF370E40DF51D00811181B0
:101140002281338100271127E6CFF101E370FF27C9
:101150006A01F12CE12C00E010E09801C9A6DAA6A2
:10116000EBA6FCA60DA71EA72FA738AB309759F505
:10117000F101EA1BFB0BEE0FFF1FE87FF770E80D94
:10118000F91DD080D9AAC180D280E380F480158176
:1011900029A53AA540E050E060E070E080E090E0F2
:1011A00000E30E94FD1409A9202B20833C293183F0
:1011B0004D2942835E295383F62AF482172B158327
:1011C0008683978388CFE130F10559F5EA1BFB0B45
:1011D000E20DF31DEE0FFF1FE87FF770E80DF91D1C
:1011E000108119ABC180D280E380F680178129A5D8
:1011F0003AA540E050E060E070E080E090E000E27E
:101200000E94FD1409A9202B20833C2931834D29FC
:101210004283E52AE382648375838F298683912B39
:10122000D0CFE230F10541F5EA1BFB0BE20DF31DD7
:10123000EE0FFF1FE87FF770E80DF91D108119AB65
:10124000C180D480E580F680178129A53AA540E0C9
:1012500050E060E070E080E090E000E10E94FD146A
:1012600009A9202B20833C29318342835383D62A2A
:10127000D482E72AE582D1CFE8ADF9ADE20DF31DC6
:10128000EE0FFF1FE87FF770E80DF91D19A5108319
:101290002AA5218320CFC8010197803D974028F0DF
:1012A00063E070E081E090E02CCC20910505C10165
:1012B000800F911F62E070E02817190698F3C801AB
:1012C00023E0969587952A95E1F79C012D5F3F4F86
:1012D0003093250420932404980127703327232B6F
:1012E00029F004969093250480932404809124048B
:1012F00090912504E6E2F4E08138910518F064E06D
:1013000070E0D0CF31969F0126523440281739071C
:1013100010F41082F7CF91E09093270483508093CC
:101320002804A0900305B090040570E060E020E080
:10133000C12CD12C7601C39426013701022E04C0A2
:10134000440C551C661C771C0A94D2F7FB0143E041
:10135000F695E7954A95E1F7E75DFB4F3081A101EE
:10136000A3E056954795AA95E1F74F7155274A0D89
:101370005B1DDA014C9150E0B22DB77002C055955B
:101380004795BA95E2F7842D40FF0FC0832B8083E9
:101390002F5F283009F420E0EFEF2E1A3E0A6F5F2E
:1013A0007F4F0617170741F604CC8095382330830A
:1013B000EFCFC801019763E070E0803D974060F592
:1013C00020910B05C101800F911F62E070E028178A
:1013D000190610F1C80133E0969587953A95E1F723
:1013E0009C012D5F3F4F30932504209324049801E6
:1013F00027703327232B29F004969093250480939C
:1014000024048091240490912504E6E2F4E08138DC
:10141000910528F064E070E082E090E072CB3196B4
:101420009F01265234402817390710F41082F7CF55
:1014300092E09093270483508093280460910905DB
:1014400070910A0550E040E0B12CC12CD12C7601FE
:10145000C394260137010B2C04C0440C551C661C98
:10146000771C0A94D2F7FA0183E0F695E7958A95FE
:10147000E1F7E75DFB4FA080910193E0369527955A
:101480009A95E1F7260F372F311DD9012C9130E0C5
:10149000B22DB77002C035952795BA95E2F7842D25
:1014A00020FF10C08A298083B394E8E0BE1201C0F7
:1014B000B12CFFEF2F1A3F0A4F5F5F4F041715073C
:1014C00041F677CB8095A822A082EECFC801019784
:1014D00063E070E08D379105C8F420910805C101E3
:1014E000800F911F62E070E02817190678F0C8019C
:1014F000880F991F03969093250480932404E6E2B5
:10150000F4E08138910528F064E070E084E090E038
:10151000F8CA31969F01265234402817390710F433
:101520001082F7CF94E0909327048350809328048F
:10153000220C331CE0910605F0910705E20DF31D26
:101540000150110922E0A20EB11C0F3F100709F44F
:1015500030CB808191813296D50111969C93119761
:1015600012968C93EDCF0115BFEF1B0729F063E0B6
:1015700070E00115110549F4809105058150990B22
:101580008215930528F462E070E085E090E0B9CA26
:1015900041E001151F4F09F040E060E0C1010E94E9
:1015A000220307CBA801F3E056954795FA95E1F79A
:1015B000242FB80167707727672B11F021E0240FE3
:1015C000A80141505109403B574018F4281719060B
:1015D00029F063E070E08FE090E093CA2091050568
:1015E000C101800F911F2817190618F462E070E0FE
:1015F000F2CF86E090E090932504809324048FE05E
:1016000080932704309228042092290410932A04FE
:1016100000932B04F12CE12CD12CF70173E0F6950B
:10162000E7957A95E1F7EA5DFB4F478150E00D2C95
:1016300002C0559547950A94E2F7417060E0C101F8
:101640008E0D9F1D0E942203D394E8E0CE2EDC1065
:1016500001C0D12C2FEFE21AF20A0E151F05E9F690
:1016600000912404109125047801F2E0EF0EF11CA2
:10167000F0922504E09224040E94E802F801EA5D59
:10168000FB4F908381838091AA0487FD09C061E0AC
:101690000E94C0008091A6049091A7040E94EE00D1
:1016A0008091AB049091AC04DC01ED91FC9102803F
:1016B000F381E02DA70166E274E009958091AB0407
:1016C0009091AC04DC01ED91FC910680F781E02D56
:1016D00009958091A6049091A7040E94EE00809144
:1016E000AA0487FD5DC960E00E94C00059C938E3C3
:1016F0002316310408F055C00833110508F051C015
:101700000215130508F44DC0610161E3A62E64E0E3
:10171000B62E712C612CC6010E942B024C01730164
:10172000E80EF91EC7010B9681389105C0F5C60178
:101730000E945102A401BC01C5010E945E16A80CC2
:10174000B91CC6010196370116010817190728F5BB
:10175000C7010796909325048093240483E4809323
:1017600027048EE7809328041092290420922A04EB
:101770008091A1069091A2062091A3063091A40623
:1017800030932B0420932C0490932D0480932E04EB
:10179000F0922F04E09230040CCA6C01BCCF7301AC
:1017A000D7CF83E090E0909325048093240483E4D2
:1017B0008093270481E828C045E124163104D8F439
:1017C000CE0101962C01FC01D12CC12C92E0A90E76
:1017D000B11C2C143D04D9F0D50112968C911297AE
:1017E00013969C9189279827892781939193BFEF1E
:1017F000CB1ADB0AEBCF83E090E090932504809333
:101800002404F092270482E880932804D2C9B12CE2
:10181000A12C19A6712C612C0BE010E0CA14DB047A
:1018200069F1F201E190F1902F01F8E3EF16F10474
:1018300040F083E090E0909325048093240484E4B6
:10184000B7CFC7010E942B024C011801280E391E88
:1018500021E82216310490F4C7010E945102A4012C
:10186000BC01C8018A5D9B4F0E945E16680C791C02
:101870003FEFA31AB30AE9A68101D0CF1093250444
:101880000093240484E4809327048EE78093280443
:1018900010922904C9A4C0922A048091A1069091B3
:1018A000A2062091A3063091A40630932B04209326
:1018B0002C0490932D0480932E0470922F04609238
:1018C000300477C908E32016310450F480912B04CA
:1018D00090912C049827892798278A37910540F002
:1018E00083E090E0909325048093240482E460CF09
:1018F0008101000F111F000F111FF801EA5FFC4F5B
:10190000E280F380809123048130D9F0F801EA5F0E
:10191000FC4F00811181D11034C0FAE0EF16F104C0
:1019200009F4B6C008F0A3C032E0E316F10409F4EC
:10193000BDC043E0E416F104B9F5F80182818D7F62
:1019400084C020E1E216F10409F3C1010E942B02D8
:101950009C0136952795FC01EA5DFB4FA6E2B4E0B9
:101960003197CD01865294408217930778F61796E7
:101970008C911797978117969C9317978783119649
:10198000EFCFC1010E942B026C013AE0E316F10493
:1019900081F1A8F462E0E616F10409F45DC083E089
:1019A000E816F10409F453C083E090E09093250415
:1019B0008093240482E4809327048EE725CF93E26A
:1019C000E916F104C1F1A7E3EA16F104E9F0BFE07A
:1019D000EB16F10449F7A6016DE274E0C8010E941C
:1019E0005E16D80111968C911197826011968C9396
:1019F000DBCFAC016DE274E0C8010E945E16F80115
:101A0000808582608087D0CFA6016DE274E0F80106
:101A1000808191810E945E16A6016DE274E0C8018A
:101A200003960E945E16D80112968C9112978260DE
:101A300012968C93B9CFA6016DE274E0C8010396AB
:101A40000E945E16F801828182608283ADCFA6017A
:101A50006DE274E0C801E5CFAC016DE274E0C8014D
:101A60000E945E16F8018181826081839DCF63E2CE
:101A7000E616F104A9F087E3E816F10489F09FE087
:101A8000E916F10409F090CFF80181818D7FEDCF47
:101A9000D80118968C9118978D7F18968C9384CFC7
:101AA000D80112968C9112978D7FC2CFD8011196D2
:101AB0008C9111978D7F9ACF2E3D3D4A21F481E084
:101AC000809323044DC883E090E090932504809395
:101AD000240446C830932504209324046AC81F9226
:101AE0000F920FB60F9211242F933F938F939F93D2
:101AF000AF93BF938091AF069091B006A091B106CD
:101B0000B091B2063091AE0623E0230F2D3758F581
:101B10000196A11DB11D2093AE068093AF06909350
:101B2000B006A093B106B093B2068091B30690912F
:101B3000B406A091B506B091B6060196A11DB11DDF
:101B40008093B3069093B406A093B506B093B606FF
:101B5000BF91AF919F918F913F912F910F900FBEA9
:101B60000F901F90189526E8230F0296A11DB11D16
:101B7000D2CF1F920F920FB60F9211242F933F9343
:101B80004F935F936F937F938F939F93AF93BF9385
:101B9000EF93FF938CE095E00E949C01FF91EF9101
:101BA000BF91AF919F918F917F916F915F914F9175
:101BB0003F912F910F900FBE0F901F9018951F927D
:101BC0000F920FB60F9211242F938F939F93EF9341
:101BD000FF93E0911C05F0911D058081E0912205A5
:101BE000F091230582FD1BC09081809125058F5FB8
:101BF0008F7320912605821741F0E0912505F0E0D2
:101C0000E45FFA4F958F80932505FF91EF919F91A7
:101C10008F912F910F900FBE0F901F90189580817C
:101C2000F4CFCF93DF93CDB7DEB7A8970FB6F89474
:101C3000DEBF0FBECDBF789484B5826084BD84B50D
:101C4000816084BD85B5826085BD85B5816085BDB7
:101C500080916E00816080936E001092810080916F
:101C600081008260809381008091810081608093F7
:101C70008100809180008160809380008091B1001C
:101C800084608093B1008091B00081608093B00047
:101C900080917A00846080937A0080917A008260DB
:101CA00080937A0080917A00816080937A0080919D
:101CB0007A00806880937A001092C1001092B90572
:101CC0001092BA051092BB051092BC0580E890EF07
:101CD000AAEFB2E08093BD059093BE05A093BF0527
:101CE000B093C0051092C3051092C2051092C505AD
:101CF00011E01093C7051093C9051092CB051092FF
:101D0000CD051092CE051092CF051092D0051092FD
:101D1000D1051092D2051092D3051092D4051092DD
:101D2000D6051092D8051092D9051092DA051092B6
:101D3000DB051092DC051092DD051092DE05109295
:101D4000DF051092E1051092E3051092E50510926F
:101D5000E6051092E7051092E8051092E905109249
:101D6000EA051092EB051092EC051092EE05109228
:101D7000EF051092F0051092F1051092F205109205
:101D8000F3051092F4051092F50587EF95E00E9497
:101D90008C00109201061093030610930506109212
:101DA00007061092090610920C0610920B0610926C
:101DB0000E06109211061092100683E196E00E9422
:101DC0008C0010921D0610921F0610922106109290
:101DD000230685E296E00E948C0010922F06E2E234
:101DE000F4E0F0933206E09331061092220461E2AF
:101DF00074E070933606609335061092210440E239
:101E000054E050933A0640933906109220042FE193
:101E100034E030933E0620933D0610921F048EE17D
:101E200094E0909342068093410610921E04109213
:101E30004506109247061092490610924B061092E2
:101E40004D0610924F0610925106109253061092B2
:101E5000550610925706F093AA05E093A9057093D2
:101E60005A066093590650935C0640935B06309384
:101E70005E0620935D069093600680935F06E1EA1C
:101E8000F0E02491EDE8F0E084918823C9F090E03F
:101E9000880F991FFC01E859FF4FA591B491FC01EF
:101EA000E458FF4F459154913FB7F8949C91822F8D
:101EB000809598239C93DA019C9189238C933FBF52
:101EC000A8EFB3E08D9190E0FC01E656FF4F24911E
:101ED0008A579F4FFC0184918823A1F090E0880FDE
:101EE000991FFC01E859FF4F45915491FC01E458BA
:101EF000FF4F859194918FB7F894FA019081292B27
:101F000020838FBFF3E0AC3FBF07E1F6E0911C05F3
:101F1000F0911D0582E08083E0911805F09119058C
:101F20001082E0911A05F0911B0580E180831092E8
:101F30002405E0912005F091210596E09083E09141
:101F40001E05F0911F05808180618083E0911E0550
:101F5000F0911F05808188608083E0911E05F091DB
:101F60001F05808180688083E0911E05F0911F0528
:101F700080818F7D80832CE035E03093AC0420930A
:101F8000AB048FEF8093AA042EEE32E03093A904C5
:101F90002093A80421E43AE03093A7042093A604F8
:101FA00081E08093F90480E28093FC041092FF04A6
:101FB00010920205809305059093080588E08093B0
:101FC0000B0584E090E00E943915909304058093FE
:101FD0000305009779F124E0DC011D922A95E9F7C9
:101FE00080E490E00E9439159093FB048093FA04FA
:101FF000009701F120E4FC0111922A95E9F781E0B4
:1020000090E00E94391590930A0580930905009786
:1020100089F0DC011C928CE090E00E9439159093CD
:10202000070580930605009729F02CE0FC0111922A
:102030002A95E9F710E000E0C801880F991F9C017C
:10204000275A394F7901D9018D919C91892B49F4F7
:1020500081E090E00E943915F70191838083DC01D3
:102060001C920F5F1F4F0032110531F72091FA04C7
:102070003091FB04E9EBF4E090E080E04191519174
:10208000452B39F4DF011297A901480F591F4D93D1
:102090005C9302968034910589F709EA15E079EBA3
:1020A000E72E75E0F72EF801819191918F01892B30
:1020B00051F481E090E00E943915F8013297918344
:1020C0008083DC011C92E016F10669F74091060559
:1020D00050910705EDEAF4E090E080E02191319124
:1020E000232B49F4DF0112979C01220F331F240F89
:1020F000351F2D933C9301968630910579F780E248
:102100009EE4A0E0B0E08093A6069093A706A0937B
:10211000A806B093A9060E94F9006093AA067093DE
:10212000AB068093AC069093AD068E010F5E1F4FF9
:10213000FF24F39432E0E32E40E0242E40E0342EDE
:102140000E94F9008090AA069090AB06A090AC0681
:10215000B090AD06681979098A099B098090A60696
:102160009090A706A090A806B090A90668157905DA
:102170008A059B0508F454C28091A9059091AA058F
:10218000892B01F1E5EBF0E08491E1EAF0E0C49005
:10219000EDE8F0E0D490DD2079F081110E94970005
:1021A000ED2DF0E0EE0FFF1FEE58FF4FA591B4911B
:1021B0008C91C82281E009F480E0E091A905F091BA
:1021C000AA0580838091A1069091A206A091A30602
:1021D000B091A4060196A11DB11D8093A106909314
:1021E000A206A093A306B093A4068091080681FDE1
:1021F00004C0809145068093070680910A0681FD00
:1022000004C0809101068093090680910D0681FD2E
:1022100006C024E030E030930C0620930B0680913A
:10222000060682709091030691111BC2811102C0B3
:10223000109205068091CC0581FD08C0809133067F
:1022400081FF58C2809134068093CB058091D505DB
:1022500081FD09C088E0E9EBF5E0ADECB5E0019067
:102260000D928A95E1F78091CA0582709091C70519
:10227000911146C2811102C01092C9058091C60514
:1022800081FD04C08091D6058093C5058091FC0531
:1022900081FD04C08091C5058093FB0587EF95E023
:1022A0000E947B028091480681FD22C09091C20568
:1022B0002091C3058091FD0530914506398B1F9211
:1022C000EF922F939F931F92EF921F930F938F93F1
:1022D0000E946303909146060FB6F894DEBF0FBECE
:1022E000CDBF91FD03C09989909345068093470621
:1022F00080914506882341F08091020681FD04C04B
:1023000080914706809301068091C40581FD08C035
:1023100080911006909111069093C3058093C20599
:1023200080914C0681FD20C08091C2059091C3052B
:1023300020914906298B1F921F929F938F931F9282
:10234000EF921F930F93FF920E944E0390914A06C3
:102350000FB6F894DEBF0FBECDBF91FD03C09989C3
:102360009093490680934B068091430681FD0FC0F0
:1023700080911D06882329F081E0909149069111F2
:1023800001C080E0E0914106F09142068083809197
:102390004906882341F080911E0681FD04C080918A
:1023A0004B0680931D068091500681FD20C08091D0
:1023B000C2059091C30520914D06298B1F92FF9273
:1023C0009F938F931F92EF921F930F93FF920E9400
:1023D0004E0390914E060FB6F894DEBF0FBECDBFF0
:1023E00091FD03C0998990934D0680934F0680918B
:1023F0003F0681FD0FC080911F06882329F081E0F0
:1024000090914D06911101C080E0E0913D06F09160
:102410003E06808380914D06882341F080912006FE
:1024200081FD04C080914F0680931F068091540661
:1024300081FD20C08091C2059091C3052091510675
:10244000298B1F92EF929F938F931F92EF921F936E
:102450000F93FF920E944E03909152060FB6F8948C
:10246000DEBF0FBECDBF91FD03C099899093510689
:102470008093530680913B0681FD0FC08091210619
:10248000882329F081E090915106911101C080E0EC
:10249000E0913906F0913A068083809151068823B5
:1024A00041F08091220681FD04C080915306809303
:1024B00021068091580681FD21C08091C20590912E
:1024C000C30520915506298B1F92F3E0FF939F933C
:1024D0008F931F92EF921F930F93FF920E944E03D0
:1024E000909156060FB6F894DEBF0FBECDBF91FD9A
:1024F00003C09989909355068093570680913706BB
:1025000081FD0FC080912306882329F081E09091FE
:102510005506911101C080E0E0913506F091360634
:10252000808380915506882341F08091240681FDA7
:1025300004C0809157068093230689E5C82E86E063
:10254000D82E98EF692E93E0792ED601ED91FD916A
:102550006D01309729F06081F30180810E94C000F5
:10256000FFEF6F1A7F0A21E636E02C153D0569F76B
:1025700080919D0690919E06A0919F06B091A00625
:10258000AC01BD01535D6E4C7E4F41153AEC5307D3
:102590003AE963073BE3730708F0DFC140939D0608
:1025A00050939E0660939F067093A0060E94BA0304
:1025B0008091A506811118C0F092A5060E94F9002D
:1025C0002091A6063091A7064091A8065091A90631
:1025D000621B730B840B950B6093AA067093AB067A
:1025E0008093AC069093AD068091AA069091AB06BD
:1025F000A091AC06B091AD064091A6065091A706F9
:102600006091A8067091A906840F951FA61FB71F99
:102610008093AA069093AB06A093AC06B093AD0648
:102620000E94F9002091AA063091AB064091AC06B9
:102630005091AD06621B730B840B950B6031774292
:102640008105910510F00E94BA032114310409F4A8
:1026500077CD0E948801882309F46ACD0E9400008A
:1026600067CD811102C0F09205068091180681FDA8
:1026700004C0809107068093170683E196E00E94CC
:102680007B02809109068823E1F08091120681FD8A
:1026900004C0109211061092100680910F0681FD61
:1026A000C9CD81E0409110065091110620910B0692
:1026B00030910C06421753070CF480E080930E060D
:1026C000B9CD80911906882341F38091100690912D
:1026D000110620910B0630910C0682179307ECF639
:1026E0002091120621FDD9CF019690931106809377
:1026F0001006D3CFE0913106F09132068081A4CD4F
:10270000811102C0F092C9058091ED0581FD09C0DB
:1027100088E0E9E9F6E0A5EEB5E001900D928A9532
:10272000E1F7D090E1058091CB05D1101EC09091CA
:10273000E305911132C18823D1F08091E20581FF38
:10274000F092E1058091D70581FF1092D605809126
:10275000F60581FD2AC088E0E5EEF5E0AEEEB5E0D5
:1027600001900D928A95E1F720C0811127C08091D8
:10277000E00581FD10C01092D8051092D905109285
:10278000DA051092DB051092DC051092DD0510923F
:10279000DE051092DF058091D70581FF1092D605E6
:1027A0008091E20581FF1092E1058091E40581FDB1
:1027B00065CD8091CB058093E30560CD31E0D312E8
:1027C000F4CF4090F2055090F3056090F4057090BE
:1027D000F5058091D1059091D205A091D305B091D6
:1027E000D4054091CD055091CE056091CF057091F3
:1027F000D0058090EE059090EF05A090F005B09088
:10280000F105480D591D6A1D7B1D498B5A8B6B8B39
:102810007C8B840D951DA61DB71D8D8B9E8BAF8B5C
:10282000B88FC8010E949A0288E0F801DE0159962B
:1028300001900D928A95E1F788E0FE017996DE011C
:10284000919601900D928A95E1F700D000D000D0CA
:1028500000D0ADB7BEB7119688E0E5EEF5E0019087
:102860000D928A95E1F700D000D000D000D0ADB72E
:10287000BEB7119688E0FE01B19601900D928A953F
:10288000E1F71F92EF921F921F92DF920E947D0349
:102890000FB6F894DEBF0FBECDBF9091E005882340
:1028A00091F08091E20581FFE092E1058091D705EA
:1028B00081FFF092D60588E0EDECF5E091FD75CF53
:1028C000A8EDB5E04DCF91FD70CF8091E9059091D5
:1028D000EA05A091EB05B091EC054090F20550900F
:1028E000F3056090F4057090F5054091E505509171
:1028F000E6056091E7057091E805A090EE05B090BF
:10290000EF05C090F005D090F1054A195B096C09FC
:102910007D09498B5A8B6B8B7C8B84199509A60991
:10292000B7098D8B9E8BAF8BB88FC8010E949A021E
:1029300088E0F801DE01119601900D928A95E1F789
:1029400088E0FE013196DE01199601900D928A957C
:10295000E1F788E0FE013996B3CF40919906509196
:102960009A0660919B0670919C069D59A946BA43B0
:1029700080939D0690939E06A0939F06B093A00619
:102980004F5F5F4F6F4F7F4F4093990650939A066A
:1029900060939B0670939C0609CE811106CFE7CE0B
:1029A000ECE0F5E01382128288EE93E0A0E0B0E064
:1029B00084839583A683B7838AEE93E09183808393
:1029C00085EC90E09587848784EC90E097878687F4
:1029D00080EC90E0918B808B81EC90E0938B828BEC
:1029E00082EC90E0958B848B86EC90E0978B868BC5
:1029F000118E128E138E148E0895002E083090F0D2
:102A0000982F872F762F652F542F432F322F222771
:102A10000850F4CF220F331F441F551F661F771F26
:102A2000881F991F0A95B2F7002D089597FD1094FD
:102A3000002E083098F00850232F342F452F562FA2
:102A4000672F782F892F912DF4CF1594979587951F
:102A50007795679557954795379527950A95AAF7DE
:102A60001124002D0895EE0FFF1F0590F491E02D25
:102A700009940F931F93CF93DF938230910510F445
:102A800082E090E0E091B906F091BA0630E020E0F3
:102A9000B0E0A0E0309799F42115310509F44AC05F
:102AA000281B390B24303105D8F58A819B816115AB
:102AB000710589F1FB0193838283FE0111C040817E
:102AC00051810281138148175907E0F048175907CF
:102AD00099F4109761F012960C93129713961C9329
:102AE0003296CF01DF91CF911F910F9108950093FE
:102AF000B9061093BA06F4CF2115310551F04217EB
:102B0000530738F0A901DB019A01BD01DF01F8018B
:102B1000C1CFEF01F9CF9093BA068093B906CDCF1C
:102B2000FE01E20FF31F8193919322503109398303
:102B30002883D7CF2091B7063091B806232B41F4D4
:102B400020910201309103013093B8062093B7061B
:102B500020910001309101012115310541F42DB77B
:102B60003EB74091040150910501241B350BE091C3
:102B7000B706F091B806E217F307A0F42E1B3F0B3F
:102B80002817390778F0AC014E5F5F4F24173507DF
:102B900048F04E0F5F1F5093B8064093B7068193DD
:102BA00091939FCFF0E0E0E09CCFCF93DF9300972D
:102BB000E9F0FC01329713821282A091B906B0911C
:102BC000BA06ED0130E020E01097A1F420813181B8
:102BD000820F931F2091B7063091B8062817390746
:102BE00009F061C0F093B806E093B706DF91CF918A
:102BF0000895EA01CE17DF07E8F54A815B819E015F
:102C000041155105B1F7E901FB83EA8349915991D7
:102C1000C40FD51FEC17FD0761F4808191810296E6
:102C2000840F951FE90199838883828193819B8317
:102C30008A83F0E0E0E012968D919C9113970097C3
:102C4000B9F52D913C911197CD010296820F931FFA
:102C50002091B7063091B8062817390739F6309712
:102C600051F51092BA061092B906B093B806A09327
:102C7000B706BCCFD383C28340815181840F951F97
:102C8000C817D90761F44E5F5F4F88819981480F5B
:102C9000591F518340838A819B81938382832115AD
:102CA000310509F0B0CFF093BA06E093B9069ECF94
:102CB000FD01DC01C0CF13821282D7CFFB01DC0102
:102CC00002C001900D9241505040D8F70895F894F9
:022CD000FFCF34
:102CD2000000BB06800000C0C101C30302C2C606D9
:102CE20007C705C5C404CC0C0DCD0FCFCE0E0ACA42
:102CF200CB0BC90908C8D81819D91BDBDA1A1EDE92
:102D0200DF1FDD1D1CDC14D4D515D71716D6D21241
:102D120013D311D1D010F03031F133F3F23236F651
:102D2200F737F53534F43CFCFD3DFF3F3EFEFA3A01
:102D32003BFB39F9F83828E8E929EB2B2AEAEE2E91
:102D42002FEF2DEDEC2CE42425E527E7E62622E201
:102D5200E323E12120E0A06061A163A3A26266A651
:102D6200A767A56564A46CACAD6DAF6F6EAEAA6AC1
:102D72006BAB69A9A86878B8B979BB7B7ABABE7E11
:102D82007FBF7DBDBC7CB47475B577B7B67672B2C1
:102D9200B373B17170B05090915193535292965651
:102DA2005797559594549C5C5D9D5F9F9E5E5A9A81
:102DB2009B5B99595898884849894B8B8A4A4E8E11
:102DC2008F4F8D4D4C8C4484854587474686824281
:102DD20043834181804000C1814001C0804101C0E4
:102DE200804100C1814001C0804100C1814000C1D9
:102DF200814001C0804101C0804100C1814000C1C9
:102E0200814001C0804100C1814001C0804101C0B8
:102E1200804100C1814001C0804100C1814000C1A8
:102E2200814001C0804100C1814001C0804101C098
:102E3200804100C1814000C1814001C0804101C088
:102E4200804100C1814001C0804100C1814000C178
:102E5200814001C0804101C0804100C1814000C168
:102E6200814001C0804100C1814001C0804101C058
:102E7200804100C1814000C1814001C0804101C048
:102E8200804100C1814001C0804100C1814000C138
:102E9200814001C0804100C1814001C0804101C028
:102EA200804100C1814001C0804100C1814000C118
:102EB200814001C0804101C0804100C1814000C108
:102EC200814001C0804100C1814001C0804101C0F8
:102ED200804100C18140B9050A00C2050300C50551
:102EE2000F00C7050F00C9050F00CB050F00CD0568
:102EF2000A00D6050F00D8050A00E1050200E30525
:102F02000F00E5050A00EE050A00F7050F00F905B6
:102F12000F00FB050F00FD050F00FF050F00010666
:102F22000F0003060F0005060F0007060F00090633
:102F32000F000B0603000E060F0010060300130617
:102F42000F0015060F0017060F0019060F001B06CB
:102F52000F001D060F001F060F0021060F0023069B
:102F62000F0025060F0027060F0029060F002B066B
:102F72000F002D060F002F060F0031062300350625
:102F82003700390637003D0637004106370045064F
:102F92000F0047060F0049060F004B060F004D06B3
:102FA2000F004F060F0051060F0053060F00550683
:102FB2000F0057060F0000000000BE011E014B016A
:102FC2000B027C015A016E010A0B0C0D39303533AC
:102FD2006133306363373164336632653463663438
:0E2FE20061643561306366636131343700002D
:00000001FF
