:100000000C9458000C9480000C9480000C94800098
:100010000C9480000C9480000C9480000C94800060
:100020000C9480000C9480000C9480000C94800050
:100030000C9480000C9480000C9480000C94800040
:100040000C94F00C0C9480000C94600D0C943A0D00
:100050000C9480000C9480000C9480000C94800020
:100060000C9480000C948000000000002500280003
:100070002B00040404040404040402020202020229
:10008000030303030303010204081020408001025C
:1000900004081020010204081020000000080002DB
:1000A00001000003040700000000000000005911D7
:1000B00011241FBECFEFD8E0DEBFCDBF13E0A0E01C
:1000C000B1E0E4EEF5E202C005900D92AA39B10765
:1000D000D9F726E0AAE9B3E001C01D92A830B20723
:1000E000E1F710E0C8E5D0E004C02197FE010E94CE
:1000F000BC11C735D107C9F70E94920D0C94F012BC
:100100000C940000FC0181E08083828314821682BB
:100110001782108611861286138614861586178616
:10012000118A128A138A148A158A168A178A108EDF
:10013000128E148E168E178E10A211A212A213A266
:1001400014A215A217A210A611A612A613A614A6F1
:1001500015A616A6089590E0FC01E656FF4F2491DF
:10016000FC01EA57FF4F3491FC01EE58FF4FE49138
:10017000EE23C9F0222339F0233001F1A8F4213015
:1001800019F1223029F1F0E0EE0FFF1FE859FF4F7F
:10019000A591B4918FB7F894EC91611126C0309578
:1001A0003E233C938FBF08952730A9F02830C9F033
:1001B000243049F7809180008F7D03C080918000BA
:1001C0008F7780938000DFCF84B58F7784BDDBCFBE
:1001D00084B58F7DFBCF8091B0008F778093B00086
:1001E000D2CF8091B0008F7DF9CF3E2BDACF823015
:1001F000910538F0880F991F880F991F059701976F
:10020000F1F708953FB7F8948091000690910106A8
:10021000A0910206B091030626B5A89B05C02F3F0A
:1002200019F00196A11DB11D3FBFBA2FA92F982F1C
:100230008827BC01CD01620F711D811D911D42E017
:10024000660F771F881F991F4A95D1F70895AF92BF
:10025000BF92CF92DF92EF92FF920F931F93CF93B3
:10026000DF936C017B018B01040F151FEB015E0115
:10027000AE18BF08C017D10759F06991D601ED91AA
:10028000FC910190F081E02DC6010995892B79F749
:10029000C501DF91CF911F910F91FF90EF90DF90FB
:1002A000CF90BF90AF900895FC01538D448D252FC2
:1002B00030E0842F90E0821B930B541710F0CF9600
:1002C000089501970895FC01918D828D981761F032
:1002D000A28DAE0FBF2FB11D5D968C91928D9F5F49
:1002E0009F73928F90E008958FEF9FEF0895FC0128
:1002F000918D828D981731F0828DE80FF11D858DDB
:1003000090E008958FEF9FEF0895FC01918D228D6D
:10031000892F90E0805C9F4F821B91098F739927F2
:10032000089583ED94E00E94850121E0892B09F472
:1003300020E0822F089580E090E0892B29F00E9430
:10034000910181110C9400000895FC01A48DA80F67
:10035000B92FB11DA35ABF4F2C91848D90E0019607
:100360008F739927848FA689B7892C93A089B18927
:100370008C91837080648C93938D848D981306C0C8
:100380000288F389E02D80818F7D80830895EF922C
:10039000FF920F931F93CF93DF93EC0181E0888F3F
:1003A0009B8D8C8D98131AC0E889F989808185FF0F
:1003B00015C09FB7F894EE89FF896083E889F989B1
:1003C00080818370806480839FBF81E090E0DF91B3
:1003D000CF911F910F91FF90EF900895F62E0B8D06
:1003E00010E00F5F1F4F0F731127E02E8C8D8E11C1
:1003F0000CC00FB607FCFACFE889F989808185FF28
:10040000F5CFCE010E94A501F1CFEB8DEC0FFD2FB2
:10041000F11DE35AFF4FF0829FB7F8940B8FEA89E2
:10042000FB8980818062CFCFCF93DF93EC01888DF1
:100430008823B9F0AA89BB89E889F9898C9185FD5F
:1004400003C0808186FD0DC00FB607FCF7CF8C91ED
:1004500085FFF2CF808185FFEDCFCE010E94A501FF
:10046000E9CFDF91CF910895880F991F880F991FC9
:10047000FC01EA5FFC4F80819181228133812A3027
:10048000310541F02F30310529F02230310511F0CE
:1004900080E090E0089588319105B8F4880F991FA5
:1004A000880F991FFC01EA5FFC4F828193818A309B
:1004B000910541F08F30910511F0029731F481E000
:1004C00090E0089588E090E0089590E080E008953D
:1004D000FC0184819581A681B7814081518162812F
:1004E0007381811526E3920725E6A20724ECB20763
:1004F0003CF014161506160617068CF4B7FF0FC04D
:1005000041505109610971094083518362837383AA
:100510009653A546B44C84839583A683B783848180
:100520009581A681B781408151816281738181303B
:100530002AEC92072AE9A2072BE3B2073CF477FFE3
:1005400014C0181619061A061B067CF44F5F5F4F7D
:100550006F4F7F4F40835183628373839A5CAA49B4
:10056000BB4384839583A683B783089520919D031D
:10057000209530E0F901EA5FFD4F908190952A5F68
:100580003E4FD9018C9140919B0350919C03425066
:100590005109EDE9F3E031969F012D5933402417BD
:1005A000350770F420819227292F30E0D901AA5F06
:1005B000BD4F9C9198272A5F3E4FD9018C91EBCF7C
:1005C000089523E030E030939C0320939B03EDE9F2
:1005D000F3E09091C00490838058818362830895F2
:1005E0000F931F93582F577001E010E020E030E088
:1005F00004C0000F111F221F331F5A95D2F723E0AA
:10060000969587952A95E1F79927E091CA04F0918C
:10061000CB04662321F0E091D004F091D104E80FDF
:10062000F91F8081442329F0082B00831F910F912B
:10063000089500950823F9CFCF92DF92EF92FF92B1
:100640000F931F93CF93DF93CDB7DEB78889998936
:10065000AA89BB894C895D896E897F89088D198D2E
:100660002A8D3B8DCC8CDD8CEE8CFF8C8017910716
:10067000A207B30759F44C195D096E097F091416D6
:100680001506160617065CF081E00AC0801B910B68
:10069000A20BB30B181619061A061B06ACF780E05E
:1006A000DF91CF911F910F91FF90EF90DF90CF904E
:1006B00008952F923F924F925F926F927F928F9206
:1006C0009F92AF92BF92CF92DF92EF92FF920F93E1
:1006D0001F93CF93DF93CDB7DEB7EC970FB6F894A7
:1006E000DEBF0FBECDBF10E000E0F801EE0FFF1F30
:1006F000E058FB4F0190F081E02D309749F041E048
:100700008081811101C040E060E0C8010E94F002D8
:100710000F5F1F4F0032110541F700E414E01EABDC
:100720000DABE091C104F091C2049F01205C3F4FEA
:10073000A801DA018D919D91AD01009729F0DC01AE
:100740008D919C919183808332962E173F0789F774
:10075000E0E3EE2EE4E0FE2E10E000E0D701ED91A4
:10076000FD917D01309749F041E08081811101C008
:1007700040E061E0C8010E94F0020F5F1F4F0830A7
:10078000110561F744E254E0E091CD04F091CE040C
:100790009F01245F3F4FDA018D919D91AD0100973C
:1007A00029F0DC018D919C919183808332962E17E4
:1007B0003F0789F710929C0310929B0380912204BB
:1007C00090912304DC01ED91FC910084F185E02DF2
:1007D0000995892B09F483C0809122049091230408
:1007E000DC01ED91FC910084F185E02D09952091CB
:1007F0009B0330919C03A0912204B0912304ED91BE
:10080000FC9111970084F185E02D2817390768F4D1
:10081000CD01099590939C0380939B0380911F04C5
:10082000909120040E94F700D7CFCD01099581381F
:1008300091050CF054C08091220490912304DC01B6
:10084000ED91FC910084F185E02D099506970CF45B
:1008500046C07DE9472E73E0572E720100919B033D
:1008600010919C03C7018D5993408017910778F42C
:100870008091220490912304DC01ED91FC9102848B
:10088000F385E02D0995F70181937F01E7CFF09083
:100890009E038FEB8F0D853080F00E94B602980189
:1008A00023563C4FF9013297408121503109D9013B
:1008B0002C91342F2817390791F490919D03809142
:1008C000C004981709F464C0809122049091230415
:1008D000DC01ED91FC910680F781E02D09954091B6
:1008E000CA045091CB0430E020E0F901EE0FFF1F65
:1008F000E058FB4FA081B181109799F0F90183E096
:10090000F695E7958A95E1F7E40FF51F808190E071
:10091000622F677002C0959587956A95E2F781709E
:100920008C932F5F3F4F20323105F9F6E091C104DF
:10093000F091C204CF01805C9F4FADA9BEA94D913B
:100940005D91BEABADAB4115510529F020813181E0
:10095000DA012D933C9332968E179F0771F7EC9630
:100960000FB6F894DEBF0FBECDBFDF91CF911F91C0
:100970000F91FF90EF90DF90CF90BF90AF909F903E
:100980008F907F906F905F904F903F902F90089541
:100990000250110910939C0300939B0320919F0325
:1009A0003091A003322E232E0091A1031091A203B7
:1009B000102701271027D090A1038091A30390E076
:1009C000BFE0FB1609F48CC5BF15E8F1E3E0FE16A5
:1009D00009F491C1EF1570F0F1E0FF1609F4FAC3C4
:1009E00062E0C62EFC1409F482C461E070E08F2D31
:1009F00090E026C055E0D52EFD1409F452C5FD1433
:100A000008F402C546E0E42EFE10EFCF2091C304A7
:100A10008091C60490E0880F991F30E0820F931FE9
:100A20004091C904B4E04B9FA0011124480F591F05
:100A30002416350608F44FC062E070E086E090E0CE
:100A40000E94E10255C042E4F41609F40FC74F15A5
:100A5000A8F060E1F61609F46CC281E4F812C5CF83
:100A600084E090E090939C0380939B03F0929E031C
:100A700010929F0388E18093A0033AC094E4F91692
:100A800009F456C6F91608F4D0C5A5E4FA12ADCF9C
:100A90002D3ABEED3B0709F090C710929A0385E40A
:100AA00080939E038EE780939F0381E2E8E7F3E063
:100AB000DE01119601900D928A95E1F7FE013196C3
:100AC000A0EAB3E081919D012D593340882309F4B8
:100AD00082C78D93F7CF22163306D8F4220C331C2D
:100AE000E091C104F091C204E20DF31D1183008373
:100AF00080919B0390919C0302968138910508F4A4
:100B00004DC580919E0364E070E090E00E94E10298
:100B100045C52816390608F040C0A80170E060E01D
:100B2000E091C404F091C50420FC1CC0221A330AD1
:100B3000220C331C0CEF202203E03022E20DF31DC7
:100B400080819181A281B381AA27BB27BA01552751
:100B50004427842B952BA62BB72B80839183A283CC
:100B6000B383C6CF20953095220E331E220C331C42
:100B70001CEF212213E03122E20DF31D00811181CF
:100B80002281338100271127042B152B262B372B8D
:100B90000083118322833383ABCF910123703327EA
:100BA0004801B12CA12CC12CD12C7601E091C704B5
:100BB000F091C8042115310549F5281A390A220C8B
:100BC000331C28EF222227E03222E20DF31D508051
:100BD000618072801381B481A581940140E050E06E
:100BE00060E070E080E090E000E30E948611522A0D
:100BF0005082632A6182742A7282152B1383B62B6A
:100C0000B483A72BA5838683978372CF21303105C8
:100C100041F53FEF231A330A281A390A220C331CF4
:100C200048EF242247E03422E20DF31D508061801A
:100C300072801381B681A7819401A501B601C70115
:100C400000E20E948611522A5082632A6182742A2D
:100C50007282152B1383648375838B2B86839A2B67
:100C6000D3CF2230310529F562E0260E311C281A37
:100C7000390A220C331C88EF282287E03822E20D43
:100C8000F31D5080618074801581B681A781940125
:100C9000A501B601C70100E10E948611522A5082C7
:100CA000632A618242835383762A7482172B1583C9
:100CB000D4CFA3E02A0E311C281A390A220C331C87
:100CC000B8EF2B22B7E03B22E20DF31D52814381A6
:100CD0003481258196818781808291825A2952832D
:100CE0004B2943833C2934832D2925839E299683D0
:100CF0008F298783FDCEC801019763E070E08D37AF
:100D0000910548F54101800E911EE090C304E091E9
:100D1000C604F0E0EE0FFF1FF12CEE0DFF1D8091D9
:100D2000C90424E0829FC00111248E0F9F1F62E03E
:100D300070E08816990678F4000F111F0D5F1F4FA1
:100D400010939C0300939B03ADE9B3E001381105B8
:100D500028F064E070E083E090E072CE1196CD015F
:100D60008D5993408017910710F41C92F7CF83E0C0
:100D700080939E03035000939F03C090C704D090BC
:100D8000C804A090C404B090C504A091C104B0915F
:100D9000C204C101880F991F8D01080F191F1AABDA
:100DA00009AB83E090E0DC01AE1BBF0BBAA7A9A79B
:100DB0003701609470948214930409F499CEA9A920
:100DC000BAA92E143F0498F12E163F06A0F520FC78
:100DD00024C0C1018E199F09880F991F8C7F9370C1
:100DE0008A0D9B1DDC014D915D916D917C91AB0154
:100DF000662777279A01D20113963C93139714968E
:100E00002C93B2E04B0E511CA9A9BAA91296BAAB09
:100E1000A9ABBFEF2B1A3B0ACECFC301820D931DA6
:100E2000880F991F8C7F93708A0D9B1DDC012C917C
:100E300011963C91E0CF8101037011270115110536
:100E400019F581010E1B1F0B000F111F087F177072
:100E50000C0D1D1DD8012C9111963C9111971296E5
:100E60004C91129713965C91139714966C9114976A
:100E700015967C91159716968C91169717969C91BE
:100E800000E30E94A111B7CF0130110511F50E1B2F
:100E90001F0B020D131D000F111F087F17700C0D83
:100EA0001D1DD8012C9111963C91119712964C91D1
:100EB000129713965C91139714966C91149715964C
:100EC0007C91159716968C91169717969C9100E237
:100ED000D8CF0230110511F50E1B1F0B020D131D8B
:100EE000000F111F087F17700C0D1D1DD8012C91CC
:100EF00011963C91119712964C91129713965C9112
:100F0000139714966C91149715967C9115971696D5
:100F10008C91169717969C9100E1B3CF89A59AA55D
:100F2000820D931D880F991F887F97708C0D9D1DD2
:100F30007DCF9801215031092B37310530F49801CC
:100F4000220F331F8217930729F063E070E080E1DE
:100F500090E076CDF101E00FF11FFAABE9AB6090C4
:100F6000C304A091C604B0E0AA0FBB1F712CA60D4C
:100F7000B71D8091C904F4E08F9FC00111248A0F2E
:100F80009B1FC9A8DAA8C816D90618F062E070E05D
:100F9000DECF86E090E090939C0380939B03F092D9
:100FA0009E0330929F032092A0031092A10300930E
:100FB000A2038090C7049090C804E090C404F0900D
:100FC000C504FCAAEBAAE091C104F091C204F8AFF9
:100FD000EFAB83E090E06C01CA1ADB0ADAAEC9AE6F
:100FE0007301E094F094FCAEEBAEE9A9FAA92E16D9
:100FF0003F0609F4D3C2F20147818085542F482F60
:101000002614370480F4F101EE0FFF1FCFA8D8ACEF
:10101000EC0DFD1D518340830FEF201A300A12E0C2
:10102000410E511CE2CF2A163B06A0F570E060E0AD
:1010300020FC1DC0F101E619F709EE0FFF1FEC7F40
:10104000F370EBA8FCA8EE0DFF1D00811181228139
:10105000338122273327BA0155274427402B512BB0
:10106000622B732B4083518362837383D5CFEBADA7
:10107000FCADE20DF31DEE0FFF1FEC7FF370CBA86C
:10108000DCA8EC0DFD1D0081118122813381002738
:101090001127E4CFF101E370FF276A01F12CE12C65
:1010A00000E010E09801C9A6DAA6EBA6FCA60DA701
:1010B0001EA72FA738AB309749F5F101EA1BFB0BB0
:1010C000EE0FFF1FE87FF770E80DF91DB080C180BB
:1010D000D280E380F480158129A53AA540E050E054
:1010E00060E070E080E090E000E30E9486112B2930
:1010F00020833C2931834D2942835E295383F62A7C
:10110000F482172B15838683978386CFE130F10510
:1011100049F5EA1BFB0BE20DF31DEE0FFF1FE87F05
:10112000F770E80DF91DB080C180D280E380F680B1
:10113000178129A53AA540E050E060E070E080E02A
:1011400090E000E20E9486112B2920833C29318304
:101150004D294283E52AE382648375838F29868340
:10116000912BD2CFE230F10531F5EA1BFB0BE20DFA
:10117000F31DEE0FFF1FE87FF770E80DF91DB0803B
:10118000C180D480E580F680178129A53AA540E08A
:1011900050E060E070E080E090E000E10E948611A5
:1011A0002B2920833C29318342835383D62AD4823E
:1011B000E72AE582D3CFE9ADFAADE20DF31DEE0FDC
:1011C000FF1FE87FF770E80DF91DD9A4D082EAA4CB
:1011D000E18222CFC801019763E070E0803D974033
:1011E00060F52091CC04C101800F911F62E070E096
:1011F0002817190610F1C80123E0969587952A95BE
:10120000E1F79C012D5F3F4F30939C0320939B039C
:10121000980127703327232B29F0049690939C0381
:1012200080939B0380919B0390919C03EDE9F3E0F5
:101230008138910528F064E070E081E090E000CC16
:1012400031969F012D5933402817390710F4108229
:10125000F7CF91E090939E03835080939F03A090DB
:10126000CA04B090CB0470E060E020E0C12CD12C27
:101270007601C39426013701022E04C0440C551C8C
:10128000661C771C0A94D2F7FB0133E0F695E795CC
:101290003A95E1F7E056FC4F3081A101A3E0569565
:1012A0004795AA95E1F74F7155274A0D5B1DDA0165
:1012B0004C9150E0B22DB77002C055954795BA9544
:1012C000E2F7842D40FF0FC0832B80832F5F2830EF
:1012D00009F420E0EFEF2E1A3E0A6F5F7F4F0617EA
:1012E000170741F605CC809538233083EFCFC8012E
:1012F000019763E070E0803D974060F52091D20453
:10130000C101800F911F62E070E02817190610F1EB
:10131000C80123E0969587952A95E1F79C012D5FFA
:101320003F4F30939C0320939B03980127703327F2
:10133000232B29F0049690939C0380939B03809128
:101340009B0390919C03EDE9F3E08138910528F02F
:1013500064E070E082E090E073CB31969F012D59FC
:1013600033402817390710F41082F7CF92E090939A
:101370009E03835080939F036091D0047091D104A9
:1013800050E040E0B12CC12CD12C7601C394260151
:1013900037010B2C04C0440C551C661C771C0A94A6
:1013A000D2F7FA01A3E0F695E795AA95E1F7E056A2
:1013B000FC4FA0809101B3E036952795BA95E1F7EF
:1013C000260F372F311DD9012C9130E0B22DB77087
:1013D00002C035952795BA95E2F7842D20FF10C0FD
:1013E0008A298083B394E8E0BE1201C0B12CFFEFDC
:1013F0002F1A3F0A4F5F5F4F0417150741F678CB4E
:101400008095A822A082EECFC801019763E070E02A
:101410008D379105C8F42091CF04C101800F911F31
:1014200062E070E02817190678F0C801880F991F4C
:10143000039690939C0380939B03EDE9F3E081383E
:10144000910528F064E070E084E090E0F9CA3196FC
:101450009F012D5933402817390710F41082F7CF18
:1014600094E090939E03835080939F03220C331C3F
:10147000E091CD04F091CE04E20DF31D015011096D
:1014800022E0420E511C0F3F100709F431CB80813E
:1014900091813296D20111969C93119712968C935A
:1014A000EDCF0115BFEF1B0729F063E070E00115D8
:1014B000110549F48091CC048150990B8215930554
:1014C00028F462E070E085E090E0BACA41E00115DE
:1014D0001F4F09F040E060E0C1010E94F00208CB1C
:1014E000A80123E0569547952A95E1F7242FB801E6
:1014F00067707727672B11F021E0240FA801415076
:101500005109403B574018F42817190629F063E0A9
:1015100070E08FE090E094CA2091CC04C101800F6C
:10152000911F2817190618F462E070E0F2CF86E0E8
:1015300090E090939C0380939B038FE080939E03A5
:1015400030929F032092A0031093A1030093A20363
:10155000F12CE12CD12CF70183E0F695E7958A95E3
:10156000E1F7E356FC4F478150E00D2C02C0559542
:1015700047950A94E2F7417060E0C1018E0D9F1D0E
:101580000E94F002D39498E0C92EDC1001C0D12C47
:101590002FEFE21AF20A0E151F05E9F600919B03E0
:1015A00010919C037801F2E0EF0EF11CF0929C0385
:1015B000E0929B030E94B602F801E356FC4F908331
:1015C00081838091210487FD09C061E00E94AB0006
:1015D00080911D0490911E040E94F70080912204C6
:1015E00090912304DC01ED91FC910280F381E02DC8
:1015F000A7016DE973E0099580912204909123047D
:10160000DC01ED91FC910680F781E02D0995809138
:101610001D0490911E040E94F7008091210487FD13
:101620005EC960E00E94AB005AC938E1231631045C
:1016300008F073C00831110508F06FC002151305DA
:1016400008F46BC0C101880F991F880F991FDC0136
:10165000AA5FBC4F3D015101B8EA8B2EB3E09B2E2F
:1016600090E080E0F30122813381E8E0CE2ED12C9E
:101670002A30310559F02F30310529F0D12CC12CF9
:101680002230310519F4CC24C394D12C7601E80E14
:10169000F91E9701255F3F4F21383105E0F5C5015F
:1016A0000E943402A601BC01C4010E94E7128C0C06
:1016B0009D1C95012F5F3F4FF4E06F0E711CC70119
:1016C00015010217130728F5C701079690939C038D
:1016D00080939B0383E480939E038EE780939F0314
:1016E0001092A0032092A1038091EE059091EF0546
:1016F0002091F0053091F1053093A2032093A303CC
:101700009093A4038093A503F092A603E092A7030D
:10171000EFC95901A7CF7C01D7CF83E090E0909328
:101720009C0380939B0383E480939E0381E82AC0FB
:1017300005E120163104E8F48E010F5F1F4F1AA750
:1017400009A7F801B12CA12C12E0410E511C2A145A
:101750003B04D9F0D20112968C91129713969C916A
:1017600089279827892781939193BFEFAB1ABB0AEA
:10177000EBCF83E090E090939C0380939B03F092E7
:101780009E0382E880939F03B3C9912C812C20E0B3
:10179000712C612C7BE0E72EF12CA814B90409F41C
:1017A00042C0E9A5FAA5C190D190FAA7E9A7F8E14E
:1017B000CF16D10440F083E090E090939C03809397
:1017C0009B0384E4B1CFF601EE0FFF1FEE0FFF1F66
:1017D000EA5FFC4F8281938108E010E08A30910536
:1017E00049F08F30910521F010E000E0029711F4EC
:1017F00001E010E01701200E311E31E823163104FC
:1018000090F4C6010E943402A801BC01C7018356AE
:101810009C4F0E94E712600E711E4FEF841A940ACB
:101820002C2D7101BACFF0929C03E0929B0384E4CB
:1018300080939E038EE780939F031092A0032093D2
:10184000A1038091EE059091EF052091F005309174
:10185000F1053093A2032093A3039093A4038093F4
:10186000A5037092A6036092A70342C968E12616F9
:10187000310450F48091A2039091A3039827892703
:1018800098278A37910540F083E090E090939C037D
:1018900080939B0382E448CF8101000F111F000F4A
:1018A000111FF801EA5FFC4FE280F38080919A03F8
:1018B0008130D1F0F801EA5FFC4F00811181D11035
:1018C00033C0FAE0EF16F10409F46FC02FE0E2161E
:1018D000F10409F464C032E0E316F10409F054C0E5
:1018E000F80181818D7F45C080E1E816F10411F394
:1018F000C1010E944B029C0136952795FC01E356DD
:10190000FC4FADE9B3E03197CD018D59934082177B
:10191000930780F617968C911797978117969C934B
:10192000179787831196EFCFC1010E944B02AC013C
:101930009AE0E916F104F9F0AFE0EA16F10489F053
:10194000B2E0EB16F10401F564EA73E0C8010E940D
:10195000E712D80111968C911197826011968C93A1
:1019600013C064EA73E0C8010E94E712F8018181A4
:101970008260818309C064EA73E0C8010E94E712B3
:10198000F80180858260808783E090E090939C03DB
:1019900080939B0382E480939E038EE7F3CED8016D
:1019A00011968C9111978D7FD9CFD80118968C9173
:1019B00018978D7F18968C93E7CF2E3D3D4A21F4E2
:1019C00081E080939A036BC883E090E090939C033E
:1019D00080939B0364C830939C0320939B0388C827
:1019E0001F920F920FB60F9211242F933F938F9354
:1019F0009F93AF93BF938091FC059091FD05A091BB
:101A0000FE05B091FF053091FB0523E0230F2D3734
:101A100058F50196A11DB11D2093FB058093FC058F
:101A20009093FD05A093FE05B093FF0580910006FD
:101A300090910106A0910206B09103060196A11DA6
:101A4000B11D8093000690930106A0930206B09307
:101A50000306BF91AF919F918F913F912F910F906E
:101A60000FBE0F901F90189526E8230F0296A11D18
:101A7000B11DD2CF1F920F920FB60F9211242F9348
:101A80003F934F935F936F937F938F939F93AF9306
:101A9000BF93EF93FF9383ED94E00E94A501FF9124
:101AA000EF91BF91AF919F918F917F916F915F91D6
:101AB0004F913F912F910F900FBE0F901F9018954F
:101AC0001F920F920FB60F9211242F938F939F9313
:101AD000EF93FF93E091E304F091E4048081E091BF
:101AE000E904F091EA0482FD1BC090818091EC042E
:101AF0008F5F8F732091ED04821741F0E091EC0429
:101B0000F0E0ED52FB4F958F8093EC04FF91EF9145
:101B10009F918F912F910F900FBE0F901F9018954E
:101B20008081F4CFCF93DF93CDB7DEB7A8970FB600
:101B3000F894DEBF0FBECDBF789484B5826084BDBB
:101B400084B5816084BD85B5826085BD85B58160C1
:101B500085BD80916E00816080936E00109281003F
:101B600080918100826080938100809181008160FA
:101B700080938100809180008160809380008091BB
:101B8000B10084608093B1008091B0008160809347
:101B9000B00080917A00846080937A0080917A000E
:101BA000826080937A0080917A00816080937A00CD
:101BB00080917A00806880937A001092C10080E75B
:101BC00095E00E94820080EA95E00E9482001092D7
:101BD000D0051092D2051092D3051092D405109220
:101BE000D50580E096E4A3ECB3E28093D60590930C
:101BF000D705A093D805B093D9051092DB051092B4
:101C0000DC051092DD051092DE0580E093EAA1EE7E
:101C1000B1E18093DF059093E005A093E105B093D7
:101C2000E2051092E405E091E304F091E40482E01F
:101C30008083E091DF04F091E0041082E091E10400
:101C4000F091E20480E180831092EB04E091E704DC
:101C5000F091E80496E09083E091E504F091E604C9
:101C6000808180618083E091E504F091E6048081C9
:101C700088608083E091E504F091E60480818068CB
:101C80008083E091E504F091E60480818F7D80837C
:101C900023ED34E030932304209322048FEF8093CC
:101CA00021042EEE32E03093200420931F0421E41F
:101CB0003AE030931E0420931D0481E08093C00419
:101CC00080E28093C3041092C6041092C9048093EA
:101CD000CC049093CF0488E08093D20484E090E019
:101CE0000E94C2119093CB048093CA04009779F1AB
:101CF00024E0FC0111922A95E9F780E490E00E942B
:101D0000C2119093C2048093C104009701F120E4B2
:101D1000FC0111922A95E9F781E090E00E94C2113E
:101D20009093D1048093D004009789F0FC01108235
:101D30008CE090E00E94C2119093CE048093CD0479
:101D4000009729F02CE0FC0111922A95E9F710E0A8
:101D500000E0C801880F991F9C0120583B4F790172
:101D6000F90180819181892B49F481E090E00E9402
:101D7000C211F70191838083FC0110820F5F1F4F16
:101D80000032110531F72091C1043091C204E0E422
:101D9000F4E090E080E041915191452B39F4DF016E
:101DA0001297A901480F591F4D935C9302968034F6
:101DB000910589F700E314E020E4E22E24E0F22EFE
:101DC000F801819191918F01892B51F481E090E08C
:101DD0000E94C211F801329791838083FC01108226
:101DE000E016F10669F72091CD043091CE04E4E2CB
:101DF000F4E090E080E041915191452B39F4DF010E
:101E00001297A901480F591F4D935C9302968C308D
:101E1000910589F780E593ECA0E0B0E08093F305AD
:101E20009093F405A093F505B093F6050E94020186
:101E30006093F7057093F8058093F9059093FA0580
:101E400002E080E0E82E80E0F82E11E092E0D92E4A
:101E50000E9402018090F7059090F805A090F90586
:101E6000B090FA05681979098A099B098090F305F1
:101E70009090F405A090F505B090F60568157905E9
:101E80008A059B0508F49FC08091EE059091EF05AF
:101E9000A091F005B091F1050196A11DB11D8093AF
:101EA000EE059093EF05A093F005B093F1058091B6
:101EB000750581FD07C081E09091D005911180E00A
:101EC0008093740580917E0581FD09C088E0E2ED74
:101ED000F5E0A6E7B5E001900D928A95E1F78091D3
:101EE000730582709091700591118EC0811102C0AE
:101EF000109272058091D10581FD04C080917F050B
:101F00008093D0058091E50581FD04C08091D005C6
:101F10008093E4058091EA059091EB05A091EC0592
:101F2000B091ED05AC01BD0140585F4065407D4F6B
:101F300041153AEC53073AE963073BE3730708F0AE
:101F400094C14093EA055093EB056093EC057093C0
:101F5000ED050E9459038091F205811118C010937C
:101F6000F2050E9402018090F3059090F405A09084
:101F7000F505B090F605681979098A099B096093FF
:101F8000F7057093F8058093F9059093FA05809111
:101F9000F7059091F805A091F905B091FA054091E7
:101FA000F3055091F4056091F5057091F605840FE5
:101FB000951FA61FB71F8093F7059093F805A09370
:101FC000F905B093FA050E9402018090F705909000
:101FD000F805A090F905B090FA05681979098A0901
:101FE0009B09603177428105910510F00E945903E9
:101FF000E114F10409F42CCF0E949101882309F423
:1020000027CF0E94000024CF811102C010937205D7
:102010008091960581FD09C088E0E6EEF5E0AEE826
:10202000B5E001900D928A95E1F7C0908A05809104
:102030007405C1101EC090918C05911137C1882381
:10204000D1F080918B0581FF10938A0580918005E6
:1020500081FF10927F0580919F0581FD2AC088E055
:10206000EEE8F5E0A7E9B5E001900D928A95E1F779
:1020700020C0811127C08091890581FD10C0109278
:1020800081051092820510928305109284051092AA
:10209000850510928605109287051092880580911B
:1020A000800581FF10927F0580918B0581FF109242
:1020B0008A0580918D0581FD1DCF809174058093E7
:1020C0008C0518CFF1E0CF12F4CF80919B05909151
:1020D0009C05A0919D05B0919E0580907A059090F9
:1020E0007B05A0907C05B0907D05409197055091AF
:1020F00098056091990570919A05409076055090E9
:1021000077056090780570907905440D551D661D22
:10211000771D498B5A8B6B8B7C8B880D991DAA1D63
:10212000BB1D8D8B9E8BAF8BB88FCE0141960E94CD
:10213000680288E0FE017196DE01599601900D92C9
:102140008A95E1F788E0FE017996DE01919601908B
:102150000D928A95E1F700D000D000D000D0ADB745
:10216000BEB7119688E0EEE8F5E001900D928A95F1
:10217000E1F700D000D000D000D0ADB7BEB71196C7
:1021800088E0FE01B19601900D928A95E1F71F92C9
:102190000F931F921F92CF920E941C030FB6F894C8
:1021A000DEBF0FBECDBF90918905882391F080914D
:1021B0008B0581FFD0928A058091800581FF109365
:1021C0007F0588E0E6E7F5E091FD73CFA1E8B5E093
:1021D0004BCF91FD6ECF8091920590919305A09188
:1021E0009405B091950580909B0590909C05A090DA
:1021F0009D05B0909E0540918E0550918F05609190
:1022000090057091910540909705509098056090C9
:10221000990570909A054419550966097709498B03
:102220005A8B6B8B7C8B88199909AA09BB098D8BFA
:102230009E8BAF8BB88FCE0141960E94680288E0DA
:10224000FE017196DE01119601900D928A95E1F7DB
:1022500088E0FE013196DE01199601900D928A9573
:10226000E1F788E0FE013996B1CF4091E605509143
:10227000E7056091E8057091E9058058994DAF49EF
:10228000B8438093EA059093EB05A093EC05B093D7
:10229000ED054F5F5F4F6F4F7F4F4093E6055093C3
:1022A000E7056093E8057093E90553CE811101CFEE
:1022B000E2CEE3EDF4E01382128288EE93E0A0E038
:1022C000B0E084839583A683B7838AE693E0918305
:1022D000808385EC90E09587848784EC90E09787F5
:1022E000868780EC90E0918B808B81EC90E0938BE3
:1022F000828B82EC90E0958B848B86EC90E0978BC0
:10230000868B118E128E138E148E0895002E083037
:1023100090F0982F872F762F652F542F432F322F31
:1023200022270850F4CF220F331F441F551F661F6A
:10233000771F881F991F0A95B2F7002D089597FD02
:102340001094002E083098F00850232F342F452F7A
:10235000562F672F782F892F912DF4CF15949795AD
:1023600087957795679557954795379527950A955A
:10237000AAF71124002D0895EE0FFF1F0590F49188
:10238000E02D09940F931F93CF93DF938230910533
:1023900010F482E090E0E0910606F091070630E04C
:1023A00020E0B0E0A0E0309799F42115310509F460
:1023B0004AC0281B390B24303105D8F58A819B810E
:1023C0006115710589F1FB0193838283FE0111C0C0
:1023D000408151810281138148175907E0F0481765
:1023E000590799F4109761F012960C93129713966F
:1023F0001C933296CF01DF91CF911F910F910895D9
:102400000093060610930706F4CF2115310551F00D
:102410004217530738F0A901DB019A01BD01DF0122
:10242000F801C1CFEF01F9CF90930706809306061C
:10243000CDCFFE01E20FF31F81939193225031091A
:1024400039832883D7CF2091040630910506232BAA
:1024500041F420910201309103013093050620934D
:10246000040620910001309101012115310541F44C
:102470002DB73EB74091040150910501241B350B47
:10248000E0910406F0910506E217F307A0F42E1B75
:102490003F0B2817390778F0AC014E5F5F4F2417C8
:1024A000350748F04E0F5F1F509305064093040612
:1024B000819391939FCFF0E0E0E09CCFCF93DF93A7
:1024C0000097E9F0FC01329713821282A091060670
:1024D000B0910706ED0130E020E01097A1F42081D3
:1024E0003181820F931F2091040630910506281731
:1024F000390709F061C0F0930506E0930406DF9107
:10250000CF910895EA01CE17DF07E8F54A815B8194
:102510009E0141155105B1F7E901FB83EA83499119
:102520005991C40FD51FEC17FD0761F4808191818B
:102530000296840F951FE901998388838281938194
:102540009B838A83F0E0E0E012968D919C91139733
:102550000097B9F52D913C911197CD010296820F0C
:10256000931F20910406309105062817390739F684
:10257000309751F51092070610920606B0930506A3
:10258000A0930406BCCFD383C28340815181840FC2
:10259000951FC817D90761F44E5F5F4F88819981F5
:1025A000480F591F518340838A819B819383828383
:1025B0002115310509F0B0CFF0930706E093060628
:1025C0009ECFFD01DC01C0CF13821282D7CFFB0169
:1025D000DC0102C001900D9241505040D8F708959F
:0425E000F894FFCF9D
:1025E40000000806800000C0C101C30302C2C60681
:1025F40007C705C5C404CC0C0DCD0FCFCE0E0ACA37
:10260400CB0BC90908C8D81819D91BDBDA1A1EDE86
:10261400DF1FDD1D1CDC14D4D515D71716D6D21236
:1026240013D311D1D010F03031F133F3F23236F646
:10263400F737F53534F43CFCFD3DFF3F3EFEFA3AF6
:102644003BFB39F9F83828E8E929EB2B2AEAEE2E86
:102654002FEF2DEDEC2CE42425E527E7E62622E2F6
:10266400E323E12120E0A06061A163A3A26266A646
:10267400A767A56564A46CACAD6DAF6F6EAEAA6AB6
:102684006BAB69A9A86878B8B979BB7B7ABABE7E06
:102694007FBF7DBDBC7CB47475B577B7B67672B2B6
:1026A400B373B17170B05090915193535292965646
:1026B4005797559594549C5C5D9D5F9F9E5E5A9A76
:1026C4009B5B99595898884849894B8B8A4A4E8E06
:1026D4008F4F8D4D4C8C4484854587474686824276
:1026E40043834181804000C1814001C0804101C0D9
:1026F400804100C1814001C0804100C1814000C1CE
:10270400814001C0804101C0804100C1814000C1BD
:10271400814001C0804100C1814001C0804101C0AD
:10272400804100C1814001C0804100C1814000C19D
:10273400814001C0804100C1814001C0804101C08D
:10274400804100C1814000C1814001C0804101C07D
:10275400804100C1814001C0804100C1814000C16D
:10276400814001C0804101C0804100C1814000C15D
:10277400814001C0804100C1814001C0804101C04D
:10278400804100C1814000C1814001C0804101C03D
:10279400804100C1814001C0804100C1814000C12D
:1027A400814001C0804100C1814001C0804101C01D
:1027B400804100C1814001C0804100C1814000C10D
:1027C400814001C0804101C0804100C1814000C1FD
:1027D400814001C0804100C1814001C0804101C0ED
:1027E400804100C1814070050F0072050F0074051F
:1027F4000F0076050A007F050F0081050A008A058F
:1028040002008C050F008E050A0097050A00A0053A
:102814000F00A2050F00A4050F00A6050A00AF05CE
:102824000F00B1050A00BA050200BC050F00BE0581
:102834000A00C7050A00D0050F00D2050A00DB050F
:102844000A00E4050F0000000000C701270154013D
:102854001402850163017701646539613732653299
:1028640033336330653163386165643738663332D6
:0A28740066386133633835610000F7
:00000001FF
